:100000000C949A050C94B7050C94B7050C94B7059D
:100010000C94B7050C94B7050C94B7050C94B70570
:100020000C94B7050C94B7050C94B7050C94B70560
:100030000C94B7050C94B7050C94B7050C94B70550
:100040000C94B7050C94B7050C9457080C94B7059D
:100050000C94B7050C94B7050C94B7050C94B70530
:100060000C94B7050C94B70580C0400C3EFEF2E03E
:10007000F0E0FF7F3F1F1F1F1F0F0703FFC081001E
:10008000010081C07EFFFFFFFFFFFF7EEFDFBF00AB
:1000900000BFDFEFEFDFBF00FFFFFFFFC381000006
:1000A000000099DBC3810000000081C3DB990000E0
:1000B000000081C3C3810000000081C3FFFFFFFF78
:1000C000FFFFFFFFFFFFFFFFFFFFFFFFFFFFFFFF40
:1000D000FFFFFFFFFFFFFFFFFFFFFFFFFFFFFFFF30
:1000E000FFFFFFFFFFFFFFFFFFFFFFFFFFFFFFFF20
:1000F000FFFFFFFFFFFFFFFFFFFFFFFFFFFFFFFF10
:10047000FFFFFFFFFFFFFFFFFFFFFFFF003F429176
:100480008291423F8100000000000081102040FF67
:10049000FF402010102040FF000000003C4281A1DE
:1004A000899966243C4281A181894A3C24669989C4
:1004B000A181423C3C4A8981A181423CFFFFFFFF70
:1004C000FFFFFFFFFFFFFFFFFFFFFFFFFFFFFFFF3C
:1004D000FFFFFFFFFFFFFFFFFFFFFFFFFFFFFFFF2C
:1004E000FFFFFFFFFFFFFFFFFFFFFFFFFFFFFFFF1C
:1004F000FFFFFFFFFFFFFFFFFFFFFFFFFFFFFFFF0C
:10087000FFFFFFFFFFFFFFFFFFFFFFFF0000000084
:1008800000006F6F00000007000700147F147F1442
:1008900000266B2A104333086463324D49365000FA
:1008A00000070000001C2241000041221C00110A28
:1008B0001F0A1110107C10100000A0600010101012
:1008C0001010000060600040300806013E514945AC
:1008D0003E00427F4000426151494622414949362B
:1008E000080C0A7F0827454545393C4A49493001EB
:1008F000611907013649494936064949291E000050
:100900006C6C000000AC6C0008142241001414143C
:100910001414004122140802015109063E415D5D94
:10092000467C1211127C7F494949363E41414122A1
:100930007F4141413E7F494949417F090909013EC3
:10094000414151727F0808087F41417F4141214167
:100950003F01017F081422417F404040407F020454
:10096000027F7F0608307F3E4141413E7F090909F1
:10097000063E4141617E7F0919294626494949328F
:1009800001017F01013F4040403F1F2040201F3FA9
:100990004030403F6314081463030478040361513A
:1009A00049454300007F41000000000000010608A7
:1009B0003040040201020480808080800102040033
:1009C0000020545454787F484444383844444428E0
:1009D000384444487F3854545418087E090102189A
:1009E000A4A4A4787F0808087000487A40004080DA
:1009F00080887A7F1010284400417F40007C0438B2
:100A000004787C040404783844444438FC242424C6
:100A100018182424FC807C080404084854545420EA
:100A200000083C48203C4040407C0C3040300C1CCE
:100A30006018601C44281028441CA0A0A07C4464BA
:100A4000544C4400083641412040FF40204141368B
:100A500008001008181008630A7C0A9A0AC40AE4FD
:100A60000AFF0A57656C6C206865726520776520FF
:100A700061726520616761696E2E00004974277399
:100A800020616C77617973207375636820612070D1
:100A90006C6561737572652E000052656D656D62DF
:100AA000657220686F7720796F752074726965644C
:100AB00020746F206B696C6C206D6520747769639E
:100AC000653F00004F6820686F77207765206C6174
:100AD000756768656420616E64206C617567686520
:100AE0006421000045786365707420492077617344
:100AF0006E2774206C61756768696E672E000055FB
:100B00006E646572207468652063697263756D73C5
:100B100074616E6365732C20492776652062656574
:100B20006E2053484F434B494E474C59206E6963E2
:100B3000652E000011241FBECFEFD4E0DEBFCDBF75
:100B400011E0A0E0B1E0E2E9F4E202C005900D920C
:100B5000A230B107D9F711E0A2E0B1E001C01D92C7
:100B6000A033B107E1F70E94CD050C9447120C9415
:100B7000000082E38093800089E18093810084E615
:100B800090E090938700809386000E94D81090E0B8
:100B900090938B0080938A0008952B9A8AE18A951E
:100BA000F1F71B9B04C081E08093020102C0109208
:100BB00002012B980E94130F0E94B90580E190E07A
:100BC0000E949F0778940E94E21081708093080130
:100BD0000E94FB0E0E94E50E0E94E81080FF02C0FA
:100BE0000E94180A80E197E220E931E0F90131978B
:100BF000F1F70197D9F780910301882331F50E941D
:100C0000DD108333A1F0843328F4813351F0823333
:100C1000F9F40AC0853389F0853360F08633C1F476
:100C20000FC080EA91E00EC08FEC90E00BC087E629
:100C300090E008C083E390E005C082E290E002C04B
:100C400080E190E00E949F0703C086E30E94F310BA
:100C50000E94E50E0E944C0818C00E942E08982F92
:100C60008C3749F4809103018823E1F30E942E0818
:100C70000E944F0F0AC080528F3520F09D3011F036
:100C8000983019F4892F0E94C60B809103018823A4
:100C9000E1F3E3CF419885E0982F9A95F1F74298D8
:100CA0008A95F1F70E943C0F429A98B19B6098B9DF
:100CB00008950E944A0690E083709070892BC9F3D2
:100CC00008950E945906439885E0982F9A95F1F768
:100CD00098B1997F98B98A95F1F70E943C0F429A92
:100CE00098B19B6098B908951F93182F0E945906D8
:100CF000812F0E94260F85E0982F9A95F1F7409852
:100D0000982F9A95F1F742988A95F1F7429A88B10F
:100D10008B6088B91F910895806F862B0E9474069E
:100D200008951F93182F0E945906812F0E94260FA5
:100D3000439895E0892F8A95F1F788B18A7F88B921
:100D40009A95F1F7429A88B18B6088B91F910895FE
:100D500080E00E94910680E00E94910682E40E9459
:100D6000740684E10E94910680E00E94910683E46B
:100D70000E94740680E80E94740688E90E94740646
:100D800008950F931F9394E1699F80011124869524
:100D900086958695080F111D802F0E949106812F40
:100DA0000E94910684E20E9474061F910F9108959B
:100DB0004F925F926F927F928F929F92AF92BF926B
:100DC000CF92DF92EF92FF920F931F93DF93CF9317
:100DD000CDB7DEB728970FB6F894DEBF0FBECDBFF4
:100DE000882E962E542E452E5E010894A11CB11C0F
:100DF000E82EFF2487E0E822FF2498E0C92ED12CBA
:100E0000CE18DF0889E0682E712C6C0E7D1E882DAF
:100E1000692D0E94C10681EC0E9474060E94610641
:100E2000082F85EC0E9474060E94610610E00E2CCB
:100E300002C0000F111F0A94E2F790E00C2C02C0D0
:100E4000959587950A94E2F7082BF50101935F01C8
:100E50009394E615F705D9F6852D942D9C01D901BB
:100E600060E001E010E07E010894E11CF11C1C929E
:100E700030E040E050E0C801042E02C0880F991F06
:100E80000A94E2F7F701E40FF51F20812823322BA3
:100E90004F5F5F4F4830510571F73D936F5F68308A
:100EA00031F728960FB6F894DEBF0FBECDBFCF91B5
:100EB000DF911F910F91FF90EF90DF90CF90BF9047
:100EC000AF909F908F907F906F905F904F9008951C
:100ED0000F931F93182F042F0E94C10610951770AF
:100EE00080910801882319F0002319F405C000231C
:100EF00019F4812F68E002C0812F60E00E948C0607
:100F00001F910F910895CF93DF9380E060E00E94DE
:100F1000C106C0E0D0E080910801882311F08FEF76
:100F200001C080E00E94910680EC0E947406219628
:100F30008AE0C030D80779F7DF91CF910895909378
:100F4000C5008093C40082E08093C00088E980934C
:100F5000C10086E08093C2000895982F8091C00060
:100F600085FFFCCF9093C6000895982F9F708295BF
:100F70008F708A3018F4282F205D02C0282F295C3A
:100F80008091C00085FFFCCF2093C6009A3010F4FA
:100F9000905D01C0995C8091C00085FFFCCF90936B
:100FA000C6000895282F6AE00E941E12392F291BBF
:100FB0008091C00085FFFCCF822F64E60E941E1244
:100FC000805D8093C6008091C00085FFFCCF822F9A
:100FD00064E60E941E12892F6AE00E941E12805D44
:100FE0008093C6008091C00085FFFCCF305D3093B8
:100FF000C6000895282F90E040E331E320FF07C0AA
:101000008091C00085FFFCCF3093C60006C0809160
:10101000C00085FFFCCF4093C6009F5F983011F061
:101020002695ECCF0895FC0107C08091C00085FF94
:10103000FCCF31969093C60090819923B1F78091AF
:10104000C00085FFFCCF8AE08093C6008091C0007D
:1010500085FFFCCF8DE08093C60008958091030149
:101060008150809303018091060190910701FC015A
:10107000E05FFE4FE08101969093070180930601A7
:101080008091060190910701809721F41092070149
:10109000109206018E2F08951092030110920701FD
:1010A00010920601109205011092040108951F92FA
:1010B0000F920FB60F9211242F938F939F93EF935C
:1010C000FF938091040190910501809721F4109283
:1010D000050110920401809103018F5F8093030149
:1010E00080910401909105012091C600FC01E05F10
:1010F000FE4F208301969093050180930401FF9198
:10110000EF919F918F912F910F900FBE0F901F9095
:101110001895439884EF91E020E931E0F901319787
:10112000F1F70197D9F7439A84EF91E020E931E094
:10113000F9013197F1F70197D9F708958AE1982FCE
:101140009A95F1F7409A982F9A95F1F740988A95D9
:10115000F1F7089588B1897C88B980EC0E94260F48
:101160000E949E0888B1866388B90E94480F08953E
:1011700088B1897F88B98FE30E94260F0E949E085C
:1011800088B1866088B90E94480F089598B1997F08
:1011900098B98770886B0E94260F0E949E0888B1BC
:1011A000866088B90E94480F089598B1997F98B9D0
:1011B000809309018F7380640E94260F0E949E080D
:1011C00088B1866088B90E94480F08950E94260F52
:1011D00080910901803410F0459801C044984298EC
:1011E0000E949E0888B1856388B90E94480F80914B
:1011F00009018F5F8093090187FF05C010920901E3
:1012000080E00E94D5080895FF920F931F9380916C
:101210000801813019F4FF24FA9401C0FF2400E092
:10122000802F0E94C60880E00E94D50810E08F2D14
:101230000E94E6081F5F1038D1F70F5F083081F772
:1012400080E00E94C60880E00E94D5081F910F919F
:10125000FF9008951F93803418F488B18E7E02C0E9
:1012600088B18E7D88B915E3812F8A95F1F7409A70
:10127000812F8A95F1F74098812F8A95F1F7409A4E
:10128000812F8A95F1F70E943C0F4098912F9A95F3
:10129000F1F798B1916398B91A95F1F71F910895F4
:1012A000FF920F931F93082F162FF42E0E94D5083C
:1012B000812F8695869586950E94C608802F0E946C
:1012C0002A09282F177080910801882319F4FF201C
:1012D00071F403C081E0F81651F481E090E002C09F
:1012E000880F991F1A95E2F7122F182B0AC081E078
:1012F00090E002C0880F991F1A95E2F7182F1095F9
:101300001223802F0E94D508812F0E94E6081F918A
:101310000F91FF9008959F92AF92BF92CF92DF926C
:10132000EF92FF920F931F93CF93DF93982E142F7A
:10133000052F27E0F22EF62298E0B92EBF18A62E30
:10134000A694A694A6948A2D0E94C608212F302F19
:10135000C9016C01EC01EE2408E010E00F1911093D
:101360008E2D890D0E942A0990E0002E02C0880F60
:10137000991F0A94E2F78993E39488E0E81681F7CD
:101380008A2D8F5F0E94C608C0E0D0E088E0E82E7A
:10139000F12CEB18F108F6011081892D8C0F0E94B9
:1013A0002A0990E00E2C02C0959587950A94E2F7E1
:1013B000182BF60111936F012196C830D10559F70A
:1013C000DF91CF911F910F91FF90EF90DF90CF9021
:1013D000BF90AF909F900895982F8091020188232D
:1013E00021F4892F0E948B090895892F0E94D80625
:1013F0000895982F80910201882361F48091000163
:101400009817A8F480910101681788F4892F0E9429
:1014100050090895813059F480910001981738F4EB
:1014200080910101681718F4892F0E9468070895B8
:10143000BF92CF92DF92EF92FF920F931F93CF93C1
:10144000DF93C0900001C69426EFF22EFC0CD090E2
:101450000101D69498EFB92EBD0CC8E6D0E00F2D4F
:10146000FE01E4901B2D80910801882319F4E0FE11
:1014700003C006C0E0FE04C0802F612F41E003C01E
:10148000802F612F40E00E94F9091F5F1D1511F0A8
:10149000E694E9CF21960F5F0C1511F7C2E7D0E073
:1014A00088E0E82EED0CFE0104911D2D80910801CD
:1014B000882319F400FF03C006C000FF04C08F2D6D
:1014C000612F41E003C08F2D612F40E00E94F90998
:1014D0001F5F1E1511F00695E9CF2196F394FC14B9
:1014E00011F7DF91CF911F910F91FF90EF90DF9057
:1014F000CF90BF900895DF92EF92FF920F931F93CA
:10150000D82EE42EF22E481710F4ED2CD42EF61619
:1015100018F48F2DF62E682F062F09C0812F602F0B
:1015200041E00E94F9091F5FE116C0F70F5FF01656
:1015300010F01D2DF9CF1F910F91FF90EF90DF90CC
:1015400008957F928F929F92AF92BF92CF92DF9237
:10155000EF92FF920F931F93DF93CF93CDB7DEB738
:1015600028970FB6F894DEBF0FBECDBFC82EB62E9B
:10157000D22E702EE42EFF24B3E0EE0CFF1CBA95A1
:10158000E1F78E010F5F1F4FA8010E94EC09B70120
:1015900064587F4F970124583B4FA7017801DA0127
:1015A000189619C080910801882321F0F7018081E5
:1015B00080958083FB018491F70190818923F90153
:1015C0009491892BF70181937F014F5F5F4F6F5F8C
:1015D0007F4F2F5F3F4F4A175B0720F3F3E3DF1680
:1015E00009F473C0FD1528F080E3D81609F0BAC0DD
:1015F0003EC0E6E3DE1691F0F9E3DF1609F0B2C073
:10160000A7E0EA2EEB0CF7E0AF2EAC0CBC2CBA94A2
:10161000E9E0CE2ED12CCC0EDD1EA2C077E0E72E65
:10162000EC0C69E0862E912C8C0E9D1E77C0F80183
:101630008081772019F480FF03C006C080FF04C0BA
:101640008C2D6F2D41E003C08C2D6F2D40E00E944A
:10165000F909F801808186958083FA94FE1439F7A0
:101660000F5F1F4FC3940A151B0559F47BC057E049
:10167000D52EDB0CEB2CEA9449E0A42EB12CAC0E59
:10168000BD1EFD2CD4CFF8018081772019F480FF96
:1016900003C006C080FF04C08F2D6B2D41E003C046
:1016A0008F2D6B2D40E00E94F909F801808186950D
:1016B0008083E394F394F8E0EF1629F70F5F1F4F50
:1016C000B3940815190531F44DC039E0832E912CDF
:1016D0008C0E9D1EFC2CEE24D6CFF8018081772045
:1016E00019F480FF03C006C080FF04C08E2D6F2D4B
:1016F00041E003C08E2D6F2D40E00E94F909F801F2
:10170000808186958083D394F394F8E0DF1629F7DF
:101710000F5F1F4FEA940815190521F1FB2CDD24FA
:10172000DCCFF8018081772019F480FF03C006C068
:1017300080FF04C08F2D6E2D41E003C08F2D6E2DD4
:1017400040E00E94F909F801808186958083FA942F
:10175000FB1439F70F5F1F4FEA940C151D0511F0AC
:10176000FA2CDFCF28960FB6F894DEBF0FBECDBFA0
:10177000CF91DF911F910F91FF90EF90DF90CF906D
:10178000BF90AF909F908F907F900895EF92FF92BF
:101790000F931F93CF93DF93F82E88E0F816A9F1EB
:1017A000EDE0FE1609F09DC080910001482F50E049
:1017B0004550504020910E0130910F0160910A0177
:1017C000862F90E06A5F722FE32F2F5F3F4F8417C1
:1017D0009507B4F370930E01E0930F0180910C0113
:1017E00080930A0120910B01285F20930B0130E0C8
:1017F0008091010190E00797281739070CF471C018
:1018000080910D0180930B016CC080910E0190912D
:101810000F01009709F465C0019790930F01809321
:101820000E0150910A0180910C015817C1F54091A9
:101830000B0180910D01481701F580910101282FBE
:1018400030E028503040642F685F842F90E082178A
:10185000930714F4462FF7CF40930B0180910001BA
:10186000282F30E025503040452F4A5F852F90E0EB
:1018700082179307A4F4542FF7CF485040930B01DD
:1018800080910001282F30E025503040452F4A5FDD
:10189000852F90E08217930714F4542FF7CF5650FA
:1018A00050930A0100910A0113C010910B0106C068
:1018B000802F612F41E00E94F9091F5F80910B0189
:1018C00090E00796212F30E0821793078CF70F5F87
:1018D00080910A0190E00496202F30E08217930750
:1018E00024F78F2D80528F3508F06CC02F2D30E0FB
:1018F0002052304080910E0190910F0101969093FB
:101900000F0180930E0100910A01E901CC0FDD1F48
:10191000CC0FDD1FC20FD31FC458D74F28C0FE0104
:10192000849110910B01E82EFF2414C0241B350B69
:10193000C70102C0959587952A95E2F780FF04C0FC
:10194000802F612F40E003C0802F612F41E00E9473
:10195000F9091F5F80910B01482F50E0212F30E0E3
:10196000CA010796821793070CF70F5F21964091E3
:101970000A01842F90E00496202F30E0821793070D
:1019800074F6242F2A5F20930A0130E08091000131
:1019900090E0069728173907ACF080910C018093EE
:1019A0000A0120910B01285F20930B0130E0809108
:1019B000010190E007972817390724F080910D0165
:1019C00080930B01DF91CF911F910F91FF90EF90CA
:1019D00008952F923F924F925F926F927F928F92D3
:1019E0009F92AF92BF92CF92DF92EF92FF920F93AE
:1019F0001F93DF93CF9300D00F92CDB7DEB7982E11
:101A0000862E242E3324C101880F991F21E030E057
:101A1000281B390B3B832A834424552466247724CE
:101A20005201AA0CBB1C322D390D3983E42CE80C71
:101A3000832F6E2D40E00E94F909C42CC90CD22CD2
:101A4000D80C8C2D6D2D40E00E94F909F92CF2186C
:101A50008F2D6E2D40E00E94F909E92CE4188E2D9F
:101A60006D2D40E00E94F909D82CD4188F2D6D2DD2
:101A700040E00E94F909182D12198E2D612F40E0C7
:101A80000E94F90989816D2D40E00E94F9098C2D91
:101A9000612F40E00E94F9090894411C511C6A0C16
:101AA0007B1CC301880F991FEA81FB818E0F9F1F4A
:101AB0001816190644F40894210831086E0E7F1E8A
:101AC0003296FB83EA83241435040CF0A9CF0F90DF
:101AD0000F900F90CF91DF911F910F91FF90EF909A
:101AE000DF90CF90BF90AF909F908F907F906F903E
:101AF0005F904F903F902F9008952F923F924F927A
:101B00005F926F927F928F929F92AF92BF92CF928D
:101B1000DF92EF92FF920F931F93DF93CF9300D04A
:101B200000D000D0CDB7DEB7482E562E481734F17E
:101B3000841751F526171CF4822F262F582EC42CFB
:101B4000DD24C7FCD094AA24BB24E52CFF24E7FCA9
:101B5000F094022F112707FD109509C0652D6A0D1D
:101B60008C2D40E00E94F9090894A11CB11CC5010C
:101B70008E0D9F1D081719078CF7E8C0842F442D80
:101B8000482E822F262F582E652C772467FC7094C0
:101B90005216D9F4CC24DD24E42CFF24E7FCF09485
:101BA000042F112707FD109509C0842D8C0D662D7B
:101BB00040E00E94F9090894C11CD11CC6018E0D99
:101BC0009F1D081719078CF7C1C0822F992787FD21
:101BD00090959A83898363019C0126193709242EE5
:101BE000332427FC3094E42CFF24E7FCF094A1017B
:101BF0004E195F094901880C991C5A01AA0CBB1C9B
:101C000037FD4FC0F401EA19FB09FE83ED8342174B
:101C1000530714F15401A41AB50A00E010E015C0EE
:101C2000842D800F6C2D40E00E94F9091A141B04CA
:101C30001CF0A80CB91C07C00894C11CD11C2D8134
:101C40003E81A20EB31E0F5F1F4FC8018E0D9F1D58
:101C5000281639062CF77AC04501821A930A00E04B
:101C600010E0630115C0652D600F8E2D40E00E94CD
:101C7000F909181419041CF08A0C9B1C07C008945D
:101C8000E11CF11C8D819E81881A990A0F5F1F4FFC
:101C9000C8018C0D9D1DE981FA81E817F9071CF731
:101CA00055C0C501880D991D9C838B838827992772
:101CB000821B930B481759072CF1AA24BB24A818A0
:101CC000B908A41AB50A00E010E015C0842D800FF1
:101CD0006C2D40E00E94F9091A141B041CF0A8188E
:101CE000B90807C00894C108D108EB81FC81AE1A7D
:101CF000BF0A0F5F1F4FC8018E0D9F1D28163906A2
:101D00002CF724C04501820E931E00E010E0630111
:101D100015C0652D601B8E2D40E00E94F909181436
:101D200019041CF08A0C9B1C07C00894E11CF11CD0
:101D30002B813C81820E931E0F5F1F4FC601801BBB
:101D4000910BE981FA818E179F071CF726960FB633
:101D5000F894DEBF0FBECDBFCF91DF911F910F91E1
:101D6000FF90EF90DF90CF90BF90AF909F908F90BB
:101D70007F906F905F904F903F902F900895CF92FB
:101D8000DF92EF92FF920F931F93182FC62EE42E2F
:101D9000F22E412F0E947D0D812F6C2D4E2D2C2D6A
:101DA0000E947D0D8E2D6F2D412F2F2D0E947D0DB8
:101DB0008E2D6F2D4E2D2C2D0E947D0D1F910F917C
:101DC000FF90EF90DF90CF90089580910C01809369
:101DD0000A0180910D0180930B0110920F01109266
:101DE0000E0180910201882319F40E9404090895CC
:101DF0000E948307089580910201882359F40E946C
:101E000089080E94B8080E94040980E880930001B4
:101E100080E406C00E94A80680EA8093000180E862
:101E20008093010108958FE084B98CEF8AB92A98D4
:101E300080910201882321F48FE387B988B908953E
:101E4000813019F48FE387B988B9089594B193600C
:101E500094B99AB19C6F9AB995B19C7F95B99BB191
:101E600093709BB925B1982F9370922B95B99BB124
:101E70008C7F982B9BB9089584B18C7F84B98AB1EB
:101E800083708AB993B189B18C7F9370892B08953F
:101E900084B18C7F84B98AB183708AB90895EF9236
:101EA000FF920F931F93DF93CF9300D000D00F9238
:101EB000CDB7DEB78B3009F452C18C30A0F483303B
:101EC00009F4F9C0843030F48823C1F1823009F07C
:101ED00063C143C0853009F429C18530E0F0873003
:101EE00009F05AC14FC0823161F1833150F48F3013
:101EF00009F4FEC0803109F4A4C08C3009F04CC153
:101F0000BCC0883109F46DC0893109F480C08331C7
:101F100009F042C11FC00E94E50E0E94131180917A
:101F2000080111E08127809308010E94E50E0E94BC
:101F30001311809108018127809308010E94E50E0A
:101F40002BC18091080191E08927809308010E94AC
:101F5000FC10F4CF0E9408111FC180910301882357
:101F6000E1F30E942E088983853610F084E6898388
:101F70008981282F30E030938B0020938A000E94C3
:101F8000ED100AC1809103018823E1F30E942E081D
:101F9000182F0E94F3101333C1F0143330F41133AF
:101FA00061F0123309F0F8C00BC01533A1F01533FE
:101FB00078F0163309F0F0C011C080EA91E002C059
:101FC0008FEC90E00E949F07E7C087E690E0FACF91
:101FD00083E390E0F7CF82E290E0F4CF80E190E0FD
:101FE000F1CF809103018823E1F30E942E08482F4E
:101FF0008091000190E00597242F30E028173907E1
:102000000CF0CAC040930C0140930A0115C08091A6
:1020100003018823E1F30E942E084A818091010187
:1020200090E00797242F30E0281739070CF0B4C050
:1020300040930D0140930B0110920F0110920E017D
:10204000ABC010E07E010894E11CF11C80910301FB
:10205000882339F00E942E08F701E10FF11D8083DB
:102060001F5F133098F340E08B81882309F441E02F
:1020700089816A810E94F9098FC010E07E0108946D
:10208000E11CF11C80910301882339F00E942E0885
:10209000F701E10FF11D80831F5F153098F300E019
:1020A0008D81882309F401E089816A814B812C812B
:1020B0000E947D0D71C010E07E010894E11CF11CAE
:1020C00080910301882339F00E942E08F701E10F67
:1020D000F11D80831F5F143098F320E08C818823EA
:1020E00009F421E089816A814B810E94E90C54C086
:1020F00010E07E010894E11CF11C8091030188230B
:1021000039F00E942E08F701E10FF11D80831F5F57
:10211000153098F300E08D81882309F401E089816E
:102120006A814B812C810E94BF0E36C010E07E0177
:102130000894E11CF11C80910301882339F00E946E
:102140002E08F701E10FF11D80831F5F143098F313
:1021500089816A814B812C810E947B0A1DC010E01D
:102160007E010894E11CF11C80910301882339F061
:102170000E942E08F701E10FF11D80831F5F1530CB
:1021800098F300E08D81882309F401E089816A8158
:102190004B812C810E94A10A0F900F900F900F90FD
:1021A0000F90CF91DF911F910F91FF90EF900895C5
:1021B00083E090E00E943112089582E090E00E9456
:1021C0003112089581E090E00E94311280950895C7
:1021D00080E090E00E9431120895682F83E090E043
:1021E0000E9439120895682F8153863020F482E0CE
:1021F00090E00E943912089581E090E00E9431122F
:10220000682F6095617081E090E00E943912089516
:1022100080E090E00E94311261E0682780E090E069
:102220000E94391208959F92AF92BF92CF92DF928F
:10223000EF92FF920F931F93DF93CF93CDB7DEB74B
:10224000C054D0400FB6F894DEBF0FBECDBF57E5E7
:10225000E52E5AE0F52E1DEF5E010894A11CB11C7D
:1022600040E9C42E41E0D42EF70165917491C50177
:102270000E942A1200E003C00F5F0E94C60BF50106
:10228000E00FF11D80818823B9F78DE00E94C60B15
:102290008CE49DE1F6013197F1F70197D9F71230FF
:1022A00088F48CE49DE1F6013197F1F70197D9F7B5
:1022B0000E94E50E10920A018091010186958850D6
:1022C00080930B0182E090E0E80EF91E1F5F13304F
:1022D00059F6EE24E394FF24DD24D3941DC0EE20B0
:1022E00031F0812F6F2D4FE720E300E005C0812FF3
:1022F0006F2D4FE720E301E00E94A10AED24185F53
:10230000212F30E08091000190E0079728173907CE
:1023100034F3ED2498E0F90E2F2D30E08091010187
:1023200090E007972817390714F410E0E9CF88E800
:1023300093E120E931E0F9013197F1F70197D9F7FD
:1023400012E030E9E32E31E0F32E0FC0609101017D
:102350006695412F20E00E94E90C84EC99E0F7019A
:102360003197F1F70197D9F7185F809100018695B1
:10237000181760F3DD24D394FF2420E9A22E21E076
:10238000B22E9924939439C0DD2021F0812F6F2D36
:1023900044E003C0812F6F2D45E020E300E00E9460
:1023A000A10A9AE0E92EE10E8E2D6F2D40E020E388
:1023B00000E00E94A10A80ED97E0F5013197F1F766
:1023C0000197D9F7D924812F6F2D195F412F2C2D1B
:1023D0000E947B0A165F8E2D6F2D412F2C2D0E949F
:1023E0007B0A1950212F30E08091000190E007977F
:1023F000281739074CF288E0F80E2F2D30E0809135
:10240000010190E00797281739072CF410E087E0C6
:10241000C82ECF0CE7CFC05CDF4F0FB6F894DEBFFD
:102420000FBECDBFCF91DF911F910F91FF90EF9025
:10243000DF90CF90BF90AF909F900895991B79E067
:1024400004C0991F961708F0961B881F7A95C9F744
:1024500080950895FB01DC0105900D920020E1F7C5
:102460000895F999FECF92BD81BDF89A992780B55C
:102470000895262FF999FECF1FBA92BD81BD20BDC8
:102480000FB6F894FA9AF99A0FBE01960895F89447
:02249000FFCF7C
:02249200804088
:00000001FF
