:100000000C9434000C9451000C9451000C94510049
:100010000C9451000C9451000C9451000C9451001C
:100020000C9451000C9451000C9451000C9451000C
:100030000C9451000C9451000C9451000C945100FC
:100040000C9451000C9451000C94E1000C9451005C
:100050000C9451000C9451000C9451000C945100DC
:100060000C9451000C94510011241FBECFEFD4E02A
:10007000DEBFCDBF11E0A0E0B1E0E4E3F2E002C0FA
:1000800005900D92A430B107D9F712E0A4E0B1E0D9
:1000900001C01D92AB3AB107E1F70E9479000C94C0
:1000A00018010C94000083E084B98CEF8AB9229A7D
:1000B00080910401882321F48FE387B988B90895DA
:1000C000813019F48FE387B988B9089582E380936A
:1000D000800089E18093810084E690E0909387001E
:1000E0008093860089E190E090938B0080938A0052
:1000F000089580E190E00E94CB000E94530082E3CB
:100100008093800089E18093810084E690E0909361
:1001100087008093860089E190E090938B00809324
:100120008A0081E20E94D900FFCF25B1982F9C7FE1
:10013000922B95B99BB18370982B9BB988B118B855
:10014000419A88B118B8429A089588B118B8409A6F
:1001500088B118B883B189B1429A089525B1982F12
:100160009C7F922B95B99BB18370982B9BB988B1DA
:1001700018B888B18A6088B988B118B8429A0895C9
:1001800088B118B888B1896088B988B118B883B1C6
:1001900089B1429A08959093C5008093C40082E08B
:1001A0008093C00088E98093C10086E08093C200FC
:1001B0000895982F8091C00085FFFCCF9093C600D2
:1001C00008951F920F920FB60F9211242F938F93C1
:1001D0009F93EF93FF938091050190910601019603
:1001E00090930601809305010197805A914021F474
:1001F00010920601109205018091090190910A0167
:10020000019690930A0180930901E0910501F09114
:1002100006018091C600E55FFE4F8083FF91EF915C
:100220009F918F912F910F900FBE0F901F90189557
:04023000F894FFCF70
:040234000000640062
:00000001FF
