:100000000C9434000C9451000C9451000C94510049
:100010000C9451000C9451000C9451000C9451001C
:100020000C9451000C9451000C9451000C9451000C
:100030000C9451000C9451000C9451000C945100FC
:100040000C9451000C9451000C9455010C945100E7
:100050000C9451000C9451000C9451000C945100DC
:100060000C9451000C94510011241FBECFEFD4E02A
:10007000DEBFCDBF11E0A0E0B1E0E8EDF4E002C0EA
:1000800005900D92A230B107D9F712E0A2E0B1E0DD
:1000900001C01D92A93AB107E1F70E9472000C94C9
:1000A0006A020C9400008FE084B98CEF8AB92A9818
:1000B0008FE387B988B9089582E38093800089E14E
:1000C0008093810084E690E090938700809386007F
:1000D00089E190E090938B0080938A0008952B9A99
:1000E0002B9808951F9380E190E00E9422010E94C6
:1000F000530082E38093800089E18093810084E64D
:1001000090E0909387008093860089E190E090933F
:100110008B0080938A0081E20E9430018AE00E9475
:10012000300178940E948C010E94D9010E940E0235
:1001300081E10E94020282E20E94020283E30E94A5
:10014000020284E40E94020285E50E94020286E621
:100150000E94020287E70E94020288E80E940202CF
:1001600080E00E94F4010E94390210E00E943902EE
:100170000E9438018AE00E9430011F5F1830B1F7F9
:1001800024C0809103019091040101979093040190
:10019000809303018091070190910801805A91405A
:1001A00021F410920801109207012091070130916B
:1001B0000801F901E75FFE4F80812F5F3F4F3093C9
:1001C0000801209307010E94300180910301909162
:1001D0000401892BD1F3D5CF25B1982F9C7F922B89
:1001E00095B99BB18370982B9BB988B118B8419A87
:1001F00088B118B8429A089588B118B8409A88B161
:1002000018B883B189B1429A089525B1982F9C7F7F
:10021000922B95B99BB18370982B9BB988B118B874
:1002200088B18A6088B988B118B8429A089588B1AF
:1002300018B888B1896088B988B118B883B189B114
:10024000429A08959093C5008093C40082E0809301
:10025000C00088E98093C10086E08093C2000895C1
:10026000982F8091C00085FFFCCF9093C600089521
:10027000982F9F7082958F708A3018F4282F205DF8
:1002800002C0282F295C8091C00085FFFCCF2093FD
:10029000C6009A3010F4905D01C0995C8091C00056
:1002A00085FFFCCF9093C60008951F920F920FB662
:1002B0000F9211242F938F939F93EF93FF9380912D
:1002C000050190910601805A914021F41092060197
:1002D0001092050180910301909104010196909381
:1002E0000401809303018091050190910601209102
:1002F000C600FC01E75FFE4F208301969093060144
:1003000080930501FF91EF919F918F912F910F9015
:100310000FBE0F901F901895439884EF91E020E94D
:1003200031E0F9013197F1F70197D9F7439A84EF5A
:1003300091E020E931E0F9013197F1F70197D9F720
:10034000089584B18C7F84B98AB183708AB988B1E9
:100350008C7E88B98AE1982F9A95F1F7409A8A9510
:10036000F1F789B18079E9F740989AE1892F8A9568
:10037000F1F788B1836188B99A95F1F708950895E6
:100380008AE1982F9A95F1F7409A982F9A95F1F76C
:1003900040988A95F1F7089588B1897C88B980ECF6
:1003A00090E00E9448020E94C00188B1866388B92B
:1003B000089588B1897F88B98FE390E00E94480250
:1003C0000E94C00188B1866088B9089598B1997F6C
:1003D00098B98770886B90E00E9448020E94C00123
:1003E00088B1866088B9089598B1997E98B98F735D
:1003F000806490E00E9448020E94C00188B186613A
:1004000088B9089590E00E94480288B18B7E88B92F
:100410000E94C00188B1846188B908950F931F9329
:1004200000E0802F0E94E60180E00E94F40110E0CD
:1004300080E00E9402021F5F1034D1F70F5F083086
:1004400081F780E00E94E60180E00E94F4011F91A4
:100450000F9108950E945E0288B18D7E88B90E9436
:10046000C0010E94C0010E945E0298B1926198B9D9
:1004700008950E945E0244988AE1982F9A95F1F7B8
:10048000409A8A95F1F70E945E024098449A089536
:1004900094B1936094B99AB19C6F9AB995B19C7FCD
:1004A00095B99BB193709BB925B1982F9370922BFE
:1004B00095B99BB18C7F982B9BB9089584B18C7FA3
:1004C00084B98AB183708AB993B189B18C7F9370F2
:0804D000892B0895F894FFCF79
:0204D8006400BE
:00000001FF
