:100000000C9422010C943F010C943F010C943F018D
:100010000C943F010C943F010C943F010C943F0160
:100020000C943F010C943F010C943F010C943F0150
:100030000C943F010C943F010C943F010C943F0140
:100040000C943F010C943F010C946C020C943F0102
:100050000C943F010C943F010C943F010C943F0120
:100060000C943F010C943F010000000000006F6FF2
:1000700000000007000700147F147F1400266B2A7D
:10008000104333086463324D4936500000070000C6
:10009000001C2241000041221C00110A1F0A1110FD
:1000A000107C10100000A060001010101010000054
:1000B00060600040300806013E5149453E00427FE5
:1000C000400042615149462241494936080C0A7FA5
:1000D0000827454545393C4A49493001611907011E
:1000E0003649494936064949291E00006C6C000012
:1000F00000AC6C00081422410014141414140041C4
:1001000022140802015109063E415D5D467C121130
:10011000127C7F494949363E414141227F4141415C
:100120003E7F494949417F090909013E41415172D8
:100130007F0808087F41417F414121413F01017F04
:10014000081422417F404040407F0204027F7F0626
:1001500008307F3E4141413E7F090909063E414149
:10016000617E7F09192946264949493201017F01EB
:10017000013F4040403F1F2040201F3F4030403F54
:100180006314081463030478040361514945430070
:10019000007F41000000000000010608304004021A
:1001A00001020480808080800102040000205454F9
:1001B00054787F48444438384444442838444448B8
:1001C0007F3854545418087E09010218A4A4A47856
:1001D0007F0808087000487A4000408080887A7F55
:1001E0001010284400417F40007C043804787C04CF
:1001F0000404783844444438FC2424241818242463
:10020000FC807C08040408485454542000083C48EE
:10021000203C4040407C0C3040300C1C6018601C7E
:1002200044281028441CA0A0A07C4464544C4400E2
:10023000083641412040FF40204141360800100867
:100240001810080011241FBECFEFD4E0DEBFCDBFD1
:1002500011E0A0E0B1E0E4EDFDE002C005900D92F8
:10026000A231B107D9F712E0A2E1B1E001C01D92BD
:10027000AC3BB107E1F70E9454010C94E8060C94E2
:10028000000082E38093800089E18093810084E60E
:1002900090E0909387008093860089E190E09093AE
:1002A0008B0080938A00089580E190E00E94BA015B
:1002B0000E945B0682E38093800089E18093810045
:1002C00084E690E0909387008093860089E190E037
:1002D00090938B0080938A000E94540680E091E006
:1002E0000E942E02789409C00E944902803218F4BC
:1002F0000E94890602C00E94140680911301909109
:100300001401892BD1F3F0CF25B1982F9C7F922B2C
:1003100095B99BB18370982B9BB988B118B8419A55
:1003200088B118B8429A089588B118B8409A88B12F
:1003300018B883B189B1429A089525B1982F9C7F4E
:10034000922B95B99BB18370982B9BB988B118B843
:1003500088B18A6088B988B118B8429A089588B17E
:1003600018B888B1896088B988B118B883B189B1E3
:10037000429A08959093C5008093C40082E08093D0
:10038000C00088E98093C10086E08093C200089590
:10039000982F8091C00085FFFCCF9093C6000895F0
:1003A000982F9F7082958F708A3018F4282F205DC7
:1003B00002C0282F295C8091C00085FFFCCF2093CC
:1003C000C6009A3010F4905D01C0995C8091C00025
:1003D00085FFFCCF9093C6000895282F6AE00E9405
:1003E000DC06392F291B8091C00085FFFCCF822FAE
:1003F00064E60E94DC06805D8093C6008091C000A8
:1004000085FFFCCF822F64E60E94DC06892F6AE01C
:100410000E94DC06805D8093C6008091C00085FF4D
:10042000FCCF305D3093C6000895282F90E040E364
:1004300031E320FF07C08091C00085FFFCCF3093DF
:10044000C60006C08091C00085FFFCCF4093C60067
:100450009F5F983011F02695ECCF0895FC0107C0FE
:100460008091C00085FFFCCF31969093C6009081AB
:100470009923B1F78091C00085FFFCCF8AE080937B
:10048000C6008091C00085FFFCCF8DE08093C60040
:100490000895809113019091140101979093140194
:1004A000809313018091170190911801FC01E45E83
:1004B000FE4FE0810196909318018093170180917F
:1004C000170190911801805A914021F4109218015F
:1004D000109217018E2F08951F920F920FB60F9250
:1004E00011242F938F939F93EF93FF938091150186
:1004F00090911601805A914021F4109216011092A9
:1005000015018091130190911401019690931401AB
:100510008093130180911501909116012091C600DE
:10052000FC01E45EFE4F20830196909316018093B8
:100530001501FF91EF919F918F912F910F900FBE19
:100540000F901F901895439884EF91E020E931E0D7
:10055000F9013197F1F70197D9F7439A84EF91E0C8
:1005600020E931E0F9013197F1F70197D9F70895C2
:10057000089508958AE1982F9A95F1F7409A982F57
:100580009A95F1F740988A95F1F7089588B1897C9A
:1005900088B980EC0E9467060E94BA0288B186631F
:1005A00088B9089588B1897F88B98FE30E9467066A
:1005B0000E94BA0288B1866088B9089598B1997F7F
:1005C00098B98770886B0E9467060E94BA0288B14A
:1005D000866088B9089598B1997F98B98093190178
:1005E0008F7380640E9467060E94BA0288B1866099
:1005F00088B908950E94670680911901803410F02F
:10060000459801C0449842980E94BA0288B1856317
:1006100088B9809119018F5F8093190187FF05C008
:100620001092190180E00E94EB0208950F931F932E
:1006300000E0802F0E94DE0280E00E94EB0210E0CA
:1006400080E00E94FA021F5F1038D1F70F5F083078
:1006500081F780E00E94DE0280E00E94EB021F91A1
:100660000F9108950F931F93162F042F0E94EB02F2
:10067000812F0E94DE02802F0E94FA021F910F91AB
:1006800008950E947D0688B18D7E88B90E94BA02C5
:100690000E94BA020E947D0698B1926198B90895AD
:1006A0001F93803418F488B18E7E02C088B18E7D8D
:1006B00088B91AE2812F8A95F1F7409A812F8A959D
:1006C000F1F74098812F8A95F1F7409A812F8A950A
:1006D000F1F70E947D064098912F9A95F1F798B115
:1006E000916398B91A95F1F71F910895FF920F93AE
:1006F0001F93F82E162F042F0E94EB02812F869550
:10070000869586950E94DE028F2D0E945003282F29
:100710001770002351F481E090E002C0880F991F08
:100720001A95E2F7122F182B0AC081E090E002C060
:10073000880F991F1A95E2F7182F109512238F2D05
:100740000E94EB02812F0E94FA021F910F91FF90ED
:100750000895EF92FF920F931F93CF93DF93062F8D
:10076000F42EE52E882311F41FE306C0803411F423
:100770001FE702C0182F1150812F0E94EB02103486
:1007800070F488B18E7E88B9202F30E08FE390E03E
:10079000811B9109821793073CF400E005C017FD07
:1007A00028C088B18E7D88B90E94BA02409A85E33C
:1007B0008A95F1F740988AE18A95F1F78F2D9E2D61
:1007C0009C01E90110E095E3E92E8AE1F82E0CC0C6
:1007D000409A8E2D8A95F1F70E947D068993409864
:1007E0008F2D8A95F1F71F5F101790F388B18E6CEB
:1007F00088B9DF91CF911F910F91FF90EF900895ED
:10080000982F80911201882339F497FD05C0603438
:1008100018F4892F0E94760308952F923F924F92E9
:100820005F926F927F928F929F92AF92BF92CF9280
:10083000DF92EF92FF920F931F93DF93CF9300D03D
:100840000F92CDB7DEB7982E862E242E3324C10109
:10085000880F991F21E030E0281B390B3B832A8346
:1008600044245524662477245201AA0CBB1C322D43
:10087000390D3983E42CE80C832F6E2D40E00E9463
:100880000004C42CC90CD22CD80C8C2D6D2D40E04A
:100890000E940004F92CF2188F2D6E2D40E00E946A
:1008A0000004E92CE4188E2D6D2D40E00E94000418
:1008B000D82CD4188F2D6D2D40E00E940004182DE7
:1008C00012198E2D612F40E00E94000489816D2D48
:1008D00040E00E9400048C2D612F40E00E94000443
:1008E0000894411C511C6A0C7B1CC301880F991F82
:1008F000EA81FB818E0F9F1F1816190644F4089495
:10090000210831086E0E7F1E3296FB83EA83241481
:1009100035040CF0A9CF0F900F900F90CF91DF917D
:100920001F910F91FF90EF90DF90CF90BF90AF900D
:100930009F908F907F906F905F904F903F902F90FF
:1009400008952F923F924F925F926F927F928F9273
:100950009F92AF92BF92CF92DF92EF92FF920F934E
:100960001F93DF93CF9300D000D000D0CDB7DEB778
:10097000482E562E481734F1841751F526171CF4CB
:10098000822F262F582EC42CDD24C7FCD094AA24F5
:10099000BB24E52CFF24E7FCF094022F112707FD70
:1009A000109509C0652D6A0D8C2D40E00E94000451
:1009B0000894A11CB11CC5018E0D9F1D08171907B5
:1009C0008CF7E8C0842F442D482E822F262F582ED6
:1009D000652C772467FC70945216D9F4CC24DD245E
:1009E000E42CFF24E7FCF094042F112707FD109559
:1009F00009C0842D8C0D662D40E00E9400040894EF
:100A0000C11CD11CC6018E0D9F1D081719078CF73C
:100A1000C1C0822F992787FD90959A8389836301AE
:100A20009C0126193709242E332427FC3094E42C0A
:100A3000FF24E7FCF094A1014E195F094901880CDD
:100A4000991C5A01AA0CBB1C37FD4FC0F401EA19CE
:100A5000FB09FE83ED834217530714F15401A41AD6
:100A6000B50A00E010E015C0842D800F6C2D40E029
:100A70000E9400041A141B041CF0A80CB91C07C027
:100A80000894C11CD11C2D813E81A20EB31E0F5FA4
:100A90001F4FC8018E0D9F1D281639062CF77AC0EE
:100AA0004501821A930A00E010E0630115C0652D2C
:100AB000600F8E2D40E00E940004181419041CF0F1
:100AC0008A0C9B1C07C00894E11CF11C8D819E813F
:100AD000881A990A0F5F1F4FC8018C0D9D1DE9816F
:100AE000FA81E817F9071CF755C0C501880D991D53
:100AF0009C838B8388279927821B930B4817590760
:100B00002CF1AA24BB24A818B908A41AB50A00E03D
:100B100010E015C0842D800F6C2D40E00E94000471
:100B20001A141B041CF0A818B90807C00894C108BF
:100B3000D108EB81FC81AE1ABF0A0F5F1F4FC801BD
:100B40008E0D9F1D281639062CF724C04501820EF4
:100B5000931E00E010E0630115C0652D601B8E2D13
:100B600040E00E940004181419041CF08A0C9B1C1D
:100B700007C00894E11CF11C2B813C81820E931E5E
:100B80000F5F1F4FC601801B910BE981FA818E1701
:100B90009F071CF726960FB6F894DEBF0FBECDBF99
:100BA000CF91DF911F910F91FF90EF90DF90CF9049
:100BB000BF90AF909F908F907F906F905F904F907D
:100BC0003F902F900895CF92DF92EF92FF920F9374
:100BD0001F93182FC62EE42EF22E412F0E94A1043F
:100BE000812F6C2D4E2D2C2D0E94A1048E2D6F2D4A
:100BF000412F2F2D0E94A1048E2D6F2D4E2D2C2DB7
:100C00000E94A1041F910F91FF90EF90DF90CF9071
:100C10000895982F80911201882329F497FD03C02D
:100C2000892F0E94320308950F931F93CF93DF9370
:100C3000982F80528F3580F5892F90E08097EC01B6
:100C4000CC0FDD1FCC0FDD1FC80FD91FC859DF4FD8
:100C500010E006E0FE01449180911A01809FC001DE
:100C60001124810F60911B010E9409061F5F2196CC
:100C7000153081F780911A018F5F80931A018631B8
:100C800058F010921A0180911B018F5F80931B0115
:100C9000883010F010921B01DF91CF911F910F91BE
:100CA00008950E94160308950E94A3020E94D20292
:100CB0000E94160308958FE084B98CEF8AB92A98B0
:100CC0008FE387B988B908952B9A2B98089594B12A
:100CD000936094B99AB19C6F9AB995B19C7F95B97C
:100CE0009BB193709BB925B1982F9370922B95B9B6
:100CF0009BB18C7F982B9BB9089584B18C7F84B96C
:100D00008AB183708AB993B189B18C7F9370892B32
:100D10000895EF92FF920F93DF93CF9300D000D00E
:100D20000F92CDB7DEB78C3009F1803129F08823DE
:100D3000C1F50E94510635C000E07E010894E11C17
:100D4000F11C8091130190911401892B39F00E94BC
:100D50004902F701E00FF11D80830F5F033088F334
:100D600089816A8140E00E9400041BC000E07E018E
:100D70000894E11CF11C8091130190911401892BBE
:100D800039F00E944902F701E00FF11D80830F5FE7
:100D9000053088F389816A814B812C8100E00E94B3
:100DA000A1040F900F900F900F900F90CF91DF91B3
:100DB0000F91FF90EF900895991B79E004C0991F5F
:100DC000961708F0961B881F7A95C9F780950895A5
:040DD000F894FFCFC5
:100DD400526561647920746F2073657276652100B1
:020DE4006400A9
:00000001FF
