:100000000C9434000C9451000C9451000C94510049
:100010000C9451000C9451000C9451000C9451001C
:100020000C9451000C9451000C9451000C9451000C
:100030000C9451000C9451000C9451000C945100FC
:100040000C9451000C9451000C946A010C945100D2
:100050000C9451000C9451000C9451000C945100DC
:100060000C9451000C94510011241FBECFEFD4E02A
:10007000DEBFCDBF11E0A0E0B1E0EEE5F9E002C0E7
:1000800005900D92A230B107D9F712E0A2E0B1E0DD
:1000900001C01D92AA3AB107E1F70E9466000C94D4
:1000A000AD040C94000082E38093800089E180938A
:1000B000810084E690E0909387008093860089E138
:1000C00090E090938B0080938A00089580E190E007
:1000D0000E94FB000E94730482E38093800089E108
:1000E0008093810084E690E090938700809386005F
:1000F00089E190E090938B0080938A000E946C04C9
:1001000081E20E9409018AE00E9409018DE00E94BB
:1001100009018CEA9DE020E931E0F9013197F1F71E
:100120000197D9F7789480E060E041E02FE30E94E6
:10013000EC0224C0809103019091040101979093F7
:100140000401809303018091070190910801805A76
:10015000914021F4109208011092070120910701AB
:1001600030910801F901E65FFE4F80812F5F3F4F1C
:1001700030930801209307010E9409018091030137
:1001800090910401892BD1F3D5CF25B1982F9C7F75
:10019000922B95B99BB18370982B9BB988B118B8F5
:1001A000419A88B118B8429A089588B118B8409A0F
:1001B00088B118B883B189B1429A089525B1982FB2
:1001C0009C7F922B95B99BB18370982B9BB988B17A
:1001D00018B888B18A6088B988B118B8429A089569
:1001E00088B118B888B1896088B988B118B883B166
:1001F00089B1429A08959093C5008093C40082E02B
:100200008093C00088E98093C10086E08093C2009B
:100210000895982F8091C00085FFFCCF9093C60071
:100220000895982F9F7082958F708A3018F4282F28
:10023000205D02C0282F295C8091C00085FFFCCF83
:100240002093C6009A3010F4905D01C0995C8091B3
:10025000C00085FFFCCF9093C6000895282F6AE068
:100260000E94A104392F291B8091C00085FFFCCF7B
:10027000822F64E60E94A104805D8093C600809175
:10028000C00085FFFCCF822F64E60E94A104892F65
:100290006AE00E94A104805D8093C6008091C00046
:1002A00085FFFCCF305D3093C6000895FC0107C088
:1002B0008091C00085FFFCCF31969093C60090815D
:1002C0009923B1F78091C00085FFFCCF8AE080932D
:1002D000C60008951F920F920FB60F9211242F930C
:1002E0008F939F93EF93FF93809105019091060167
:1002F000805A914021F410920601109205018091DC
:1003000003019091040101969093040180930301ED
:1003100080910501909106012091C600FC01E65FE5
:10032000FE4F208301969093060180930501FF9173
:10033000EF919F918F912F910F900FBE0F901F9073
:100340001895439884EF91E020E931E0F901319765
:10035000F1F70197D9F7439A84EF91E020E931E072
:10036000F9013197F1F70197D9F7089508950895A4
:100370008AE1982F9A95F1F7409A982F9A95F1F77C
:1003800040988A95F1F7089588B1897C88B980EC06
:100390000E947F040E94B80188B1866388B90895DD
:1003A00088B1897F88B98FE30E947F040E94B801D9
:1003B00088B1866088B9089598B1997F98B9877097
:1003C000886B0E947F040E94B80188B1866088B95A
:1003D000089598B1997F98B9809309018F738064CB
:1003E0000E947F040E94B80188B1866088B9089590
:1003F0000E947F0480910901803410F0459801C06B
:10040000449842980E94B80188B1856388B9809168
:1004100009018F5F8093090187FF05C010920901D0
:1004200080E00E94E90108950F931F9300E0802F60
:100430000E94DC0180E00E94E90110E080E00E945F
:10044000F8011F5F1038D1F70F5F083081F780E0A7
:100450000E94DC0180E00E94E9011F910F91089544
:100460000E94950488B18D7E88B90E94B8010E94CF
:10047000B8010E94950498B1926198B9089588B125
:100480008E7E88B99AE2892F8A95F1F788B18161C9
:1004900088B9892F8A95F1F788B18E7E88B9892F1E
:1004A0008A95F1F788B1816188B99A95F1F70E9430
:1004B00095040895FF920F931F93F82E162F042F83
:1004C0000E94E901812F8695869586950E94DC0120
:1004D0000E943F02282F1770002351F481E090E022
:1004E00002C0880F991F1A95E2F7122F182B0AC025
:1004F00081E090E002C0880F991F1A95E2F7182F4B
:10050000109512238F2D0E94E901812F0E94F8017E
:100510001F910F91FF900895EF92FF920F931F93F9
:10052000CF93DF93062FF42EE52E882311F41FE3DB
:1005300006C0803411F41FE702C0182F1150812F1C
:100540000E94E901103470F488B18E7E88B9202FA2
:1005500030E08FE390E0811B9109821793073CF410
:1005600000E005C017FD28C088B18E7D88B90E94C3
:10057000B801409A85E38A95F1F740988AE18A9517
:10058000F1F78F2D9E2D9C01E90110E095E3E92EF6
:100590008AE1F82E0CC0409A8E2D8A95F1F70E94C0
:1005A0009504899340988F2D8A95F1F71F5F101756
:1005B00090F388B18E6C88B9DF91CF911F910F9124
:1005C000FF90EF900895982F80910201882319F4ED
:1005D000892F0E945A0208952F923F924F925F9264
:1005E0006F927F928F929F92AF92BF92CF92DF9243
:1005F000EF92FF920F931F93DF93CF93CDB7DEB7A8
:1006000028970FB6F894DEBF0FBECDBF582E462EEA
:1006100048174CF1841761F5261714F4422E262F43
:10062000C52CDD24C7FCD094AA24BB24E42CFF24D1
:10063000E7FCF094022F112707FD10950DC0809163
:100640000201882331F4642D6A0D8C2D40E00E9454
:100650005A020894A11CB11CC5018E0D9F1D0817DC
:1006600019076CF71DC1422E262F842F452D582EB9
:10067000842C992487FC90944216F9F4CC24DD2430
:10068000E52CFF24E7FCF094042F112707FD1095BB
:100690000DC080910201882331F4852D8C0D682DC9
:1006A00040E00E945A020894C11CD11CC6018E0D64
:1006B0009F1D081719076CF7F3C0822F992787FD34
:1006C00090959A83898364018819990998878F8303
:1006D000242E332427FC3094E52CFF24E7FCF094EF
:1006E00081010E191F095C01AA0CBB1C3801660CA4
:1006F000771C97FD70C0F501E619F709FE83ED83BD
:10070000081719074CF181E30E9409014501801A7D
:10071000910A00E010E019C080910201882331F4B1
:10072000852D800F6C2D40E00E945A021814190488
:100730001CF08A0C9B1C07C00894C11CD11C2D8185
:100740003E81820E931E0F5F1F4FC8018E0D9F1DAD
:10075000281639060CF7A4C082E30E940901130190
:100760008F819885281A390A00E010E054012AC0C8
:10077000CE2CD42CD00E80910201882329F48E2D0A
:100780006D2D40E00E945A028C2D0E942E0180E2C5
:100790000E9409018D2D0E942E018DE00E94090109
:1007A0008AE00E940901121413041CF0260C371C65
:1007B00007C00894E11CF11CED81FE812E1A3F0A4E
:1007C0000F5F1F4FC8018A0D9B1D29813A81281791
:1007D000390774F665C0C3018A0D9B1D9C838B830A
:1007E0008F819885909581959F4F0817190764F11F
:1007F00083E30E940901882499248A189B08801A9F
:10080000910A00E010E019C080910201882331F4C0
:10081000852D800F6C2D40E00E945A021814190497
:100820001CF08A189B0807C00894C108D108EB8106
:10083000FC818E1A9F0A0F5F1F4FC8018E0D9F1DEE
:10084000281639060CF72CC084E30E940901AF80FA
:10085000B884A60CB71C00E010E0640119C08091B8
:100860000201882331F4642D601B8E2D40E00E942C
:100870005A021A141B041CF0A60CB71C07C00894DB
:10088000E11CF11C2B813C81A20EB31E0F5F1F4F98
:10089000C601801B910BE981FA818E179F07FCF638
:1008A00028960FB6F894DEBF0FBECDBFCF91DF9173
:1008B0001F910F91FF90EF90DF90CF90BF90AF907E
:1008C0009F908F907F906F905F904F903F902F9070
:1008D00008950E94140208950E94A1010E94D0016F
:1008E0000E94140208958FE084B98CEF8AB92A9887
:1008F0008FE387B988B908952B9A2B98089594B1FE
:10090000936094B99AB19C6F9AB995B19C7F95B94F
:100910009BB193709BB925B1982F9370922B95B989
:100920009BB18C7F982B9BB9089584B18C7F84B93F
:100930008AB183708AB993B189B18C7F9370892B06
:100940000895991B79E004C0991F961708F0961B2B
:0E095000881F7A95C9F780950895F894FFCF17
:02095E00640033
:00000001FF
