:100000000C942C010C9449010C9449010C94490165
:100010000C9449010C9449010C9449010C94490138
:100020000C9449010C9449010C9449010C94490128
:100030000C9449010C9449010C9449010C94490118
:100040000C9449010C9449010C94CB020C94490185
:100050000C9449010C9449010C9449010C944901F8
:100060000C9449010C94490180C0400C3EFEF2E022
:10007000F0E0FF7F3F1F1F1F1F0F0703000000005E
:1000800000006F6F00000007000700147F147F144A
:1000900000266B2A104333086463324D4936500002
:1000A00000070000001C2241000041221C00110A30
:1000B0001F0A1110107C10100000A060001010101A
:1000C0001010000060600040300806013E514945B4
:1000D0003E00427F40004261514946224149493633
:1000E000080C0A7F0827454545393C4A49493001F3
:1000F000611907013649494936064949291E000058
:100100006C6C000000AC6C00081422410014141444
:100110001414004122140802015109063E415D5D9C
:10012000467C1211127C7F494949363E41414122A9
:100130007F4141413E7F494949417F090909013ECB
:10014000414151727F0808087F41417F414121416F
:100150003F01017F081422417F404040407F02045C
:10016000027F7F0608307F3E4141413E7F090909F9
:10017000063E4141617E7F09192946264949493297
:1001800001017F01013F4040403F1F2040201F3FB1
:100190004030403F63140814630304780403615142
:1001A00049454300007F41000000000000010608AF
:1001B000304004020102048080808080010204003B
:1001C0000020545454787F484444383844444428E8
:1001D000384444487F3854545418087E09010218A2
:1001E000A4A4A4787F0808087000487A40004080E2
:1001F00080887A7F1010284400417F40007C0438BA
:1002000004787C040404783844444438FC242424CE
:1002100018182424FC807C080404084854545420F2
:1002200000083C48203C4040407C0C3040300C1CD6
:100230006018601C44281028441CA0A0A07C4464C2
:10024000544C4400083641412040FF402041413693
:10025000080010081810080011241FBECFEFD4E0CA
:10026000DEBFCDBF11E0A0E0B1E0E0E9F3E102C004
:1002700005900D92A031B107D9F712E0A0E1B1E0ED
:1002800001C01D92AF31B107E1F70E945F010C94EC
:10029000C6090C94000082E38093800089E180937A
:1002A000810084E690E090938700809386000E940E
:1002B0006A0990E090938B0080938A0008950E94D1
:1002C000E9070E94E2070E944B0180E190E00E9452
:1002D0000C0278940E9474098170809317010E9427
:1002E000D3070E94790980FF02C00E94B00680E116
:1002F00097E220E931E0F9013197F1F70197D9F759
:100300008091110190911201892B31F50E946F09A2
:100310008333A1F0843328F4813351F08233F9F42C
:100320000AC0853389F0853360F08633C1F40FC08D
:1003300080EA91E00EC08FEC90E00BC087E690E081
:1003400008C083E390E005C082E290E002C080E153
:1003500090E00E940C0203C086E30E9484090E9480
:10036000D3070E94BE0280E091E00E94800217C085
:100370000E949B02982F803238F48D3029F088300B
:1003800019F00E9417080BC0892F80528F3520F07A
:100390009D3011F0983019F4892F0E94DB0680916E
:1003A000110190911201892BD1F3E2CF25B1982F41
:1003B0009C7F922B95B99BB18370982B9BB988B188
:1003C00018B8419A88B118B8429A089588B118B8F7
:1003D000409A88B118B883B189B1429A089525B17D
:1003E000982F9C7F922B95B99BB18370982B9BB9CA
:1003F00088B118B888B18A6088B988B118B8429AAB
:10040000089588B118B888B1896088B988B118B8DA
:1004100083B189B1429A08959093C5008093C40036
:1004200082E08093C00088E98093C10086E08093D9
:10043000C2000895982F8091C00085FFFCCF909353
:10044000C6000895982F9F7082958F708A3018F497
:10045000282F205D02C0282F295C8091C00085FFD5
:10046000FCCF2093C6009A3010F4905D01C0995CD7
:100470008091C00085FFFCCF9093C6000895282F7F
:100480006AE00E94A409392F291B8091C00085FFD2
:10049000FCCF822F64E60E94A409805D8093C60091
:1004A0008091C00085FFFCCF822F64E60E94A409E2
:1004B000892F6AE00E94A409805D8093C600809124
:1004C000C00085FFFCCF305D3093C6000895282F13
:1004D00090E040E331E320FF07C08091C00085FF3A
:1004E000FCCF3093C60006C08091C00085FFFCCFD2
:1004F0004093C6009F5F983011F02695ECCF089589
:10050000FC0107C08091C00085FFFCCF319690931D
:10051000C60090819923B1F78091C00085FFFCCF80
:100520008AE08093C6008091C00085FFFCCF8DE0FB
:100530008093C60008958091110190911201019756
:1005400090931201809311018091150190911601F1
:10055000FC01E15EFE4FE0810196909316018093CD
:10056000150180911501909116018050914021F460
:1005700010921601109215018E2F089510921201FB
:10058000109211011092160110921501109214018F
:100590001092130108951F920F920FB60F9211241B
:1005A0002F938F939F93EF93FF93809113019091DB
:1005B00014018050914021F4109214011092130103
:1005C00080911101909112010196909312018093F4
:1005D000110180911301909114012091C600FC013A
:1005E000E15EFE4F208301969093140180931301E6
:1005F000FF91EF919F918F912F910F900FBE0F90D0
:100600001F901895439884EF91E020E931E0F901BB
:100610003197F1F70197D9F7439A84EF91E020E9F8
:1006200031E0F9013197F1F70197D9F7089508956D
:1006300008958AE1982F9A95F1F7409A982F9A9504
:10064000F1F740988A95F1F7089588B1897C88B9C7
:1006500080EC0E94F5070E94190388B1866388B96F
:10066000089588B1897F88B98FE30E94F5070E94B9
:10067000190388B1866088B9089598B1997F98B9AF
:100680008770886B0E94F5070E94190388B1866005
:1006900088B9089598B1997F98B9809318018F739C
:1006A00080640E94F5070E94190388B1866088B9AA
:1006B00008950E94F50780911801803410F0459844
:1006C00001C0449842980E94190388B1856388B993
:1006D000809118018F5F8093180187FF05C01092E9
:1006E000180180E00E944A030895FF920F931F9320
:1006F00080911701813019F4FF24FA9401C0FF247E
:1007000000E0802F0E943D0380E00E944A0310E039
:100710008F2D0E9459031F5F1038D1F70F5F0830EB
:1007200081F780E00E943D0380E00E944A031F9110
:100730000F91FF9008950F931F93162F042F0E947F
:100740004A03812F0E943D0380911701813009F4F3
:100750000095802F0E9459031F910F9108950E94C8
:100760000B0888B18D7E88B90E9419030E94190375
:100770000E940B0898B1926198B908951F93803434
:1007800018F488B18E7E02C088B18E7D88B91AE2D5
:10079000812F8A95F1F7409A812F8A95F1F7409839
:1007A000812F8A95F1F7409A812F8A95F1F70E945F
:1007B0000B084098912F9A95F1F798B1916398B9E9
:1007C0001A95F1F71F910895FF920F931F93082F29
:1007D000162FF42E0E944A03812F869586958695C2
:1007E0000E943D03802F0E94BE03282F1770809126
:1007F0001701882319F4FF2071F403C081E0F81673
:1008000051F481E090E002C0880F991F1A95E2F739
:10081000122F182B0AC081E090E002C0880F991FA8
:100820001A95E2F7182F10951223802F0E944A0381
:10083000812F0E9459031F910F91FF900895EF920D
:10084000FF920F931F93CF93DF93062FF42EE52E85
:10085000882311F41FE306C0803411F41FE702C09F
:10086000182F1150812F0E944A03103470F488B160
:100870008E7E88B9202F30E08FE390E0811B9109B4
:10088000821793073CF400E005C017FD28C088B12B
:100890008E7D88B90E941903409A85E38A95F1F705
:1008A00040988AE18A95F1F78F2D9E2D9C01E901F0
:1008B00010E095E3E92E8AE1F82E0CC0409A8E2DC7
:1008C0008A95F1F70E940B08899340988F2D8A959D
:1008D000F1F71F5F101790F388B18E6C88B9DF9124
:1008E000CF911F910F91FF90EF900895982F8091D5
:1008F0001001882339F497FD05C0603418F4892F5E
:100900000E94E4030895DF92EF92FF920F931F93EA
:10091000D82EE42EF22E481710F4ED2CD42EF61615
:1009200018F48F2DF62E682F062F09C0812F602F07
:1009300041E00E9476041F5FE116C0F70F5FF016DA
:1009400010F01D2DF9CF1F910F91FF90EF90DF90C8
:1009500008952F923F924F925F926F927F928F9263
:100960009F92AF92BF92CF92DF92EF92FF920F933E
:100970001F93DF93CF9300D00F92CDB7DEB7982EA1
:10098000862E242E3324C101880F991F21E030E0E8
:10099000281B390B3B832A8344245524662477245F
:1009A0005201AA0CBB1C322D390D3983E42CE80C02
:1009B000832F6E2D40E00E947604C42CC90CD22CEB
:1009C000D80C8C2D6D2D40E00E947604F92CF21885
:1009D0008F2D6E2D40E00E947604E92CE4188E2DB8
:1009E0006D2D40E00E947604D82CD4188F2D6D2DEB
:1009F00040E00E947604182D12198E2D612F40E0E0
:100A00000E94760489816D2D40E00E9476048C2D31
:100A1000612F40E00E9476040894411C511C6A0C2E
:100A20007B1CC301880F991FEA81FB818E0F9F1FDA
:100A30001816190644F40894210831086E0E7F1E1A
:100A40003296FB83EA83241435040CF0A9CF0F906F
:100A50000F900F90CF91DF911F910F91FF90EF902A
:100A6000DF90CF90BF90AF909F908F907F906F90CE
:100A70005F904F903F902F9008952F923F924F920A
:100A80005F926F927F928F929F92AF92BF92CF921E
:100A9000DF92EF92FF920F931F93DF93CF9300D0DB
:100AA00000D000D0CDB7DEB7482E562E481734F10F
:100AB000841751F526171CF4822F262F582EC42C8C
:100AC000DD24C7FCD094AA24BB24E52CFF24E7FC3A
:100AD000F094022F112707FD109509C0652D6A0DAE
:100AE0008C2D40E00E9476040894A11CB11CC50125
:100AF0008E0D9F1D081719078CF7E8C0822F262F2F
:100B0000582E842D442E482F652C772467FC709432
:100B10005216D9F4CC24DD24E42CFF24E7FCF09415
:100B2000042F112707FD109509C0842D8C0D662D0B
:100B300040E00E9476040894C11CD11CC6018E0DB1
:100B40009F1D081719078CF7C1C0822F992787FDB1
:100B500090959A83898363019C0126193709242E75
:100B6000332427FC3094E42CFF24E7FCF094A1010B
:100B70004E195F094901880C991C5A01AA0CBB1C2B
:100B800037FD4FC0F401EA19FB09FE83ED834217DC
:100B9000530714F15401A41AB50A00E010E015C07F
:100BA000842D800F6C2D40E00E9476041A141B04E3
:100BB0001CF0A80CB91C07C00894C11CD11C2D81C5
:100BC0003E81A20EB31E0F5F1F4FC8018E0D9F1DE9
:100BD000281639062CF77AC04501821A930A00E0DC
:100BE00010E0630115C0652D600F8E2D40E00E945E
:100BF0007604181419041CF08A0C9B1C07C0089476
:100C0000E11CF11C8D819E81881A990A0F5F1F4F8C
:100C1000C8018C0D9D1DE981FA81E817F9071CF7C1
:100C200055C0C501880D991D9C838B838827992702
:100C3000821B930B481759072CF1AA24BB24A81830
:100C4000B908A41AB50A00E010E015C0842D800F81
:100C50006C2D40E00E9476041A141B041CF0A818A6
:100C6000B90807C00894C108D108EB81FC81AE1A0D
:100C7000BF0A0F5F1F4FC8018E0D9F1D2816390632
:100C80002CF724C04501820E931E00E010E06301A2
:100C900015C0652D601B8E2D40E00E94760418144F
:100CA00019041CF08A0C9B1C07C00894E11CF11C61
:100CB0002B813C81820E931E0F5F1F4FC601801B4C
:100CC000910BE981FA818E179F071CF726960FB6C4
:100CD000F894DEBF0FBECDBFCF91DF911F910F9172
:100CE000FF90EF90DF90CF90BF90AF909F908F904C
:100CF0007F906F905F904F903F902F900895CF928C
:100D0000DF92EF92FF920F931F93182FC62EE42EBF
:100D1000F22E412F0E943D05812F6C2D4E2D2C2D42
:100D20000E943D058E2D6F2D412F2F2D0E943D05D8
:100D30008E2D6F2D4E2D2C2D0E943D051F910F9154
:100D4000FF90EF90DF90CF900895982F8091100141
:100D5000882329F497FD03C0892F0E949B030895DF
:100D6000CF93DF9380911001882311F5C0E0D0E08C
:100D7000FE01E859FF4FE4919E012A5C822F63E057
:100D80004E2F0E94A5062196CA30D10589F7C0E0F2
:100D9000D0E0FE01EE58FF4FE4919E012A5C822FC5
:100DA00064E04E2F0E94A5062196CA30D10589F72E
:100DB000DF91CF910895EF92FF920F931F93CF93FE
:100DC000DF93F82E88E0F81639F1EDE0FE1609F011
:100DD0007AC080911D0190911E012091190102C0DD
:100DE0002A5FCA01AC014F5F5F4F2B37C8F3909366
:100DF0001E0180931D0180911B0180931901809138
:100E00001A01885F80931A01893308F45CC08091CD
:100E10001C0180931A0157C080911D0190911E0101
:100E2000009709F450C0019790931E0180931D0113
:100E30009091190180911B01981719F520911A01C1
:100E400080911C01281711F00AC0285F2833E8F3AD
:100E500020931A0101C09A5F9B37E8F312C082E623
:100E60000E941A0280911A01885080931A01809181
:100E7000190101C08A5F8B37E8F38650809319010E
:100E800003C09650909319010091190113C010915D
:100E90001A0106C0802F612F41E00E9476041F5F77
:100EA00080911A0190E00796212F30E08217930776
:100EB0008CF70F5F8091190190E00496202F30E0AD
:100EC0008217930724F78F2D80528F3508F060C06A
:100ED0002F2D30E02052304080911D0190911E0155
:100EE000019690931E0180931D0100911901E90163
:100EF000CC0FDD1FCC0FDD1FC20FD31FC458DF4F37
:100F000028C0FE01849110911A01E82EFF2414C01C
:100F1000241B350BC70102C0959587952A95E2F7EA
:100F200080FF04C0802F612F40E003C0802F612F1D
:100F300041E00E9476041F5F80911A01482F50E023
:100F4000212F30E0CA010796821793070CF70F5F35
:100F5000219640911901842F90E00496202F30E0D3
:100F60008217930774F6842F8A5F809319018A375A
:100F700078F080911B018093190180911A01885F9C
:100F800080931A01893320F080911C0180931A010B
:100F900080911D010E943F02DF91CF911F910F911F
:100FA000FF90EF90089580911B018093190180912B
:100FB0001C0180931A0110921E0110921D010E94C3
:100FC000750308950E9402030E9431030E94750375
:100FD00008958FE084B98CEF8AB92A988FE387B996
:100FE00088B908952B9A2B98089594B1936094B979
:100FF0009AB19C6F9AB995B19C7F95B99BB193704A
:101000009BB925B1982F9370922B95B99BB18C7F8A
:10101000982B9BB9089584B18C7F84B98AB1837071
:101020008AB993B189B18C7F9370892B0895EF921F
:10103000FF920F93DF93CF9300D000D00F92CDB7E4
:10104000DEB78C3009F4C2C08D3090F4833009F4DF
:10105000DDC0843030F4882341F1823009F02FC1A3
:101060002AC0853009F411C1873009F028C13AC07F
:10107000823199F0833138F48F3009F4E6C0803141
:1010800009F01DC185C0883109F45DC0893109F4BA
:101090006AC0833109F013C10BC08091170191E040
:1010A0008927809317010E948D090E94D30707C1E9
:1010B0000E94990904C18091110190911201892B1C
:1010C000D1F30E949B028983853610F084E68983E0
:1010D0008981282F30E030938B0020938A000E9472
:1010E0007E09EDC08091110190911201892BD1F3FD
:1010F0000E949B02082F0E9484090333C1F004332D
:1011000030F4013361F0023309F0D9C00BC005336C
:10111000A1F0053378F0063309F0D1C011C080EAA0
:1011200091E002C08FEC90E00E940C02C8C087E6FC
:1011300090E0FACF83E390E0F7CF82E290E0F4CF43
:1011400080E190E0F1CF8091110190911201892B03
:10115000D1F30E949B028B3708F0B1C080931B0132
:101160008093190110C08091110190911201892B77
:10117000D1F30E949B028A81893308F0A0C080933A
:101180001C0180931A0110921E0110921D0197C03C
:1011900000E07E010894E11CF11C80911101909106
:1011A0001201892B39F00E949B02F701E00FF11D1B
:1011B00080830F5F033088F340E08B81882309F43C
:1011C00041E089816A810E94760479C000E07E0155
:1011D0000894E11CF11C8091110190911201892B5E
:1011E00039F00E949B02F701E00FF11D80830F5F31
:1011F000053088F300E08D81882309F401E08981BE
:101200006A814B812C810E943D0559C000E07E011E
:101210000894E11CF11C8091110190911201892B1D
:1012200039F00E949B02F701E00FF11D80830F5FF0
:10123000043088F320E08D81882309F421E089813E
:101240006A814B810E94A9043AC000E07E010894A3
:10125000E11CF11C8091110190911201892B39F050
:101260000E949B02F701E00FF11D80830F5F0530A4
:1012700088F300E08D81882309F401E089816A8187
:101280004B812C810E947F061AC000E07E010894E9
:10129000E11CF11C8091110190911201892B39F010
:1012A0000E949B02F701E00FF11D80830F5F043065
:1012B00088F389816A814B812C810E9483040F907D
:1012C0000F900F900F900F90CF91DF910F91FF90A3
:1012D000EF90089583E090E00E94B009089582E0C5
:1012E00090E00E94B009089581E090E00E94B0096A
:1012F000089580E090E00E94B0090895682F83E08F
:1013000090E00E94B8090895682F8153863020F438
:1013100082E090E00E94B809089581E090E00E9488
:10132000B009682F6095617081E090E00E94B80973
:10133000089580E090E00E94B00961E0682780E0B5
:1013400090E00E94B8090895991B79E004C0991FA4
:10135000961708F0961B881F7A95C9F7809508950F
:10136000F999FECF92BD81BDF89A992780B508956D
:10137000262FF999FECF1FBA92BD81BD20BD0FB6B1
:10138000F894FA9AF99A0FBE01960895F894FFCF4F
:10139000526561647920746F2073657276652100EF
:00000001FF
