:100000000C942C010C943E010C943E010C943E0186
:100010000C943E010C943E010C943E010C943E0164
:100020000C943E010C943E010C943E010C943E0154
:100030000C943E010C943E010C943E010C943E0144
:100040000C943E010C943E010C946A020C943E0107
:100050000C943E010C943E010C943E010C943E0124
:100060000C943E010C943E0180C0400C3EFEF2E038
:10007000F0E0FF7F3F1F1F1F1F0F0703000000005E
:1000800000006F6F00000007000700147F147F144A
:1000900000266B2A104333086463324D4936500002
:1000A00000070000001C2241000041221C00110A30
:1000B0001F0A1110107C10100000A060001010101A
:1000C0001010000060600040300806013E514945B4
:1000D0003E00427F40004261514946224149493633
:1000E000080C0A7F0827454545393C4A49493001F3
:1000F000611907013649494936064949291E000058
:100100006C6C000000AC6C00081422410014141444
:100110001414004122140802015109063E415D5D9C
:10012000467C1211127C7F494949363E41414122A9
:100130007F4141413E7F494949417F090909013ECB
:10014000414151727F0808087F41417F414121416F
:100150003F01017F081422417F404040407F02045C
:10016000027F7F0608307F3E4141413E7F090909F9
:10017000063E4141617E7F09192946264949493297
:1001800001017F01013F4040403F1F2040201F3FB1
:100190004030403F63140814630304780403615142
:1001A00049454300007F41000000000000010608AF
:1001B000304004020102048080808080010204003B
:1001C0000020545454787F484444383844444428E8
:1001D000384444487F3854545418087E09010218A2
:1001E000A4A4A4787F0808087000487A40004080E2
:1001F00080887A7F1010284400417F40007C0438BA
:1002000004787C040404783844444438FC242424CE
:1002100018182424FC807C080404084854545420F2
:1002200000083C48203C4040407C0C3040300C1CD6
:100230006018601C44281028441CA0A0A07C4464C2
:10024000544C4400083641412040FF402041413693
:10025000080010081810080011241FBECFEFD4E0CA
:10026000DEBFCDBF12E0A0E0B1E001C01D92AA3A0E
:10027000B107E1F70E9454010C941E080C94000091
:1002800082E38093800089E18093810084E690E09E
:1002900090938700809386000E94C30790E090931C
:1002A0008B0080938A0008950E94AA060E94A306EC
:1002B0000E94400180E190E00E94AB0178940E948E
:1002C000D20780FF02C00E94380680E197E220E951
:1002D00031E0F9013197F1F70197D9F780E468E24D
:1002E0004CE220E20E940B04FFCF25B1982F9C7FA7
:1002F000922B95B99BB18370982B9BB988B118B894
:10030000419A88B118B8429A089588B118B8409AAD
:1003100088B118B883B189B1429A089525B1982F50
:100320009C7F922B95B99BB18370982B9BB988B118
:1003300018B888B18A6088B988B118B8429A089507
:1003400088B118B888B1896088B988B118B883B104
:1003500089B1429A08959093C5008093C40082E0C9
:100360008093C00088E98093C10086E08093C2003A
:100370000895982F8091C00085FFFCCF9093C60010
:100380000895982F9F7082958F708A3018F4282FC7
:10039000205D02C0282F295C8091C00085FFFCCF22
:1003A0002093C6009A3010F4905D01C0995C809152
:1003B000C00085FFFCCF9093C6000895282F6AE007
:1003C0000E94FC07392F291B8091C00085FFFCCFBC
:1003D000822F64E60E94FC07805D8093C6008091B6
:1003E000C00085FFFCCF822F64E60E94FC07892FA6
:1003F0006AE00E94FC07805D8093C6008091C00087
:1004000085FFFCCF305D3093C6000895282F90E023
:1004100040E331E320FF07C08091C00085FFFCCF9F
:100420003093C60006C08091C00085FFFCCF40938A
:10043000C6009F5F983011F02695ECCF0895FC011F
:1004400007C08091C00085FFFCCF31969093C60015
:1004500090819923B1F78091C00085FFFCCF8AE09D
:100460008093C6008091C00085FFFCCF8DE0809313
:10047000C600089580910101909102010197909327
:100480000201809301018091050190910601FC0118
:10049000E65FFE4FE081019690930601809305018F
:1004A0008091050190910601805A914021F41092AB
:1004B0000601109205018E2F0895109202011092EC
:1004C0000101109206011092050110920401109290
:1004D000030108951F920F920FB60F9211242F93CC
:1004E0008F939F93EF93FF93809103019091040169
:1004F000805A914021F410920401109203018091DE
:1005000001019091020101969093020180930101F3
:1005100080910301909104012091C600FC01E65FE7
:10052000FE4F208301969093040180930301FF9175
:10053000EF919F918F912F910F900FBE0F901F9071
:100540001895439884EF91E020E931E0F901319763
:10055000F1F70197D9F7439A84EF91E020E931E070
:10056000F9013197F1F70197D9F7089508950895A2
:100570008AE1982F9A95F1F7409A982F9A95F1F77A
:1005800040988A95F1F7089588B1897C88B980EC04
:100590000E94B6060E94B80288B1866388B90895A1
:1005A00088B1897F88B98FE30E94B6060E94B8029D
:1005B00088B1866088B9089598B1997F98B9877095
:1005C000886B0E94B6060E94B80288B1866088B91E
:1005D000089598B1997F98B9809307018F738064CB
:1005E0000E94B6060E94B80288B1866088B9089554
:1005F0000E94B60680910701803410F0459801C032
:10060000449842980E94B80288B1856388B9809165
:1006100007018F5F8093070187FF05C010920701D4
:1006200080E00E94E90208950F931F9300E0802F5D
:100630000E94DC0280E00E94E90210E080E00E945B
:10064000F8021F5F1038D1F70F5F083081F780E0A4
:100650000E94DC0280E00E94E9021F910F91089540
:100660000F931F93162F042F0E94E902812F0E94DF
:10067000DC02802F0E94F8021F910F9108950E94C2
:10068000CC0688B18D7E88B90E94B8020E94B8025B
:100690000E94CC0698B1926198B908951F93803456
:1006A00018F488B18E7E02C088B18E7D88B91AE2B6
:1006B000812F8A95F1F7409A812F8A95F1F740981A
:1006C000812F8A95F1F7409A812F8A95F1F70E9440
:1006D000CC064098912F9A95F1F798B1916398B90B
:1006E0001A95F1F71F910895FF920F931F93F82E1B
:1006F000162F042F0E94E902812F869586958695F4
:100700000E94DC028F2D0E944E03282F17700023B9
:1007100051F481E090E002C0880F991F1A95E2F72A
:10072000122F182B0AC081E090E002C0880F991F99
:100730001A95E2F7182F109512238F2D0E94E902C7
:10074000812F0E94F8021F910F91FF900895EF9260
:10075000FF920F931F93CF93DF93062FF42EE52E76
:10076000882311F41FE306C0803411F41FE702C090
:10077000182F1150812F0E94E902103470F488B1B3
:100780008E7E88B9202F30E08FE390E0811B9109A5
:10079000821793073CF400E005C017FD28C088B11C
:1007A0008E7D88B90E94B802409A85E38A95F1F758
:1007B00040988AE18A95F1F78F2D9E2D9C01E901E1
:1007C00010E095E3E92E8AE1F82E0CC0409A8E2DB8
:1007D0008A95F1F70E94CC06899340988F2D8A95CF
:1007E000F1F71F5F101790F388B18E6C88B9DF9115
:1007F000CF911F910F91FF90EF900895982F8091C6
:100800000001882339F497FD05C0603418F4892F5E
:100810000E9474030895DF92EF92FF920F931F934B
:10082000D82EE42EF22E481710F4ED2CD42EF61606
:1008300018F48F2DF62E682F062F09C0812F602FF8
:1008400041E00E94FE031F5FE116C0F70F5FF01644
:1008500010F01D2DF9CF1F910F91FF90EF90DF90B9
:1008600008952F923F924F925F926F927F928F9254
:100870009F92AF92BF92CF92DF92EF92FF920F932F
:100880001F93DF93CF9300D00F92CDB7DEB7982E92
:10089000862E242E3324C101880F991F21E030E0D9
:1008A000281B390B3B832A83442455246624772450
:1008B0005201AA0CBB1C322D390D3983E42CE80CF3
:1008C000832F6E2D40E00E94FE03C42CC90CD22C55
:1008D000D80C8C2D6D2D40E00E94FE03F92CF218EF
:1008E0008F2D6E2D40E00E94FE03E92CE4188E2D22
:1008F0006D2D40E00E94FE03D82CD4188F2D6D2D55
:1009000040E00E94FE03182D12198E2D612F40E049
:100910000E94FE0389816D2D40E00E94FE038C2D14
:10092000612F40E00E94FE030894411C511C6A0C98
:100930007B1CC301880F991FEA81FB818E0F9F1FCB
:100940001816190644F40894210831086E0E7F1E0B
:100950003296FB83EA83241435040CF0A9CF0F9060
:100960000F900F90CF91DF911F910F91FF90EF901B
:10097000DF90CF90BF90AF909F908F907F906F90BF
:100980005F904F903F902F9008952F923F924F92FB
:100990005F926F927F928F929F92AF92BF92CF920F
:1009A000DF92EF92FF920F931F93DF93CF9300D0CC
:1009B00000D000D0CDB7DEB7482E562E481734F100
:1009C000841751F526171CF4822F262F582EC42C7D
:1009D000DD24C7FCD094AA24BB24E52CFF24E7FC2B
:1009E000F094022F112707FD109509C0652D6A0D9F
:1009F0008C2D40E00E94FE030894A11CB11CC5018F
:100A00008E0D9F1D081719078CF7E8C0842F442D01
:100A1000482E822F262F582E652C772467FC709441
:100A20005216D9F4CC24DD24E42CFF24E7FCF09406
:100A3000042F112707FD109509C0842D8C0D662DFC
:100A400040E00E94FE030894C11CD11CC6018E0D1B
:100A50009F1D081719078CF7C1C0822F992787FDA2
:100A600090959A83898363019C0126193709242E66
:100A7000332427FC3094E42CFF24E7FCF094A101FC
:100A80004E195F094901880C991C5A01AA0CBB1C1C
:100A900037FD4FC0F401EA19FB09FE83ED834217CD
:100AA000530714F15401A41AB50A00E010E015C070
:100AB000842D800F6C2D40E00E94FE031A141B044D
:100AC0001CF0A80CB91C07C00894C11CD11C2D81B6
:100AD0003E81A20EB31E0F5F1F4FC8018E0D9F1DDA
:100AE000281639062CF77AC04501821A930A00E0CD
:100AF00010E0630115C0652D600F8E2D40E00E944F
:100B0000FE03181419041CF08A0C9B1C07C00894DF
:100B1000E11CF11C8D819E81881A990A0F5F1F4F7D
:100B2000C8018C0D9D1DE981FA81E817F9071CF7B2
:100B300055C0C501880D991D9C838B8388279927F3
:100B4000821B930B481759072CF1AA24BB24A81821
:100B5000B908A41AB50A00E010E015C0842D800F72
:100B60006C2D40E00E94FE031A141B041CF0A81810
:100B7000B90807C00894C108D108EB81FC81AE1AFE
:100B8000BF0A0F5F1F4FC8018E0D9F1D2816390623
:100B90002CF724C04501820E931E00E010E0630193
:100BA00015C0652D601B8E2D40E00E94FE031814B9
:100BB00019041CF08A0C9B1C07C00894E11CF11C52
:100BC0002B813C81820E931E0F5F1F4FC601801B3D
:100BD000910BE981FA818E179F071CF726960FB6B5
:100BE000F894DEBF0FBECDBFCF91DF911F910F9163
:100BF000FF90EF90DF90CF90BF90AF909F908F903D
:100C00007F906F905F904F903F902F900895CF927C
:100C1000DF92EF92FF920F931F93182FC62EE42EB0
:100C2000F22E412F0E94C504812F6C2D4E2D2C2DAC
:100C30000E94C5048E2D6F2D412F2F2D0E94C504BB
:100C40008E2D6F2D4E2D2C2D0E94C5041F910F91BE
:100C5000FF90EF90DF90CF900895982F8091000142
:100C6000882329F497FD03C0892F0E94300308953B
:100C7000CF93DF9380910001882311F5C0E0D0E08D
:100C8000FE01E859FF4FE4919E012A5C822F63E048
:100C90004E2F0E942D062196CA30D10589F7C0E05B
:100CA000D0E0FE01EE58FF4FE4919E012A5C822FB6
:100CB00064E04E2F0E942D062196CA30D10589F797
:100CC000DF91CF9108950F931F93CF93DF93982FC8
:100CD00080528F3580F5892F90E08097EC01CC0F02
:100CE000DD1FCC0FDD1FC80FD91FC458DF4F10E028
:100CF00006E0FE01449180910801809FC00111240B
:100D0000810F609109010E942D061F5F2196153009
:100D100081F7809108018F5F80930801863158F038
:100D200010920801809109018F5F8093090188303A
:100D300010F010920901DF91CF911F910F9108954A
:100D40000E94140308950E94A1020E94D0020E94F2
:100D5000140308958FE084B98CEF8AB92A988FE341
:100D600087B988B908952B9A2B98089594B1936008
:100D700094B99AB19C6F9AB995B19C7F95B99BB182
:100D800093709BB925B1982F9370922B95B99BB115
:100D90008C7F982B9BB9089584B18C7F84B98AB1DC
:100DA00083708AB993B189B18C7F9370892B089530
:100DB000EF92FF920F93DF93CF9300D000D00F926A
:100DC000CDB7DEB78730B9F1883040F48230E1F03A
:100DD000833009F497C0882389F0CAC08F3009F4A2
:100DE000ACC0803120F48C3009F0C2C06FC08031BB
:100DF00009F452C0833109F0BBC003C00E94A006B1
:100E0000B7C00E94F107B4C0809101019091020126
:100E1000892BD1F30E943A028983853610F084E64B
:100E200089838981282F30E030938B0020938A00BA
:100E30000E94D7079DC08091010190910201892BEA
:100E4000D1F30E943A02082F0E94DD070333C1F05C
:100E5000043330F4013361F0023309F089C00BC070
:100E60000533A1F0053378F0063309F081C011C0D5
:100E700080EA91E002C08FEC90E00E94AB0178C064
:100E800087E690E0FACF83E390E0F7CF82E290E04C
:100E9000F4CF80E190E0F1CF00E07E010894E11C06
:100EA000F11C8091010190910201892B39F00E947F
:100EB0003A02F701E00FF11D80830F5F033088F3E2
:100EC00089816A8140E00E94FE0352C000E07E01F9
:100ED0000894E11CF11C8091010190910201892B81
:100EE00039F00E943A02F701E00FF11D80830F5F95
:100EF000053088F389816A814B812C8100E00E9452
:100F0000C50436C000E07E010894E11CF11C80910C
:100F1000010190910201892B39F00E943A02F701F8
:100F2000E00FF11D80830F5F043088F389816A81AF
:100F30004B8120E00E9431041BC000E07E01089438
:100F4000E11CF11C8091010190910201892B39F083
:100F50000E943A02F701E00FF11D80830F5F053018
:100F600088F389816A814B812C8100E00E94070609
:100F70000F900F900F900F900F90CF91DF910F91E6
:100F8000FF90EF90089583E090E00E940808089594
:100F900082E090E00E940808089581E090E00E94BD
:100FA0000808089580E090E00E9408080895682FDE
:100FB00083E090E00E9410080895682F81538630E6
:100FC00020F482E090E00E941008089581E090E013
:100FD0000E94080861E0682781E090E00E94100804
:100FE000089580E090E00E94080861E0682780E0B2
:100FF00090E00E9410080895991B79E004C0991FA1
:10100000961708F0961B881F7A95C9F78095089562
:10101000F999FECF92BD81BDF89A992780B50895C0
:10102000262FF999FECF1FBA92BD81BD20BD0FB604
:10103000F894FA9AF99A0FBE01960895F894FFCFA2
:00000001FF
