:100000000C9434000C9451000C9451000C94510049
:100010000C9451000C9451000C9451000C9451001C
:100020000C9451000C9451000C9451000C9451000C
:100030000C9451000C9451000C9451000C945100FC
:100040000C9451000C9451000C9471010C945100CB
:100050000C9451000C9451000C9451000C945100DC
:100060000C9451000C94510011241FBECFEFD4E02A
:10007000DEBFCDBF11E0A0E0B1E0E0E8F8E002C0F3
:1000800005900D92A230B107D9F712E0A2E0B1E0DD
:1000900001C01D92AA3AB107E1F70E9469000C94D1
:1000A0003E040C94000082E38093800089E18093F9
:1000B000810084E690E0909387008093860089E138
:1000C00090E090938B0080938A0008952B9A2B9850
:1000D00008951F9380E190E00E9402010E940704AE
:1000E00082E38093800089E18093810084E690E040
:1000F000909387008093860089E190E090938B0035
:1001000080938A000E94000481E20E9410018AE02C
:100110000E941001789410E0812F0E94FF011F5F60
:100120001F33D1F780E00E94F00110E00E944602E8
:100130000E9435018AE00E9410011F5F1F33B1F752
:1001400024C08091030190910401019790930401D0
:10015000809303018091070190910801805A91409A
:1001600021F41092080110920701209107013091AB
:100170000801F901E65FFE4F80812F5F3F4F30930A
:100180000801209307010E941001809103019091C2
:100190000401892BD1F3D5CF25B1982F9C7F922BC9
:1001A00095B99BB18370982B9BB988B118B8419AC7
:1001B00088B118B8429A089588B118B8409A88B1A1
:1001C00018B883B189B1429A089525B1982F9C7FC0
:1001D000922B95B99BB18370982B9BB988B118B8B5
:1001E00088B18A6088B988B118B8429A089588B1F0
:1001F00018B888B1896088B988B118B883B189B155
:10020000429A08959093C5008093C40082E0809341
:10021000C00088E98093C10086E08093C200089501
:10022000982F8091C00085FFFCCF9093C600089561
:10023000982F9F7082958F708A3018F4282F205D38
:1002400002C0282F295C8091C00085FFFCCF20933D
:10025000C6009A3010F4905D01C0995C8091C00096
:1002600085FFFCCF9093C6000895282F6AE00E9476
:100270003204392F291B8091C00085FFFCCF822FCB
:1002800064E60E943204805D8093C6008091C000C5
:1002900085FFFCCF822F64E60E943204892F6AE03A
:1002A0000E943204805D8093C6008091C00085FF6B
:1002B000FCCF305D3093C6000895FC0107C08091EB
:1002C000C00085FFFCCF31969093C60090819923A2
:1002D000B1F78091C00085FFFCCF8AE08093C60013
:1002E00008951F920F920FB60F9211242F938F93A0
:1002F0009F93EF93FF938091050190910601805A9F
:10030000914021F4109206011092050180910301A1
:1003100090910401019690930401809303018091D0
:100320000501909106012091C600FC01E65FFE4F99
:10033000208301969093060180930501FF91EF9130
:100340009F918F912F910F900FBE0F901F90189536
:10035000439884EF91E020E931E0F9013197F1F71A
:100360000197D9F7439A84EF91E020E931E0F90150
:100370003197F1F70197D9F70895089508958AE024
:10038000982F9A95F1F7409A982F9A95F1F74098FF
:100390008A95F1F7089588B1897C88B980EC0E942C
:1003A00010040E94BF0188B1866388B9089588B19E
:1003B000897F88B98FE30E9410040E94BF0188B131
:1003C000866088B9089598B1997F98B98770886BCD
:1003D0000E9410040E94BF0188B1866088B9089508
:1003E00098B1997F98B9809309018F7380640E94B6
:1003F00010040E94BF0188B1866088B908950E94E8
:10040000100480910901803410F0459801C044988F
:1004100042980E94BF0188B1846388B98091090124
:100420008F5F8093090187FF05C01092090180E06A
:100430000E94F00108950F931F9300E0802F0E9407
:10044000E30180E00E94F00110E080E00E94FF01E3
:100450001F5F1038D1F70F5F083081F780E00E94EE
:10046000E30180E00E94F0011F910F9108950E9426
:10047000260488B18D7E88B90E94BF010E94BF0109
:100480000E94260498B1926198B9089588B18E7D32
:1004900088B985E3982F9A95F1F7409A982F9A9505
:1004A000F1F740988A95F1F70E94260498B191627D
:1004B00098B90895FF920F931F93F82E162F042FCB
:1004C0000E94F001812F8695869586950E94E30112
:1004D0000E944602282F1770002351F481E090E01B
:1004E00002C0880F991F1A95E2F7122F182B0AC025
:1004F00081E090E002C0880F991F1A95E2F7182F4B
:10050000109512238F2D0E94F001812F0E94FF0170
:100510001F910F91FF900895982F809102018823D9
:1005200019F4892F0E945A0208952F923F924F92F8
:100530005F926F927F928F929F92AF92BF92CF9273
:10054000DF92EF92FF920F931F93DF93CF9300D030
:1005500000D000D0CDB7DEB7582E462E481754F144
:10056000841771F526171CF4822F262F482EC52CD0
:10057000DD24C7FCD094AA24BB24E42CFF24E7FC90
:10058000F094022F112707FD10950DC080910201F4
:10059000882331F4642D6A0D8C2D40E00E945A02AC
:1005A0000894A11CB11CC5018E0D9F1D08171907C9
:1005B0006CF70AC1842F452D582E822F262F482EE6
:1005C000842C992487FC90944216F9F4CC24DD24E1
:1005D000E52CFF24E7FCF094042F112707FD10956C
:1005E0000DC080910201882331F4852D8C0D682D7A
:1005F00040E00E945A020894C11CD11CC6018E0D15
:100600009F1D081719076CF7DFC0822F992787FDF8
:1006100090959A83898364019C0128193909242EB5
:10062000332427FC3094E52CFF24E7FCF094A1014F
:100630004E195F095901AA0CBB1C3A01660C771CC4
:1006400037FD65C0F501E619F709FE83ED83421712
:10065000530734F14501841A950A00E010E019C0EF
:1006600080910201882331F4852D800F6C2D40E0AC
:100670000E945A02181419041CF08A0C9B1C07C013
:100680000894C11CD11C2D813E81820E931E0F5FE8
:100690001F4FC8018E0D9F1D281639060CF794C0F8
:1006A0001301221A330A00E010E0540127C0CE2CB7
:1006B000D42CD00E80910201882329F48E2D6D2D2B
:1006C00040E00E945A028C2D0E94350180E20E9477
:1006D00010018D2D0E9435018AE00E941001121434
:1006E00013041CF0260C371C07C00894E11CF11CF5
:1006F0008D819E81281A390A0F5F1F4FC8018A0D0C
:100700009B1DE981FA81E817F9078CF65DC0C301EA
:100710008A0D9B1D9C838B8388279927821B930BB3
:10072000481759074CF1882499248A189B08841A81
:10073000950A00E010E019C080910201882331F48D
:10074000852D800F6C2D40E00E945A021814190468
:100750001CF08A189B0807C00894C108D108EB81D7
:10076000FC818E1A9F0A0F5F1F4FC8018E0D9F1DBF
:10077000281639060CF728C05301A20EB31E00E05C
:1007800010E0640119C080910201882331F4642DC6
:10079000601B8E2D40E00E945A021A141B041CF0AC
:1007A000A60CB71C07C00894E11CF11C2B813C81EE
:1007B000A20EB31E0F5F1F4FC601801B910BE98174
:1007C000FA818E179F07FCF626960FB6F894DEBFC7
:1007D0000FBECDBFCF91DF911F910F91FF90EF9092
:1007E000DF90CF90BF90AF909F908F907F906F9051
:1007F0005F904F903F902F9008950E941B020895A4
:100800000E94A8010E94D7010E941B0208958FE058
:1008100084B98CEF8AB92A988FE387B988B908958B
:1008200094B1936094B99AB19C6F9AB995B19C7F39
:1008300095B99BB193709BB925B1982F9370922B6A
:1008400095B99BB18C7F982B9BB9089584B18C7F0F
:1008500084B98AB183708AB993B189B18C7F93705E
:10086000892B0895991B79E004C0991F961708F009
:10087000961B881F7A95C9F780950895F894FFCF45
:02088000640012
:00000001FF
