:100000000C9422010C943F010C943F010C943F018D
:100010000C943F010C943F010C943F010C943F0160
:100020000C943F010C943F010C943F010C943F0150
:100030000C943F010C943F010C943F010C943F0140
:100040000C943F010C943F010C949F020C943F01CF
:100050000C943F010C943F010C943F010C943F0120
:100060000C943F010C943F010000000000006F6FF2
:1000700000000007000700147F147F1400266B2A7D
:10008000104333086463324D4936500000070000C6
:10009000001C2241000041221C00110A1F0A1110FD
:1000A000107C10100000A060001010101010000054
:1000B00060600040300806013E5149453E00427FE5
:1000C000400042615149462241494936080C0A7FA5
:1000D0000827454545393C4A49493001611907011E
:1000E0003649494936064949291E00006C6C000012
:1000F00000AC6C00081422410014141414140041C4
:1001000022140802015109063E415D5D467C121130
:10011000127C7F494949363E414141227F4141415C
:100120003E7F494949417F090909013E41415172D8
:100130007F0808087F41417F414121413F01017F04
:10014000081422417F404040407F0204027F7F0626
:1001500008307F3E4141413E7F090909063E414149
:10016000617E7F09192946264949493201017F01EB
:10017000013F4040403F1F2040201F3F4030403F54
:100180006314081463030478040361514945430070
:10019000007F41000000000000010608304004021A
:1001A00001020480808080800102040000205454F9
:1001B00054787F48444438384444442838444448B8
:1001C0007F3854545418087E09010218A4A4A47856
:1001D0007F0808087000487A4000408080887A7F55
:1001E0001010284400417F40007C043804787C04CF
:1001F0000404783844444438FC2424241818242463
:10020000FC807C08040408485454542000083C48EE
:10021000203C4040407C0C3040300C1C6018601C7E
:1002200044281028441CA0A0A07C4464544C4400E2
:10023000083641412040FF40204141360800100867
:100240001810080011241FBECFEFD4E0DEBFCDBFD1
:1002500011E0A0E0B1E0E0EDFDE002C005900D92FC
:10026000A230B107D9F712E0A2E0B1E001C01D92BF
:10027000AC3AB107E1F70E9454010C94E6060C94E5
:10028000000082E38093800089E18093810084E60E
:1002900090E0909387008093860089E190E09093AE
:1002A0008B0080938A00089580E190E00E94100204
:1002B0000E94AC0682E38093800089E180938100F4
:1002C00084E690E0909387008093860089E190E037
:1002D00090938B0080938A000E94A50681E20E9481
:1002E0001E028AE00E941E028DE00E941E028CEA1D
:1002F0009DE020E931E0F9013197F1F70197D9F755
:1003000078948AE00E941E028DE00E941E0288E41A
:100310000E94DF0485E60E94DF048CE60E94DF0471
:100320008CE60E94DF048FE60E94DF048CE20E94CC
:10033000DF0480E20E94DF0487E70E94DF048FE68B
:100340000E94DF0482E70E94DF048CE60E94DF0443
:1003500084E60E94DF0481E20E94DF0424C08091D1
:10036000030190910401019790930401809303018C
:100370008091070190910801805A914021F41092D8
:100380000801109207012091070130910801F9013D
:10039000E45FFE4F80812F5F3F4F30930801209331
:1003A00007010E941E028091030190910401892B94
:1003B000D1F3D5CF25B1982F9C7F922B95B99BB1C6
:1003C0008370982B9BB988B118B8419A88B118B836
:1003D000429A089588B118B8409A88B118B883B184
:1003E00089B1429A089525B1982F9C7F922B95B997
:1003F0009BB18370982B9BB988B118B888B18A607B
:1004000088B988B118B8429A089588B118B888B1E7
:10041000896088B988B118B883B189B1429A0895C2
:100420009093C5008093C40082E08093C00088E967
:100430008093C10086E08093C2000895982F809138
:10044000C00085FFFCCF9093C6000895982F9F7041
:1004500082958F708A3018F4282F205D02C0282FD3
:10046000295C8091C00085FFFCCF2093C6009A30A4
:1004700010F4905D01C0995C8091C00085FFFCCFB5
:100480009093C6000895282F6AE00E94DA06392F5B
:10049000291B8091C00085FFFCCF822F64E60E945B
:1004A000DA06805D8093C6008091C00085FFFCCF96
:1004B000822F64E60E94DA06892F6AE00E94DA063B
:1004C000805D8093C6008091C00085FFFCCF305DC9
:1004D0003093C6000895282F90E040E331E320FFD9
:1004E00007C08091C00085FFFCCF3093C60006C0D6
:1004F0008091C00085FFFCCF4093C6009F5F98307D
:1005000011F02695ECCF0895FC0107C08091C00042
:1005100085FFFCCF31969093C60090819923B1F767
:100520008091C00085FFFCCF8AE08093C600809157
:10053000C00085FFFCCF8DE08093C60008951F9218
:100540000F920FB60F9211242F938F939F93EF93D7
:10055000FF938091050190910601805A914021F40A
:1005600010920601109205018091030190910401FF
:10057000019690930401809303018091050190916D
:1005800006012091C600FC01E45FFE4F2083019626
:100590009093060180930501FF91EF919F918F91B8
:1005A0002F910F900FBE0F901F901895439884EFD6
:1005B00091E020E931E0F9013197F1F70197D9F79E
:1005C000439A84EF91E020E931E0F9013197F1F7A6
:1005D0000197D9F70895089508958AE1982F9A957B
:1005E000F1F7409A982F9A95F1F740988A95F1F78C
:1005F000089588B1897C88B980EC0E94B8060E9471
:10060000ED0288B1866388B9089588B1897F88B979
:100610008FE30E94B8060E94ED0288B1866088B917
:10062000089598B1997F98B98770886B0E94B80631
:100630000E94ED0288B1866088B9089598B1997FCB
:1006400098B9809309018F7380640E94B8060E9454
:10065000ED0288B1866088B908950E94B80680913D
:100660000901803410F0459801C0449842980E94D6
:10067000ED0288B1856388B9809109018F5F80930D
:10068000090187FF05C01092090180E00E941E0346
:1006900008950F931F9300E0802F0E94110380E0C4
:1006A0000E941E0310E080E00E942D031F5F10389F
:1006B000D1F70F5F083081F780E00E94110380E0DE
:1006C0000E941E031F910F9108950F931F93162FE1
:1006D000042F0E941E03812F0E941103802F0E946D
:1006E0002D031F910F9108950E94CE0688B18D7E33
:1006F00088B90E94ED020E94ED020E94CE0698B1D8
:10070000926198B908951F93803418F488B18E7E51
:1007100002C088B18E7D88B91AE2812F8A95F1F7DF
:10072000409A812F8A95F1F74098812F8A95F1F7A9
:10073000409A812F8A95F1F70E94CE064098912F1A
:100740009A95F1F798B1916398B91A95F1F71F91BD
:100750000895FF920F931F93F82E162F042F0E94D7
:100760001E03812F8695869586950E9411038F2DF5
:100770000E948303282F1770002351F481E090E03A
:1007800002C0880F991F1A95E2F7122F182B0AC082
:1007900081E090E002C0880F991F1A95E2F7182FA8
:1007A000109512238F2D0E941E03812F0E942D036E
:1007B0001F910F91FF900895EF92FF920F931F9357
:1007C000CF93DF93062FF42EE52E882311F41FE339
:1007D00006C0803411F41FE702C0182F1150812F7A
:1007E0000E941E03103470F488B18E7E88B9202FC9
:1007F00030E08FE390E0811B9109821793073CF46E
:1008000000E005C017FD28C088B18E7D88B90E9420
:10081000ED02409A85E38A95F1F740988AE18A953E
:10082000F1F78F2D9E2D9C01E90110E095E3E92E53
:100830008AE1F82E0CC0409A8E2D8A95F1F70E941D
:10084000CE06899340988F2D8A95F1F71F5F101778
:1008500090F388B18E6C88B9DF91CF911F910F9181
:10086000FF90EF900895982F80910201882339F42A
:1008700097FD05C0603418F4892F0E94A9030895DC
:100880002F923F924F925F926F927F928F929F92A0
:10089000AF92BF92CF92DF92EF92FF920F931F938E
:1008A000DF93CF9300D00F92CDB7DEB7982E862E70
:1008B000242E3324C101880F991F21E030E0281B2A
:1008C000390B3B832A834424552466247724520120
:1008D000AA0CBB1C322D390D3983E42CE80C832F74
:1008E0006E2D40E00E943304C42CC90CD22CD80CCD
:1008F0008C2D6D2D40E00E943304F92CF2188F2DC1
:100900006E2D40E00E943304E92CE4188E2D6D2DED
:1009100040E00E943304D82CD4188F2D6D2D40E078
:100920000E943304182D12198E2D612F40E00E9471
:10093000330489816D2D40E00E9433048C2D612F9A
:1009400040E00E9433040894411C511C6A0C7B1C3B
:10095000C301880F991FEA81FB818E0F9F1F181614
:10096000190644F40894210831086E0E7F1E329651
:10097000FB83EA83241435040CF0A9CF0F900F9069
:100980000F90CF91DF911F910F91FF90EF90DF902B
:10099000CF90BF90AF909F908F907F906F905F901F
:1009A0004F903F902F900895982F809102018823B7
:1009B00029F497FD03C0892F0E9465030895EF92E3
:1009C000FF920F931F93CF93DF93982F80528F3511
:1009D000D0F5E92EFF2480EE9FEFE80EF91E8E2D54
:1009E0000E9443028701000F111F000F111F0E0DFF
:1009F0001F1D802F0E944302E801C859DF4F00E00D
:100A000016E0FE01449180910A01819FC0011124EA
:100A1000800F60910B010E94D4040F5F2196053076
:100A200081F780910A018F5F80930A01863158F027
:100A300010920A0180910B018F5F80930B01883027
:100A400010F010920B01DF91CF911F910F91FF9049
:100A5000EF9008952F923F924F925F926F927F9204
:100A60008F929F92AF92BF92CF92DF92EF92FF92BE
:100A70000F931F93DF93CF93CDB7DEB728970FB6B1
:100A8000F894DEBF0FBECDBF482E562E481734F166
:100A9000841751F526171CF4822F262F582EC42CAC
:100AA000DD24C7FCD094AA24BB24E52CFF24E7FC5A
:100AB000F094022F112707FD109509C0652D6A0DCE
:100AC0008C2D40E00E9433040894A11CB11CC50188
:100AD0008E0D9F1D081719078CF7F9C0842F442D20
:100AE000482E822F262F582E652C772467FC709471
:100AF0005216D9F4CC24DD24E42CFF24E7FCF09436
:100B0000042F112707FD109509C0842D8C0D662D2B
:100B100040E00E9433040894C11CD11CC6018E0D14
:100B20009F1D081719078CF7D2C0822F992787FDC0
:100B300090959A83898363018619970998878F8393
:100B4000242E332427FC3094E42CFF24E7FCF0947B
:100B500081010E191F094C01880C991C5801AA0C1F
:100B6000BB1C97FD57C0F401EA19FB09FE83ED8316
:100B7000081719072CF181E30E941E025401A01AE4
:100B8000B10A00E010E015C0842D800F6C2D40E00C
:100B90000E9433041A141B041CF0A80CB91C07C0D3
:100BA0000894C11CD11C2D813E81A20EB31E0F5F83
:100BB0001F4FC8018E0D9F1D281639062CF787C0C0
:100BC00082E30E941E0245018F819885881A990A46
:100BD00000E010E0630115C0652D600F8E2D40E030
:100BE0000E943304181419041CF08A0C9B1C07C0C3
:100BF0000894E11CF11CED81FE818E1A9F0A0F5FA3
:100C00001F4FC8018C0D9D1D29813A812817390776
:100C10001CF75DC0C501880D991D9C838B838F8156
:100C20009885909581959F4F0817190744F183E3A4
:100C30000E941E02AA24BB24A818B908A01AB10A4F
:100C400000E010E015C0842D800F6C2D40E00E9464
:100C500033041A141B041CF0A818B90807C0089420
:100C6000C108D108EB81FC81AE1ABF0A0F5F1F4F8C
:100C7000C8018E0D9F1D281639062CF728C084E365
:100C80000E941E028F8098848A0C9B1C00E010E05A
:100C9000630115C0652D601B8E2D40E00E9433045A
:100CA000181419041CF08A0C9B1C07C00894E11C42
:100CB000F11C2B813C81820E931E0F5F1F4FC601DA
:100CC000801B910BE981FA818E179F071CF72896EC
:100CD0000FB6F894DEBF0FBECDBFCF91DF911F914D
:100CE0000F91FF90EF90DF90CF90BF90AF909F90CB
:100CF0008F907F906F905F904F903F902F900895CE
:100D0000EF92FF920F931F93182FE62EF42E022FCF
:100D1000412F0E942A05812F6E2D4F2D2E2D0E94CE
:100D20002A058F2D602F412F202F0E942A058F2DFD
:100D3000602F4F2D2E2D0E942A051F910F91FF909D
:100D4000EF9008950E94490308950E94D6020E94E0
:100D500005030E94490308958FE084B98CEF8AB996
:100D60002A988FE387B988B908952B9A2B9808950C
:100D700094B1936094B99AB19C6F9AB995B19C7FE4
:100D800095B99BB193709BB925B1982F9370922B15
:100D900095B99BB18C7F982B9BB9089584B18C7FBA
:100DA00084B98AB183708AB993B189B18C7F937009
:100DB000892B0895991B79E004C0991F961708F0B4
:100DC000961B881F7A95C9F780950895F894FFCFF0
:020DD0006400BD
:00000001FF
