:100000000C942C050C9449050C9449050C94490555
:100010000C9449050C9449050C9449050C94490528
:100020000C9449050C9449050C9449050C94490518
:100030000C9449050C9449050C9449050C94490508
:100040000C9449050C9449050C940D080C94490531
:100050000C9449050C9449050C9449050C944905E8
:100060000C9449050C94490580C0400C3EFEF2E01A
:10007000F0E0FF7F3F1F1F1F1F0F0703FFC081001E
:10008000010081C07EFFFFFFFFFFFF7EEFDFBF00AB
:1000900000BFDFEFEFDFBF00FFFFFFFFFFFFFFFF4E
:1000A000FFFFFFFFFFFFFFFFFFFFFFFFFFFFFFFF60
:1000B000FFFFFFFFFFFFFFFFFFFFFFFFFFFFFFFF50
:1000C000FFFFFFFFFFFFFFFFFFFFFFFFFFFFFFFF40
:1000D000FFFFFFFFFFFFFFFFFFFFFFFFFFFFFFFF30
:10047000FFFFFFFFFFFFFFFFFFFFFFFF003F429176
:100480008291423F8100000000000081102040FF67
:10049000FF402010102040FF00000000FFFFFFFF82
:1004A000FFFFFFFFFFFFFFFFFFFFFFFFFFFFFFFF5C
:1004B000FFFFFFFFFFFFFFFFFFFFFFFFFFFFFFFF4C
:1004C000FFFFFFFFFFFFFFFFFFFFFFFFFFFFFFFF3C
:1004D000FFFFFFFFFFFFFFFFFFFFFFFFFFFFFFFF2C
:10087000FFFFFFFFFFFFFFFFFFFFFFFF0000000084
:1008800000006F6F00000007000700147F147F1442
:1008900000266B2A104333086463324D49365000FA
:1008A00000070000001C2241000041221C00110A28
:1008B0001F0A1110107C10100000A0600010101012
:1008C0001010000060600040300806013E514945AC
:1008D0003E00427F4000426151494622414949362B
:1008E000080C0A7F0827454545393C4A49493001EB
:1008F000611907013649494936064949291E000050
:100900006C6C000000AC6C0008142241001414143C
:100910001414004122140802015109063E415D5D94
:10092000467C1211127C7F494949363E41414122A1
:100930007F4141413E7F494949417F090909013EC3
:10094000414151727F0808087F41417F4141214167
:100950003F01017F081422417F404040407F020454
:10096000027F7F0608307F3E4141413E7F090909F1
:10097000063E4141617E7F0919294626494949328F
:1009800001017F01013F4040403F1F2040201F3FA9
:100990004030403F6314081463030478040361513A
:1009A00049454300007F41000000000000010608A7
:1009B0003040040201020480808080800102040033
:1009C0000020545454787F484444383844444428E0
:1009D000384444487F3854545418087E090102189A
:1009E000A4A4A4787F0808087000487A40004080DA
:1009F00080887A7F1010284400417F40007C0438B2
:100A000004787C040404783844444438FC242424C6
:100A100018182424FC807C080404084854545420EA
:100A200000083C48203C4040407C0C3040300C1CCE
:100A30006018601C44281028441CA0A0A07C4464BA
:100A4000544C4400083641412040FF40204141368B
:100A5000080010081810080011241FBECFEFD4E0C2
:100A6000DEBFCDBF11E0A0E0B1E0E2E8F1E202C0FC
:100A700005900D92A431B107D9F712E0A4E1B1E0DD
:100A800001C01D92A332B107E1F70E945F050C94EB
:100A9000BF100C94000082E38093800089E1809372
:100AA000810084E690E090938700809386000E9406
:100AB000621090E090938B0080938A0008950F93CA
:100AC0002B9A8AE18A95F1F71B9B04C081E0809301
:100AD000140102C0109214012B980E94DA0E0E9499
:100AE0004B0580E190E00E944E0778940E946C10C4
:100AF000817080931B010E94C20E0E94AC0E0E9466
:100B0000721080FF02C00E94D80980911501909157
:100B10001601892B31F50E9467108333A1F08433CD
:100B200028F4813351F08233F9F40AC0853389F017
:100B3000853360F08633C1F40FC080EA91E00EC0C7
:100B40008FEC90E00BC087E690E008C083E390E074
:100B500005C082E290E002C080E190E00E944E0772
:100B600003C086E30E947D100E94AC0E0E94000824
:100B700080E091E00E94C20783E063E040E020E370
:100B800000E00E94610A1AC00E94DD07982F8C378E
:100B900059F48091150190911601892BD1F30E948F
:100BA000DD070E940F0F0AC080528F3520F09D3064
:100BB00011F0983019F4892F0E94830D809115014E
:100BC00090911601892BD1F3DFCF419885E0982FC2
:100BD0009A95F1F742988A95F1F70E94030F429A8D
:100BE00098B19B6098B908950E94E50590E08370E4
:100BF0009070892BC9F308950E94F405439885E00D
:100C0000982F9A95F1F798B1997F98B98A95F1F74D
:100C10000E94030F429A98B19B6098B908951F9360
:100C2000182F0E94F405812F0E94ED0E85E0982F69
:100C30009A95F1F74098982F9A95F1F742988A95EE
:100C4000F1F7429A88B18B6088B91F910895806F3F
:100C5000862B0E940F0608951F93182F0E94F405FB
:100C6000812F0E94ED0E439895E0892F8A95F1F728
:100C700088B18A7F88B99A95F1F7429A88B18B60DA
:100C800088B91F91089580E00E942C0680E00E94A0
:100C90002C0682E40E940F0684E10E942C0680E06C
:100CA0000E942C0683E40E940F0680E80E940F0633
:100CB00088E90E940F0608950F931F9394E1699F9E
:100CC00080011124869586958695080F111D802F29
:100CD0000E942C06812F0E942C0684E20E940F069F
:100CE0001F910F9108954F925F926F927F928F9212
:100CF0009F92AF92BF92CF92DF92EF92FF920F93AB
:100D00001F93DF93CF93CDB7DEB728970FB6F89434
:100D1000DEBF0FBECDBF882E962E3A015E0108942D
:100D2000A11CB11CE82EFF2487E0E822FF2428E064
:100D3000C22ED12CCE18DF0899E0492E512C4C0E32
:100D40005D1E882D692D0E945C0681EC0E940F06B5
:100D50000E94FC05082F85EC0E940F060E94FC05EE
:100D600010E00E2C02C0000F111F0A94E2F790E071
:100D70000C2C02C0959587950A94E2F7082BF50193
:100D800001935F01802F0E94A90780E191E00E94FA
:100D9000C2079394A414B504A1F6D30160E081E0E6
:100DA000E82EF12C8E010F5F1F4F1C9230E040E0C7
:100DB00050E0C701042E02C0880F991F0A94E2F781
:100DC000F801E40FF51F20812823322B4F5F5F4F7E
:100DD0004830510571F73D936F5F683031F700E09F
:100DE00010E0F301E00FF11F80810E94A90780E16C
:100DF00091E00E94C2070F5F1F4F0830110589F76D
:100E000028960FB6F894DEBF0FBECDBFCF91DF910D
:100E10001F910F91FF90EF90DF90CF90BF90AF9018
:100E20009F908F907F906F905F904F9008950F9359
:100E30001F93182F042F0E945C0610951770809145
:100E40001B01882319F0002319F405C0002319F4AD
:100E5000812F68E002C0812F60E00E9427061F9169
:100E60000F910895CF93DF9380E060E00E945C06CD
:100E7000C0E0D0E080911B01882311F08FEF01C00A
:100E800080E00E942C0680EC0E940F0621968AE0EA
:100E9000C030D80779F7DF91CF9108959093C500BE
:100EA0008093C40082E08093C00088E98093C100F1
:100EB00086E08093C2000895982F8091C00085FF3E
:100EC000FCCF9093C6000895982F9F7082958F70E5
:100ED0008A3018F4282F205D02C0282F295C8091C9
:100EE000C00085FFFCCF2093C6009A3010F4905DBF
:100EF00001C0995C8091C00085FFFCCF9093C60033
:100F00000895282F6AE00E949D10392F291B809197
:100F1000C00085FFFCCF822F64E60E949D10805D9B
:100F20008093C6008091C00085FFFCCF822F64E6CD
:100F30000E949D10892F6AE00E949D10805D809321
:100F4000C6008091C00085FFFCCF305D3093C600A5
:100F50000895282F90E040E331E320FF07C08091FF
:100F6000C00085FFFCCF3093C60006C08091C00052
:100F700085FFFCCF4093C6009F5F983011F0269507
:100F8000ECCF0895FC0107C08091C00085FFFCCF25
:100F900031969093C60090819923B1F78091C0005B
:100FA00085FFFCCF8AE08093C6008091C00085FF5A
:100FB000FCCF8DE08093C60008958091150190913B
:100FC00016010197909316018093150180911901E4
:100FD00090911A01FC01ED5DFE4FE0810196909326
:100FE0001A01809319018091190190911A01805082
:100FF000914021F410921A01109219018E2F089538
:10100000109216011092150110921A0110921901F6
:10101000109218011092170108951F920F920FB6A7
:101020000F9211242F938F939F93EF93FF938091AF
:101030001701909118018050914021F410921801ED
:1010400010921701809115019091160101969093CD
:10105000160180931501809117019091180120913C
:10106000C600FC01ED5DFE4F2083019690931801B0
:1010700080931701FF91EF919F918F912F910F9086
:101080000FBE0F901F901895439884EF91E020E9D0
:1010900031E0F9013197F1F70197D9F7439A84EFDD
:1010A00091E020E931E0F9013197F1F70197D9F7A3
:1010B00008958AE1982F9A95F1F7409A982F9A957A
:1010C000F1F740988A95F1F7089588B1897C88B93D
:1010D00080EC0E94ED0E0E94590888B1866388B9A1
:1010E000089588B1897F88B98FE30E94ED0E0E9430
:1010F000590888B1866088B9089598B1997F98B9E0
:101100008770886B0E94ED0E0E94590888B1866036
:1011100088B9089598B1997F98B980931C018F730D
:1011200080640E94ED0E0E94590888B1866088B9DB
:1011300008950E94ED0E80911C01803410F04598B6
:1011400001C0449842980E94590888B1856388B9C3
:1011500080911C018F5F80931C0187FF05C0109256
:101160001C0180E00E948A080895FF920F931F934C
:1011700080911B01813019F4FF24FA9401C0FF24EF
:1011800000E0802F0E947D0880E00E948A0810E025
:101190008F2D0E9499081F5F1038D1F70F5F08301C
:1011A00081F780E00E947D0880E00E948A081F91FC
:1011B0000F91FF9008950E94030F88B18D7E88B92A
:1011C0000E9459080E9459080E94030F98B1926129
:1011D00098B908951F93803418F488B18E7E02C0A8
:1011E00088B18E7D88B91AE2812F8A95F1F7409AED
:1011F000812F8A95F1F74098812F8A95F1F7409ACF
:10120000812F8A95F1F70E94030F4098912F9A95AC
:10121000F1F798B1916398B91A95F1F71F91089574
:10122000FF920F931F93082F162FF42E0E948A0807
:10123000812F8695869586950E947D08802F0E9435
:10124000EA08282F177080911B01882319F4FF20CA
:1012500071F403C081E0F81651F481E090E002C01F
:10126000880F991F1A95E2F7122F182B0AC081E0F8
:1012700090E002C0880F991F1A95E2F7182F109579
:101280001223802F0E948A08812F0E9499081F91A3
:101290000F91FF9008959F92AF92BF92CF92DF92ED
:1012A000EF92FF920F931F93CF93DF93982E142FFB
:1012B000052F27E0F22EF62298E0B92EBF18A62EB1
:1012C000A694A694A6948A2D0E947D08212F302FE3
:1012D000C9016C01EC01EE2408E010E00F191109BE
:1012E0008E2D890D0E94EA0890E0002E02C0880F22
:1012F000991F0A94E2F78993E39488E0E81681F74E
:101300008A2D8F5F0E947D08C0E0D0E088E0E82E43
:10131000F12CEB18F108F6011081892D8C0F0E9439
:10132000EA0890E00E2C02C0959587950A94E2F7A2
:10133000182BF60111936F012196C830D10559F78A
:10134000DF91CF911F910F91FF90EF90DF90CF90A1
:10135000BF90AF909F900895982F8091140188239B
:1013600021F4892F0E944B090895892F0E9473064A
:101370000895982F80911401882361F480911201BF
:101380009817A8F480911301681788F4892F0E9498
:1013900010090895813059F480911201981738F49A
:1013A00080911301681718F4892F0E941707089578
:1013B000BF92CF92DF92EF92FF920F931F93CF9342
:1013C000DF93C0901201C69426EFF22EFC0CD09051
:1013D0001301D69498EFB92EBD0CC8E6D0E00F2DBE
:1013E000FE01E4901B2D80911B01882319F4E0FE7F
:1013F00003C006C0E0FE04C0802F612F41E003C09F
:10140000802F612F40E00E94B9091F5F1D1511F068
:10141000E694E9CF21960F5F0C1511F7C2E7D0E0F3
:1014200088E0E82EED0CFE0104911D2D80911B013A
:10143000882319F400FF03C006C000FF04C08F2DED
:10144000612F41E003C08F2D612F40E00E94B90958
:101450001F5F1E1511F00695E9CF2196F394FC1439
:1014600011F7DF91CF911F910F91FF90EF90DF90D7
:10147000CF90BF900895DF92EF92FF920F931F934A
:10148000D82EE42EF22E481710F4ED2CD42EF6169A
:1014900018F48F2DF62E682F062F09C0812F602F8C
:1014A00041E00E94B9091F5FE116C0F70F5FF01617
:1014B00010F01D2DF9CF1F910F91FF90EF90DF904D
:1014C00008957F928F929F92AF92BF92CF92DF92B8
:1014D000EF92FF920F931F93DF93CF93CDB7DEB7B9
:1014E00028970FB6F894DEBF0FBECDBFC82EB62E1C
:1014F000D22E702EE42EFF24B3E0EE0CFF1CBA9522
:10150000E1F78E010F5F1F4FA8010E94AC09A09068
:101510001B01B70164587F4F970124583B4FA70127
:101520007801DA01189618C0AA2021F0F70180810D
:1015300080958083FB0184918095F70190818923B8
:10154000F9019491892BF70181937F014F5F5F4FE0
:101550006F5F7F4F2F5F3F4F4A175B0728F3F3E31F
:10156000DF1609F473C0FD1528F080E3D81609F0E2
:10157000BAC03EC0E6E3DE1691F0F9E3DF1609F0EB
:10158000B2C0A7E0EA2EEB0CF7E0AF2EAC0CBC2CFF
:10159000BA94E9E0CE2ED12CCC0EDD1EA2C077E0AD
:1015A000E72EEC0C69E0862E912C8C0E9D1E77C0E8
:1015B000F8018081772019F480FF03C006C080FF06
:1015C00004C08C2D6F2D41E003C08C2D6F2D40E0A9
:1015D0000E94B909F801808186958083FA94FE14EF
:1015E00039F70F5F1F4FC3940A151B0559F47BC0D1
:1015F00057E0D52EDB0CEB2CEA9449E0A42EB12C5D
:10160000AC0EBD1EFD2CD4CFF8018081772019F4DB
:1016100080FF03C006C080FF04C08F2D6B2D41E00A
:1016200003C08F2D6B2D40E00E94B909F801808125
:1016300086958083E394F394F8E0EF1629F70F5F23
:101640001F4FB3940815190531F44DC039E0832EAE
:10165000912C8C0E9D1EFC2CEE24D6CFF80180819F
:10166000772019F480FF03C006C080FF04C08E2DD0
:101670006F2D41E003C08E2D6F2D40E00E94B9090F
:10168000F801808186958083D394F394F8E0DF1687
:1016900029F70F5F1F4FEA940815190521F1FB2C5C
:1016A000DD24DCCFF8018081772019F480FF03C0AE
:1016B00006C080FF04C08F2D6E2D41E003C08F2D2A
:1016C0006E2D40E00E94B909F801808186958083E3
:1016D000FA94FB1439F70F5F1F4FEA940C151D05A0
:1016E00011F0FA2CDFCF28960FB6F894DEBF0FBEAC
:1016F000CDBFCF91DF911F910F91FF90EF90DF90C1
:10170000CF90BF90AF909F908F907F9008952F9231
:101710003F924F925F926F927F928F929F92AF9281
:10172000BF92CF92DF92EF92FF920F931F93DF93BE
:10173000CF9300D00F92CDB7DEB7982E862E242EF1
:101740003324C101880F991F21E030E0281B390B99
:101750003B832A8344245524662477245201AA0C0F
:10176000BB1C322D390D3983E42CE80C832F6E2DF0
:1017700040E00E94B909C42CC90CD22CD80C8C2D85
:101780006D2D40E00E94B909F92CF2188F2D6E2DB5
:1017900040E00E94B909E92CE4188E2D6D2D40E03F
:1017A0000E94B909D82CD4188F2D6D2D40E00E94CD
:1017B000B909182D12198E2D612F40E00E94B90928
:1017C00089816D2D40E00E94B9098C2D612F40E088
:1017D0000E94B9090894411C511C6A0C7B1CC3016E
:1017E000880F991FEA81FB818E0F9F1F181619061B
:1017F00044F40894210831086E0E7F1E3296FB8354
:10180000EA83241435040CF0A9CF0F900F900F90A9
:10181000CF91DF911F910F91FF90EF90DF90CF90CC
:10182000BF90AF909F908F907F906F905F904F9000
:101830003F902F9008952F923F924F925F926F9218
:101840007F928F929F92AF92BF92CF92DF92EF9250
:10185000FF920F931F93DF93CF9300D000D000D05F
:10186000CDB7DEB7482E562E481734F1841751F500
:1018700026171CF4822F262F582EC42CDD24C7FCDB
:10188000D094AA24BB24E52CFF24E7FCF094022F7B
:10189000112707FD109509C0652D6A0D8C2D40E0BC
:1018A0000E94B9090894A11CB11CC5018E0D9F1D91
:1018B000081719078CF7E8C0842F442D482E822F73
:1018C000262F582E652C772467FC70945216D9F475
:1018D000CC24DD24E42CFF24E7FCF094042F112712
:1018E00007FD109509C0842D8C0D662D40E00E94E7
:1018F000B9090894C11CD11CC6018E0D9F1D081783
:1019000019078CF7C1C0822F992787FD90959A837C
:10191000898363019C0126193709242E332427FC6F
:101920003094E42CFF24E7FCF094A1014E195F09E8
:101930004901880C991C5A01AA0CBB1C37FD4FC0E9
:10194000F401EA19FB09FE83ED834217530714F1F2
:101950005401A41AB50A00E010E015C0842D800FD0
:101960006C2D40E00E94B9091A141B041CF0A80C4D
:10197000B91C07C00894C11CD11C2D813E81A20E48
:10198000B31E0F5F1F4FC8018E0D9F1D281639060D
:101990002CF77AC04501821A930A00E010E0630137
:1019A00015C0652D600F8E2D40E00E94B9091814F6
:1019B00019041CF08A0C9B1C07C00894E11CF11C44
:1019C0008D819E81881A990A0F5F1F4FC8018C0D67
:1019D0009D1DE981FA81E817F9071CF755C0C5017B
:1019E000880D991D9C838B8388279927821B930BD5
:1019F000481759072CF1AA24BB24A818B908A41A1F
:101A0000B50A00E010E015C0842D800F6C2D40E079
:101A10000E94B9091A141B041CF0A818B90807C0C1
:101A20000894C108D108EB81FC81AE1ABF0A0F5F90
:101A30001F4FC8018E0D9F1D281639062CF724C094
:101A40004501820E931E00E010E0630115C0652D74
:101A5000601B8E2D40E00E94B909181419041CF077
:101A60008A0C9B1C07C00894E11CF11C2B813C8153
:101A7000820E931E0F5F1F4FC601801B910BE981E1
:101A8000FA818E179F071CF726960FB6F894DEBFD3
:101A90000FBECDBFCF91DF911F910F91FF90EF90BF
:101AA000DF90CF90BF90AF909F908F907F906F907E
:101AB0005F904F903F902F900895CF92DF92EF92DA
:101AC000FF920F931F93182FC62EE42EF22E412F54
:101AD0000E941B0C812F6C2D4E2D2C2D0E941B0C57
:101AE0008E2D6F2D412F2F2D0E941B0C8E2D6F2DB3
:101AF0004E2D2C2D0E941B0C1F910F91FF90EF90EB
:101B0000DF90CF900895EF92FF920F931F93CF93A2
:101B1000DF93F82E88E0F816A9F1EDE0FE1609F043
:101B2000A3C080911201482F50E0455050402091B1
:101B300021013091220160911D01862F90E06A5FA2
:101B4000722FE32F2F5F3F4F84179507B4F37093E5
:101B50002101E093220180911F0180931D012091BA
:101B60001E01285F20931E0130E08091130190E058
:101B70000797281739070CF477C0809120018093CC
:101B80001E0172C08091210190912201009709F4F9
:101B90006BC00E94810780912101909122010197E1
:101BA000909322018093210150911D0180911F018A
:101BB0005817C1F540911E0180912001481701F589
:101BC00080911301282F30E028503040642F685F47
:101BD000842F90E08217930714F4462FF7CF409399
:101BE0001E0180911201282F30E025503040452FF2
:101BF0004A5F852F90E082179307A4F4542FF7CF04
:101C0000485040931E0180911201282F30E025504A
:101C10003040452F4A5F852F90E08217930714F4D8
:101C2000542FF7CF565050931D0100911D0113C042
:101C300010911E0106C0802F612F41E00E94B9095A
:101C40001F5F80911E0190E00796212F30E08217E0
:101C500093078CF70F5F80911D0190E00496202F71
:101C600030E08217930724F78F2D80528F3508F0CC
:101C70006CC02F2D30E02052304080912101909196
:101C800022010196909322018093210100911D0170
:101C9000E901CC0FDD1FCC0FDD1FC20FD31FC458CD
:101CA000D74F28C0FE01849110911E01E82EFF2419
:101CB00014C0241B350BC70102C0959587952A9542
:101CC000E2F780FF04C0802F612F40E003C0802F27
:101CD000612F41E00E94B9091F5F80911E01482FCA
:101CE00050E0212F30E0CA010796821793070CF7C6
:101CF0000F5F219640911D01842F90E00496202FC4
:101D000030E08217930774F6242F2A5F20931D0179
:101D100030E08091120190E0069728173907ACF067
:101D200080911F0180931D0120911E01285F209347
:101D30001E0130E08091130190E0079728173907C2
:101D400024F08091200180931E01DF91CF911F919B
:101D50000F91FF90EF90089580911F0180931D01D6
:101D60008091200180931E01109222011092210186
:101D700080911401882319F40E94B50808950E94E7
:101D80003207089580911401882359F40E94440871
:101D90000E9471080E94B50880E88093120180E4D7
:101DA00006C00E94430680EA8093120180E8809377
:101DB000130108958FE084B98CEF8AB92A98809135
:101DC0001401882321F48FE387B988B908958130FD
:101DD00019F48FE387B988B9089594B1936094B9E1
:101DE0009AB19C6F9AB995B19C7F95B99BB193704C
:101DF0009BB925B1982F9370922B95B99BB18C7F8D
:101E0000982B9BB9089584B18C7F84B98AB1837073
:101E10008AB993B189B18C7F9370892B0895EF9221
:101E2000FF920F93DF93CF9300D000D00F92CDB7E6
:101E3000DEB78C3009F4C2C08D3090F4833009F4E1
:101E4000DDC0843030F4882341F1823009F02FC1A5
:101E50002AC0853009F411C1873009F028C13AC081
:101E6000823199F0833138F48F3009F4E6C0803143
:101E700009F01DC185C0883109F45DC0893109F4BC
:101E80006AC0833109F013C10BC080911B0191E03E
:101E9000892780931B010E9486100E94AC0E07C107
:101EA0000E94921004C18091150190911601892B16
:101EB000D1F30E94DD078983853610F084E689839B
:101EC0008981282F30E030938B0020938A000E9474
:101ED0007710EDC08091150190911601892BD1F3F7
:101EE0000E94DD07082F0E947D100333C1F00433E8
:101EF00030F4013361F0023309F0D9C00BC005336F
:101F0000A1F0053378F0063309F0D1C011C080EAA2
:101F100091E002C08FEC90E00E944E07C8C087E6B7
:101F200090E0FACF83E390E0F7CF82E290E0F4CF45
:101F300080E190E0F1CF8091150190911601892BFD
:101F4000D1F30E94DD078B3708F0B1C080931F01E9
:101F500080931D0110C08091150190911601892B6D
:101F6000D1F30E94DD078A81893308F0A0C08093F5
:101F7000200180931E01109222011092210197C02E
:101F800000E07E010894E11CF11C80911501909104
:101F90001601892B39F00E94DD07F701E00FF11DD2
:101FA00080830F5F033088F340E08B81882309F43E
:101FB00041E089816A810E94B90979C000E07E010F
:101FC0000894E11CF11C8091150190911601892B58
:101FD00039F00E94DD07F701E00FF11D80830F5FEC
:101FE000053088F300E08D81882309F401E08981C0
:101FF0006A814B812C810E941B0C59C000E07E013C
:102000000894E11CF11C8091150190911601892B17
:1020100039F00E94DD07F701E00FF11D80830F5FAB
:10202000043088F320E08D81882309F421E0898140
:102030006A814B810E94870B3AC000E07E010894C0
:10204000E11CF11C8091150190911601892B39F04A
:102050000E94DD07F701E00FF11D80830F5F05305F
:1020600088F300E08D81882309F401E089816A8189
:102070004B812C810E945D0D1AC000E07E01089406
:10208000E11CF11C8091150190911601892B39F00A
:102090000E94DD07F701E00FF11D80830F5F043020
:1020A00088F389816A814B812C810E943B0A0F90C1
:1020B0000F900F900F900F90CF91DF910F91FF90A5
:1020C000EF90089583E090E00E94A910089582E0C7
:1020D00090E00E94A910089581E090E00E94A9106C
:1020E0008095089580E090E00E94A9100895682FDF
:1020F00083E090E00E94B1100895682F81538630EC
:1021000020F482E090E00E94B110089581E090E018
:102110000E94A910682F6095617081E090E00E9494
:10212000B110089580E090E00E94A91061E0682756
:1021300080E090E00E94B1100895991B79E004C0FE
:10214000991F961708F0961B881F7A95C9F78095F6
:102150000895F999FECF92BD81BDF89A992780B56F
:102160000895262FF999FECF1FBA92BD81BD20BDDB
:102170000FB6F894FA9AF99A0FBE01960895F8945A
:02218000FFCF8F
:10218200526561647920746F2073657276652100EF
:042192002000804069
:00000001FF
