:100000000C9422010C943F010C943F010C943F018D
:100010000C943F010C943F010C943F010C943F0160
:100020000C943F010C943F010C943F010C943F0150
:100030000C943F010C943F010C943F010C943F0140
:100040000C943F010C943F010C9471020C943F01FD
:100050000C943F010C943F010C943F010C943F0120
:100060000C943F010C943F010000000000006F6FF2
:1000700000000007000700147F147F1400266B2A7D
:10008000104333086463324D4936500000070000C6
:10009000001C2241000041221C00110A1F0A1110FD
:1000A000107C10100000A060001010101010000054
:1000B00060600040300806013E5149453E00427FE5
:1000C000400042615149462241494936080C0A7FA5
:1000D0000827454545393C4A49493001611907011E
:1000E0003649494936064949291E00006C6C000012
:1000F00000AC6C00081422410014141414140041C4
:1001000022140802015109063E415D5D467C121130
:10011000127C7F494949363E414141227F4141415C
:100120003E7F494949417F090909013E41415172D8
:100130007F0808087F41417F414121413F01017F04
:10014000081422417F404040407F0204027F7F0626
:1001500008307F3E4141413E7F090909063E414149
:10016000617E7F09192946264949493201017F01EB
:10017000013F4040403F1F2040201F3F4030403F54
:100180006314081463030478040361514945430070
:10019000007F41000000000000010608304004021A
:1001A00001020480808080800102040000205454F9
:1001B00054787F48444438384444442838444448B8
:1001C0007F3854545418087E09010218A4A4A47856
:1001D0007F0808087000487A4000408080887A7F55
:1001E0001010284400417F40007C043804787C04CF
:1001F0000404783844444438FC2424241818242463
:10020000FC807C08040408485454542000083C48EE
:10021000203C4040407C0C3040300C1C6018601C7E
:1002200044281028441CA0A0A07C4464544C4400E2
:10023000083641412040FF40204141360800100867
:100240001810080011241FBECFEFD4E0DEBFCDBFD1
:1002500011E0A0E0B1E0E4E3FFE002C005900D9200
:10026000A231B107D9F712E0A2E1B1E001C01D92BD
:10027000AC3BB107E1F70E9454010C9498070C9431
:10028000000082E38093800089E18093810084E60E
:1002900090E0909387008093860089E190E09093AE
:1002A0008B0080938A00089580E190E00E94BF0156
:1002B0000E94600682E38093800089E18093810040
:1002C00084E690E0909387008093860089E190E037
:1002D00090938B0080938A000E94590680E091E001
:1002E0000E94330278940EC00E944E02982F8032F2
:1002F00018F40E948E0606C080528F3518F4892F9C
:100300000E9419068091130190911401892BD1F359
:10031000EBCF25B1982F9C7F922B95B99BB1837021
:10032000982B9BB988B118B8419A88B118B8429AED
:10033000089588B118B8409A88B118B883B189B1C6
:10034000429A089525B1982F9C7F922B95B99BB125
:100350008370982B9BB988B118B888B18A6088B926
:1003600088B118B8429A089588B118B888B18960E0
:1003700088B988B118B883B189B1429A0895909329
:10038000C5008093C40082E08093C00088E9809318
:10039000C10086E08093C2000895982F8091C0002C
:1003A00085FFFCCF9093C6000895982F9F7082958B
:1003B0008F708A3018F4282F205D02C0282F295C06
:1003C0008091C00085FFFCCF2093C6009A3010F4C6
:1003D000905D01C0995C8091C00085FFFCCF909337
:1003E000C6000895282F6AE00E947607392F291B3E
:1003F0008091C00085FFFCCF822F64E60E947607C3
:10040000805D8093C6008091C00085FFFCCF822F65
:1004100064E60E947607892F6AE00E947607805D75
:100420008093C6008091C00085FFFCCF305D309383
:10043000C6000895282F90E040E331E320FF07C075
:100440008091C00085FFFCCF3093C60006C080912C
:10045000C00085FFFCCF4093C6009F5F983011F02D
:100460002695ECCF0895FC0107C08091C00085FF60
:10047000FCCF31969093C60090819923B1F780917B
:10048000C00085FFFCCF8AE08093C6008091C00049
:1004900085FFFCCF8DE08093C60008958091130105
:1004A000909114010197909314018093130180910E
:1004B000170190911801FC01E45EFE4FE081019666
:1004C0009093180180931701809117019091180162
:1004D000805A914021F410921801109217018E2F2A
:1004E00008951F920F920FB60F9211242F938F939E
:1004F0009F93EF93FF938091150190911601805A7D
:10050000914021F41092160110921501809113016F
:10051000909114010196909314018093130180919E
:100520001501909116012091C600FC01E45EFE4F7A
:10053000208301969093160180931501FF91EF910E
:100540009F918F912F910F900FBE0F901F90189534
:10055000439884EF91E020E931E0F9013197F1F718
:100560000197D9F7439A84EF91E020E931E0F9014E
:100570003197F1F70197D9F70895089508958AE121
:10058000982F9A95F1F7409A982F9A95F1F74098FD
:100590008A95F1F7089588B1897C88B980EC0E942A
:1005A0006C060E94BF0288B1866388B9089588B13D
:1005B000897F88B98FE30E946C060E94BF0288B1D0
:1005C000866088B9089598B1997F98B98770886BCB
:1005D0000E946C060E94BF0288B1866088B90895A7
:1005E00098B1997F98B9809319018F7380640E94A4
:1005F0006C060E94BF0288B1866088B908950E9487
:100600006C0680911901803410F0459801C044981F
:1006100042980E94BF0288B1856388B98091190110
:100620008F5F8093190187FF05C01092190180E048
:100630000E94F00208950F931F9300E0802F0E9404
:10064000E30280E00E94F00210E080E00E94FF02DE
:100650001F5F1038D1F70F5F083081F780E00E94EC
:10066000E30280E00E94F0021F910F9108950F9322
:100670001F93162F042F0E94F002812F0E94E30285
:10068000802F0E94FF021F910F9108950E94820601
:1006900088B18D7E88B90E94BF020E94BF020E946D
:1006A000820698B1926198B908951F93803418F426
:1006B00088B18E7E02C088B18E7D88B91AE2812F02
:1006C0008A95F1F7409A812F8A95F1F74098812F0A
:1006D0008A95F1F7409A812F8A95F1F70E94820658
:1006E0004098912F9A95F1F798B1916398B91A951E
:1006F000F1F71F910895FF920F931F93F82E162F75
:10070000042F0E94F002812F8695869586950E947F
:10071000E3028F2D0E945503282F1770002351F4F8
:1007200081E090E002C0880F991F1A95E2F7122F1E
:10073000182B0AC081E090E002C0880F991F1A951B
:10074000E2F7182F109512238F2D0E94F002812FAF
:100750000E94FF021F910F91FF900895EF92FF9268
:100760000F931F93CF93DF93062FF42EE52E88234C
:1007700011F41FE306C0803411F41FE702C0182FE4
:100780001150812F0E94F002103470F488B18E7ED7
:1007900088B9202F30E08FE390E0811B9109821708
:1007A00093073CF400E005C017FD28C088B18E7D9A
:1007B00088B90E94BF02409A85E38A95F1F7409874
:1007C0008AE18A95F1F78F2D9E2D9C01E90110E0B9
:1007D00095E3E92E8AE1F82E0CC0409A8E2D8A9579
:1007E000F1F70E948206899340988F2D8A95F1F740
:1007F0001F5F101790F388B18E6C88B9DF91CF918D
:100800001F910F91FF90EF900895982F8091120102
:10081000882339F497FD05C0603418F4892F0E94AD
:100820007B0308952F923F924F925F926F927F9237
:100830008F929F92AF92BF92CF92DF92EF92FF92F0
:100840000F931F93DF93CF9300D00F92CDB7DEB7F6
:10085000982E862E242E3324C101880F991F21E063
:1008600030E0281B390B3B832A834424552466241B
:1008700077245201AA0CBB1C322D390D3983E42C8C
:10088000E80C832F6E2D40E00E940504C42CC90C97
:10089000D22CD80C8C2D6D2D40E00E940504F92C33
:1008A000F2188F2D6E2D40E00E940504E92CE4180B
:1008B0008E2D6D2D40E00E940504D82CD4188F2D6C
:1008C0006D2D40E00E940504182D12198E2D612F08
:1008D00040E00E94050489816D2D40E00E940504DE
:1008E0008C2D612F40E00E9405040894411C511C8E
:1008F0006A0C7B1CC301880F991FEA81FB818E0F54
:100900009F1F1816190644F40894210831086E0E2A
:100910007F1E3296FB83EA83241435040CF0A9CFA2
:100920000F900F900F90CF91DF911F910F91FF903B
:10093000EF90DF90CF90BF90AF909F908F907F907F
:100940006F905F904F903F902F9008952F923F921D
:100950004F925F926F927F928F929F92AF92BF92CF
:10096000CF92DF92EF92FF920F931F93DF93CF937B
:1009700000D000D000D0CDB7DEB7482E562E481795
:1009800034F1841751F526171CF4822F262F582E88
:10099000C42CDD24C7FCD094AA24BB24E52CFF245E
:1009A000E7FCF094022F112707FD109509C0652D73
:1009B0006A0D8C2D40E00E9405040894A11CB11C16
:1009C000C5018E0D9F1D081719078CF7E8C0842FED
:1009D000442D482E822F262F582E652C772467FC15
:1009E00070945216D9F4CC24DD24E42CFF24E7FCC7
:1009F000F094042F112707FD109509C0842D8C0D4C
:100A0000662D40E00E9405040894C11CD11CC6015B
:100A10008E0D9F1D081719078CF7C1C0822F9927CB
:100A200087FD90959A83898363019C012619370974
:100A3000242E332427FC3094E42CFF24E7FCF0948C
:100A4000A1014E195F094901880C991C5A01AA0C91
:100A5000BB1C37FD4FC0F401EA19FB09FE83ED838F
:100A60004217530714F15401A41AB50A00E010E02C
:100A700015C0842D800F6C2D40E00E9405041A14CF
:100A80001B041CF0A80CB91C07C00894C11CD11C85
:100A90002D813E81A20EB31E0F5F1F4FC8018E0D28
:100AA0009F1D281639062CF77AC04501821A930A31
:100AB00000E010E0630115C0652D600F8E2D40E051
:100AC0000E940504181419041CF08A0C9B1C07C012
:100AD0000894E11CF11C8D819E81881A990A0F5F90
:100AE0001F4FC8018C0D9D1DE981FA81E817F90798
:100AF0001CF755C0C501880D991D9C838B838827E1
:100B00009927821B930B481759072CF1AA24BB2461
:100B1000A818B908A41AB50A00E010E015C0842D81
:100B2000800F6C2D40E00E9405041A141B041CF079
:100B3000A818B90807C00894C108D108EB81FC8146
:100B4000AE1ABF0A0F5F1F4FC8018E0D9F1D2816DA
:100B500039062CF724C04501820E931E00E010E0F8
:100B6000630115C0652D601B8E2D40E00E940504B9
:100B7000181419041CF08A0C9B1C07C00894E11C73
:100B8000F11C2B813C81820E931E0F5F1F4FC6010B
:100B9000801B910BE981FA818E179F071CF726961F
:100BA0000FB6F894DEBF0FBECDBFCF91DF911F917E
:100BB0000F91FF90EF90DF90CF90BF90AF909F90FC
:100BC0008F907F906F905F904F903F902F900895FF
:100BD000CF92DF92EF92FF920F931F93182FC62EA2
:100BE000E42EF22E412F0E94A604812F6C2D4E2D53
:100BF0002C2D0E94A6048E2D6F2D412F2F2D0E948B
:100C0000A6048E2D6F2D4E2D2C2D0E94A6041F9113
:100C10000F91FF90EF90DF90CF900895982F8091E3
:100C20001201882329F497FD03C0892F0E943703FE
:100C300008950F931F93CF93DF93982F80528F3592
:100C400080F5892F90E08097EC01CC0FDD1FCC0F51
:100C5000DD1FC80FD91FC859DF4F10E006E0FE01A5
:100C6000449180911A01809FC0011124810F6091ED
:100C70001B010E940E061F5F2196153081F780919F
:100C80001A018F5F80931A01863158F010921A0171
:100C900080911B018F5F80931B01883010F01092B0
:100CA0001B01DF91CF911F910F9108950E941B03AB
:100CB00008950E94A8020E94D7020E941B03089573
:100CC0008FE084B98CEF8AB92A988FE387B988B905
:100CD00008952B9A2B98089594B1936094B99AB182
:100CE0009C6F9AB995B19C7F95B99BB193709BB954
:100CF00025B1982F9370922B95B99BB18C7F982B2F
:100D00009BB9089584B18C7F84B98AB183708AB904
:100D100093B189B18C7F9370892B0895EF92FF92E4
:100D20000F93DF93CF9300D000D00F92CDB7DEB7F3
:100D3000833009F461C0843030F4882369F0823054
:100D400009F090C00CC08F3009F471C08031F1F00F
:100D50008C3009F087C034C00E94560683C0809151
:100D6000130190911401892BD1F30E944E028983C3
:100D7000853610F084E689838981282F30E030930E
:100D80008B0020938A000E9451076CC000E07E0116
:100D90000894E11CF11C8091130190911401892B9E
:100DA00039F00E944E02F701E00FF11D80830F5FC2
:100DB000033088F389816A8140E00E94050452C0B3
:100DC00000E07E010894E11CF11C809113019091D8
:100DD0001401892B39F00E944E02F701E00FF11D3A
:100DE00080830F5F053088F389816A814B812C8174
:100DF00000E00E94A60436C000E07E010894E11CD9
:100E0000F11C8091130190911401892B39F00E94FB
:100E10004E02F701E00FF11D80830F5F043088F36D
:100E200089816A814B8120E00E9412041BC000E08E
:100E30007E010894E11CF11C809113019091140132
:100E4000892B39F00E944E02F701E00FF11D8083DB
:100E50000F5F053088F389816A814B812C8100E026
:100E60000E94E8050F900F900F900F900F90CF9178
:100E7000DF910F91FF90EF90089583E090E00E9442
:100E80008207089582E090E00E948207089581E041
:100E900090E00E948207089580E090E00E9482071F
:100EA0000895682F83E090E00E948A070895682FD4
:100EB0008153863020F482E090E00E948A070895F2
:100EC00081E090E00E94820761E0682781E090E085
:100ED0000E948A07089580E090E00E94820761E006
:100EE000682780E090E00E948A070895991B79E0C6
:100EF00004C0991F961708F0961B881F7A95C9F7AA
:100F000080950895F999FECF92BD81BDF89A9927F1
:100F100080B50895262FF999FECF1FBA92BD81BDE5
:100F200020BD0FB6F894FA9AF99A0FBE019608956B
:040F3000F894FFCF63
:100F3400526561647920746F20736572766521004F
:020F4400640047
:00000001FF
