:100000000C942C010C9449010C9449010C94490165
:100010000C9449010C9449010C9449010C94490138
:100020000C9449010C9449010C9449010C94490128
:100030000C9449010C9449010C9449010C94490118
:100040000C9449010C9449010C94CB020C94490185
:100050000C9449010C9449010C9449010C944901F8
:100060000C9449010C94490180C0400C3EFEF2E022
:10007000F0E0FF7F3F1F1F1F1F0F0703000000005E
:1000800000006F6F00000007000700147F147F144A
:1000900000266B2A104333086463324D4936500002
:1000A00000070000001C2241000041221C00110A30
:1000B0001F0A1110107C10100000A060001010101A
:1000C0001010000060600040300806013E514945B4
:1000D0003E00427F40004261514946224149493633
:1000E000080C0A7F0827454545393C4A49493001F3
:1000F000611907013649494936064949291E000058
:100100006C6C000000AC6C00081422410014141444
:100110001414004122140802015109063E415D5D9C
:10012000467C1211127C7F494949363E41414122A9
:100130007F4141413E7F494949417F090909013ECB
:10014000414151727F0808087F41417F414121416F
:100150003F01017F081422417F404040407F02045C
:10016000027F7F0608307F3E4141413E7F090909F9
:10017000063E4141617E7F09192946264949493297
:1001800001017F01013F4040403F1F2040201F3FB1
:100190004030403F63140814630304780403615142
:1001A00049454300007F41000000000000010608AF
:1001B000304004020102048080808080010204003B
:1001C0000020545454787F484444383844444428E8
:1001D000384444487F3854545418087E09010218A2
:1001E000A4A4A4787F0808087000487A40004080E2
:1001F00080887A7F1010284400417F40007C0438BA
:1002000004787C040404783844444438FC242424CE
:1002100018182424FC807C080404084854545420F2
:1002200000083C48203C4040407C0C3040300C1CD6
:100230006018601C44281028441CA0A0A07C4464C2
:10024000544C4400083641412040FF402041413693
:10025000080010081810080011241FBECFEFD4E0CA
:10026000DEBFCDBF11E0A0E0B1E0EEEEF3E102C0F1
:1002700005900D92A231B107D9F712E0A2E1B1E0E9
:1002800001C01D92A132B107E1F70E945F010C94F9
:10029000F5090C94000082E38093800089E180934B
:1002A000810084E690E090938700809386000E940E
:1002B000990990E090938B0080938A0008950E94A2
:1002C00018080E9411080E944B0180E190E00E94F2
:1002D0000C0278940E94A3098170809319010E94F6
:1002E00002080E94A80980FF02C00E94D90780E18D
:1002F00097E220E931E0F9013197F1F70197D9F759
:100300008091130190911401892B31F50E949E096F
:100310008333A1F0843328F4813351F08233F9F42C
:100320000AC0853389F0853360F08633C1F40FC08D
:1003300080EA91E00EC08FEC90E00BC087E690E081
:1003400008C083E390E005C082E290E002C080E153
:1003500090E00E940C0203C086E30E94B3090E9451
:1003600002080E94BE0280E091E00E94800217C055
:100370000E949B02982F803238F48D3029F088300B
:1003800019F00E9446080BC0892F80528F3520F04B
:100390009D3011F0983019F4892F0E94AD0480919E
:1003A000130190911401892BD1F3E2CF25B1982F3D
:1003B0009C7F922B95B99BB18370982B9BB988B188
:1003C00018B8419A88B118B8429A089588B118B8F7
:1003D000409A88B118B883B189B1429A089525B17D
:1003E000982F9C7F922B95B99BB18370982B9BB9CA
:1003F00088B118B888B18A6088B988B118B8429AAB
:10040000089588B118B888B1896088B988B118B8DA
:1004100083B189B1429A08959093C5008093C40036
:1004200082E08093C00088E98093C10086E08093D9
:10043000C2000895982F8091C00085FFFCCF909353
:10044000C6000895982F9F7082958F708A3018F497
:10045000282F205D02C0282F295C8091C00085FFD5
:10046000FCCF2093C6009A3010F4905D01C0995CD7
:100470008091C00085FFFCCF9093C6000895282F7F
:100480006AE00E94D309392F291B8091C00085FFA3
:10049000FCCF822F64E60E94D309805D8093C60062
:1004A0008091C00085FFFCCF822F64E60E94D309B3
:1004B000892F6AE00E94D309805D8093C6008091F5
:1004C000C00085FFFCCF305D3093C6000895282F13
:1004D00090E040E331E320FF07C08091C00085FF3A
:1004E000FCCF3093C60006C08091C00085FFFCCFD2
:1004F0004093C6009F5F983011F02695ECCF089589
:10050000FC0107C08091C00085FFFCCF319690931D
:10051000C60090819923B1F78091C00085FFFCCF80
:100520008AE08093C6008091C00085FFFCCF8DE0FB
:100530008093C60008958091130190911401019752
:1005400090931401809313018091170190911801E9
:10055000FC01EF5DFE4FE0810196909318018093BE
:10056000170180911701909118018050914021F45A
:1005700010921801109217018E2F089510921401F5
:100580001092130110921801109217011092160187
:100590001092150108951F920F920FB60F92112419
:1005A0002F938F939F93EF93FF93809115019091D9
:1005B00016018050914021F41092160110921501FD
:1005C00080911301909114010196909314018093EE
:1005D000130180911501909116012091C600FC0134
:1005E000EF5DFE4F208301969093160180931501D5
:1005F000FF91EF919F918F912F910F900FBE0F90D0
:100600001F901895439884EF91E020E931E0F901BB
:100610003197F1F70197D9F7439A84EF91E020E9F8
:1006200031E0F9013197F1F70197D9F7089508956D
:1006300008958AE1982F9A95F1F7409A982F9A9504
:10064000F1F740988A95F1F7089588B1897C88B9C7
:1006500080EC0E9424080E94190388B1866388B93F
:10066000089588B1897F88B98FE30E9424080E9489
:10067000190388B1866088B9089598B1997F98B9AF
:100680008770886B0E9424080E94190388B18660D5
:1006900088B9089598B1997F98B980931A018F739A
:1006A00080640E9424080E94190388B1866088B97A
:1006B00008950E94240880911A01803410F0459812
:1006C00001C0449842980E94190388B1856388B993
:1006D00080911A018F5F80931A0187FF05C01092E5
:1006E0001A0180E00E944A030895FF920F931F931E
:1006F00080911901813019F4FF24FA9401C0FF247C
:1007000000E0802F0E943D0380E00E944A0310E039
:100710008F2D0E9459031F5F1038D1F70F5F0830EB
:1007200081F780E00E943D0380E00E944A031F9110
:100730000F91FF9008950F931F93162F042F0E947F
:100740004A03812F0E943D0380911901813009F4F1
:100750000095802F0E9459031F910F9108950E94C8
:100760003A0888B18D7E88B90E9419030E94190346
:100770000E943A0898B1926198B908951F93803405
:1007800018F488B18E7E02C088B18E7D88B91AE2D5
:10079000812F8A95F1F7409A812F8A95F1F7409839
:1007A000812F8A95F1F7409A812F8A95F1F70E945F
:1007B0003A084098912F9A95F1F798B1916398B9BA
:1007C0001A95F1F71F910895FF920F931F93082F29
:1007D000162FF42E0E944A03812F869586958695C2
:1007E0000E943D03802F0E94BE03282F1770809126
:1007F0001901882319F4FF2071F403C081E0F81671
:1008000051F481E090E002C0880F991F1A95E2F739
:10081000122F182B0AC081E090E002C0880F991FA8
:100820001A95E2F7182F10951223802F0E944A0381
:10083000812F0E9459031F910F91FF900895EF920D
:10084000FF920F931F93CF93DF93062FF42EE52E85
:10085000882311F41FE306C0803411F41FE702C09F
:10086000182F1150812F0E944A03103470F488B160
:100870008E7E88B9202F30E08FE390E0811B9109B4
:10088000821793073CF400E005C017FD28C088B12B
:100890008E7D88B90E941903409A85E38A95F1F705
:1008A00040988AE18A95F1F78F2D9E2D9C01E901F0
:1008B00010E095E3E92E8AE1F82E0CC0409A8E2DC7
:1008C0008A95F1F70E943A08899340988F2D8A956E
:1008D000F1F71F5F101790F388B18E6C88B9DF9124
:1008E000CF911F910F91FF90EF900895982F8091D5
:1008F0001201882359F480911001981738F48091DF
:100900001101681718F4892F0E94E4030895DF92FB
:10091000EF92FF920F931F93D82EE42EF22E4817DA
:1009200010F4D42EE82EF61618F48F2DF62E682F1C
:10093000062F09C0812F602F41E00E9476041F5FBF
:10094000E116C0F70F5FF01610F01D2DF9CF1F91C3
:100950000F91FF90EF90DF900895EF92FF920F9329
:100960001F93CF93DF93F82E88E0F816A9F1EDE0FE
:10097000FE1609F09DC080911001482F50E04550AF
:10098000504020911F013091200160911B01862F62
:1009900090E06A5F722FE32F2F5F3F4F8417950718
:1009A000B4F370931F01E093200180911D018093A7
:1009B0001B0120911C01285F20931C0130E08091D5
:1009C000110190E00797281739070CF471C0809146
:1009D0001E0180931C016CC080911F019091200129
:1009E000009709F465C001979093200180931F013F
:1009F00050911B0180911D015817C1F540911C01B8
:100A000080911E01481701F580911101282F30E0D7
:100A100028503040642F685F842F90E0821793073E
:100A200014F4462FF7CF40931C0180911001282F1A
:100A300030E025503040452F4A5F852F90E08217E7
:100A40009307A4F4542FF7CF485040931C01809192
:100A50001001282F30E025503040452F4A5F852F68
:100A600090E08217930714F4542FF7CF5650509309
:100A70001B0100911B0113C010911C0106C0802FA7
:100A8000612F41E00E9476041F5F80911C0190E07D
:100A90000796212F30E0821793078CF70F5F809124
:100AA0001B0190E00496202F30E08217930724F773
:100AB0008F2D80528F3508F06CC02F2D30E02052E2
:100AC000304080911F019091200101969093200168
:100AD00080931F0100911B01E901CC0FDD1FCC0F9A
:100AE000DD1FC20FD31FC458DF4F28C0FE01849101
:100AF00010911C01E82EFF2414C0241B350BC701E4
:100B000002C0959587952A95E2F780FF04C0802F53
:100B1000612F40E003C0802F612F41E00E947604E6
:100B20001F5F80911C01482F50E0212F30E0CA0147
:100B30000796821793070CF70F5F219640911B01D0
:100B4000842F90E00496202F30E08217930774F6EC
:100B5000242F2A5F20931B0130E08091100190E048
:100B6000069728173907ACF080911D0180931B016F
:100B700020911C01285F20931C0130E0809111011D
:100B800090E007972817390724F080911E01809381
:100B90001C01DF91CF911F910F91FF90EF9008956D
:100BA0002F923F924F925F926F927F928F929F927D
:100BB000AF92BF92CF92DF92EF92FF920F931F936B
:100BC000DF93CF9300D00F92CDB7DEB7982E862E4D
:100BD000242E3324C101880F991F21E030E0281B07
:100BE000390B3B832A8344245524662477245201FD
:100BF000AA0CBB1C322D390D3983E42CE80C832F51
:100C00006E2D40E00E947604C42CC90CD22CD80C66
:100C10008C2D6D2D40E00E947604F92CF2188F2D5A
:100C20006E2D40E00E947604E92CE4188E2D6D2D87
:100C300040E00E947604D82CD4188F2D6D2D40E012
:100C40000E947604182D12198E2D612F40E00E940B
:100C5000760489816D2D40E00E9476048C2D612FF1
:100C600040E00E9476040894411C511C6A0C7B1CD5
:100C7000C301880F991FEA81FB818E0F9F1F1816F1
:100C8000190644F40894210831086E0E7F1E32962E
:100C9000FB83EA83241435040CF0A9CF0F900F9046
:100CA0000F90CF91DF911F910F91FF90EF90DF9008
:100CB000CF90BF90AF909F908F907F906F905F90FC
:100CC0004F903F902F9008952F923F924F925F92B6
:100CD0006F927F928F929F92AF92BF92CF92DF924C
:100CE000EF92FF920F931F93DF93CF9300D000D02A
:100CF00000D0CDB7DEB7482E562E481734F18417F2
:100D000051F526171CF4822F262F582EC42CDD24D3
:100D1000C7FCD094AA24BB24E52CFF24E7FCF09464
:100D2000022F112707FD109509C0652D6A0D8C2D26
:100D300040E00E9476040894A11CB11CC5018E0DF0
:100D40009F1D081719078CF7E8C0842F442D482EE3
:100D5000822F262F582E652C772467FC709452160C
:100D6000D9F4CC24DD24E42CFF24E7FCF094042FF8
:100D7000112707FD109509C0842D8C0D662D40E0CC
:100D80000E9476040894C11CD11CC6018E0D9F1DC3
:100D9000081719078CF7C1C0822F992787FD9095F6
:100DA0009A83898363019C0126193709242E3324F1
:100DB00027FC3094E42CFF24E7FCF094A1014E19A9
:100DC0005F094901880C991C5A01AA0CBB1C37FD0C
:100DD0004FC0F401EA19FB09FE83ED834217530764
:100DE00014F15401A41AB50A00E010E015C0842DD6
:100DF000800F6C2D40E00E9476041A141B041CF036
:100E0000A80CB91C07C00894C11CD11C2D813E81BF
:100E1000A20EB31E0F5F1F4FC8018E0D9F1D281617
:100E200039062CF77AC04501821A930A00E010E0D7
:100E3000630115C0652D600F8E2D40E00E94760481
:100E4000181419041CF08A0C9B1C07C00894E11CA0
:100E5000F11C8D819E81881A990A0F5F1F4FC8016E
:100E60008C0D9D1DE981FA81E817F9071CF755C023
:100E7000C501880D991D9C838B8388279927821B28
:100E8000930B481759072CF1AA24BB24A818B908BA
:100E9000A41AB50A00E010E015C0842D800F6C2D57
:100EA00040E00E9476041A141B041CF0A818B9082C
:100EB00007C00894C108D108EB81FC81AE1ABF0AB3
:100EC0000F5F1F4FC8018E0D9F1D281639062CF786
:100ED00024C04501820E931E00E010E0630115C09E
:100EE000652D601B8E2D40E00E94760418141904B5
:100EF0001CF08A0C9B1C07C00894E11CF11C2B8180
:100F00003C81820E931E0F5F1F4FC601801B910B09
:100F1000E981FA818E179F071CF726960FB6F89481
:100F2000DEBF0FBECDBFCF91DF911F910F91FF901C
:100F3000EF90DF90CF90BF90AF909F908F907F9079
:100F40006F905F904F903F902F900895CF92DF92D7
:100F5000EF92FF920F931F93182FC62EE42EF22EBE
:100F6000412F0E946406812F6C2D4E2D2C2D0E9446
:100F700064068E2D6F2D412F2F2D0E9464068E2D1D
:100F80006F2D4E2D2C2D0E9464061F910F91FF9006
:100F9000EF90DF90CF900895982F809112018823D1
:100FA00039F480911001981718F4892F0E949B033F
:100FB0000895FF920F931F93CF93DF93F09010014A
:100FC000F6940F2D0A50C8E6D0E0102FFE01449190
:100FD000812F63E00E94CC0721961F5F1F15B1F798
:100FE000C2E7D0E0FE014491802F64E00E94CC076C
:100FF00021960F5F0F15B1F7DF91CF911F910F91E0
:10100000FF90089580911D0180931B0180911E0126
:1010100080931C011092200110921F010E94750301
:1010200008950E9402030E9431030E9475030895EF
:101030008FE084B98CEF8AB92A988FE387B988B991
:1010400008952B9A2B98089594B1936094B99AB10E
:101050009C6F9AB995B19C7F95B99BB193709BB9E0
:1010600025B1982F9370922B95B99BB18C7F982BBB
:101070009BB9089584B18C7F84B98AB183708AB991
:1010800093B189B18C7F9370892B0895EF92FF9271
:101090000F93DF93CF9300D000D00F92CDB7DEB780
:1010A0008C3009F4C2C08D3090F4833009F4DDC077
:1010B000843030F4882341F1823009F02FC12AC0F6
:1010C000853009F411C1873009F028C13AC0823156
:1010D00099F0833138F48F3009F4E6C0803109F09B
:1010E0001DC185C0883109F45DC0893109F46AC029
:1010F000833109F013C10BC08091190191E0892758
:10110000809319010E94BC090E94020807C10E9435
:10111000C80904C18091130190911401892BD1F366
:101120000E949B028983853610F084E68983898139
:10113000282F30E030938B0020938A000E94AD0965
:10114000EDC08091130190911401892BD1F30E947D
:101150009B02082F0E94B3090333C1F0043330F41B
:10116000013361F0023309F0D9C00BC00533A1F09F
:10117000053378F0063309F0D1C011C080EA91E060
:1011800002C08FEC90E00E940C02C8C087E690E09D
:10119000FACF83E390E0F7CF82E290E0F4CF80E1F2
:1011A00090E0F1CF8091130190911401892BD1F33C
:1011B0000E949B028B3708F0B1C080931D01809381
:1011C0001B0110C08091130190911401892BD1F360
:1011D0000E949B028A81893308F0A0C080931E017F
:1011E00080931C011092200110921F0197C000E013
:1011F0007E010894E11CF11C80911301909114016F
:10120000892B39F00E949B02F701E00FF11D8083CA
:101210000F5F033088F340E08B81882309F441E0BD
:1012200089816A810E94760479C000E07E01089479
:10123000E11CF11C8091130190911401892B39F06C
:101240000E949B02F701E00FF11D80830F5F0530C4
:1012500088F300E08D81882309F401E089816A81A7
:101260004B812C810E94640659C000E07E010894E5
:10127000E11CF11C8091130190911401892B39F02C
:101280000E949B02F701E00FF11D80830F5F043085
:1012900088F320E08D81882309F421E089816A8127
:1012A0004B810E94D0053AC000E07E010894E11C09
:1012B000F11C8091130190911401892B39F00E9447
:1012C0009B02F701E00FF11D80830F5F053088F36B
:1012D00000E08D81882309F401E089816A814B81D6
:1012E0002C810E94A6071AC000E07E010894E11C30
:1012F000F11C8091130190911401892B39F00E9407
:101300009B02F701E00FF11D80830F5F043088F32B
:1013100089816A814B812C810E9487040F900F90F4
:101320000F900F900F90CF91DF910F91FF90EF9062
:10133000089583E090E00E94DF09089582E090E044
:101340000E94DF09089581E090E00E94DF0908957E
:1013500080E090E00E94DF090895682F83E090E02C
:101360000E94E7090895682F8153863020F482E0B7
:1013700090E00E94E709089581E090E00E94DF0973
:10138000682F6095617081E090E00E94E709089500
:1013900080E090E00E94DF0961E0682780E090E053
:1013A0000E94E7090895991B79E004C0991F9617D8
:1013B00008F0961B881F7A95C9F780950895F999CA
:1013C000FECF92BD81BDF89A992780B50895262F4A
:1013D000F999FECF1FBA92BD81BD20BD0FB6F8941A
:0E13E000FA9AF99A0FBE01960895F894FFCF7D
:1013EE00526561647920746F207365727665210091
:0213FE0080402D
:00000001FF
