:100000000C9434000C9451000C9451000C94510049
:100010000C9451000C9451000C9451000C9451001C
:100020000C9451000C9451000C9451000C9451000C
:100030000C9451000C9451000C9451000C945100FC
:100040000C9451000C9451000C94A9010C94510093
:100050000C9451000C9451000C9451000C945100DC
:100060000C9451000C94510011241FBECFEFD4E02A
:10007000DEBFCDBF11E0A0E0B1E0EAE1FBE002C0ED
:1000800005900D92A230B107D9F712E0A2E0B1E0DD
:1000900001C01D92AA3AB107E1F70E9466000C94D4
:1000A0008B050C94000082E38093800089E18093AB
:1000B000810084E690E0909387008093860089E138
:1000C00090E090938B0080938A000895FF920F93A5
:1000D0001F93CF93DF9380E190E00E941A010E946A
:1000E000510582E38093800089E18093810084E65A
:1000F00090E0909387008093860089E190E0909350
:100100008B0080938A000E944A0581E20E942801A8
:100110008AE00E9428018DE00E9428018CEA9DE07F
:1001200020E931E0F9013197F1F70197D9F7789497
:100130008AE00E9428018DE00E94280110E280E6FA
:10014000F82E00E4C0E9D1E04F2D411B202F211BE8
:10015000812F805E612F0E94250588EE93E0FE01CD
:100160003197F1F70197D9F70E944705115061F7D0
:1001700024C08091030190910401019790930401A0
:10018000809303018091070190910801805A91406A
:1001900021F410920801109207012091070130917B
:1001A0000801F901E65FFE4F80812F5F3F4F3093DA
:1001B0000801209307010E9428018091030190917A
:1001C0000401892BD1F3D5CF25B1982F9C7F922B99
:1001D00095B99BB18370982B9BB988B118B8419A97
:1001E00088B118B8429A089588B118B8409A88B171
:1001F00018B883B189B1429A089525B1982F9C7F90
:10020000922B95B99BB18370982B9BB988B118B884
:1002100088B18A6088B988B118B8429A089588B1BF
:1002200018B888B1896088B988B118B883B189B124
:10023000429A08959093C5008093C40082E0809311
:10024000C00088E98093C10086E08093C2000895D1
:10025000982F8091C00085FFFCCF9093C600089531
:10026000982F9F7082958F708A3018F4282F205D08
:1002700002C0282F295C8091C00085FFFCCF20930D
:10028000C6009A3010F4905D01C0995C8091C00066
:1002900085FFFCCF9093C6000895282F6AE00E9446
:1002A0007F05392F291B8091C00085FFFCCF822F4D
:1002B00064E60E947F05805D8093C6008091C00047
:1002C00085FFFCCF822F64E60E947F05892F6AE0BC
:1002D0000E947F05805D8093C6008091C00085FFED
:1002E000FCCF305D3093C6000895282F90E040E3A6
:1002F00031E320FF07C08091C00085FFFCCF309321
:10030000C60006C08091C00085FFFCCF4093C600A8
:100310009F5F983011F02695ECCF0895FC0107C03F
:100320008091C00085FFFCCF31969093C6009081EC
:100330009923B1F78091C00085FFFCCF8AE08093BC
:10034000C6008091C00085FFFCCF8DE08093C60081
:1003500008951F920F920FB60F9211242F938F932F
:100360009F93EF93FF938091050190910601805A2E
:10037000914021F410920601109205018091030131
:100380009091040101969093040180930301809160
:100390000501909106012091C600FC01E65FFE4F29
:1003A000208301969093060180930501FF91EF91C0
:1003B0009F918F912F910F900FBE0F901F901895C6
:1003C000439884EF91E020E931E0F9013197F1F7AA
:1003D0000197D9F7439A84EF91E020E931E0F901E0
:1003E0003197F1F70197D9F70895089508958AE1B3
:1003F000982F9A95F1F7409A982F9A95F1F740988F
:100400008A95F1F7089588B1897C88B980EC0E94BB
:100410005D050E94F70188B1866388B9089588B1A7
:10042000897F88B98FE30E945D050E94F70188B13A
:10043000866088B9089598B1997F98B98770886B5C
:100440000E945D050E94F70188B1866088B9089511
:1004500098B1997F98B9809309018F7380640E9445
:100460005D050E94F70188B1866088B908950E94F1
:100470005D0580910901803410F0459801C04498D1
:1004800042980E94F70188B1856388B9809109017B
:100490008F5F8093090187FF05C01092090180E0FA
:1004A0000E94280208950F931F9300E0802F0E945E
:1004B0001B0280E00E94280210E080E00E943702C8
:1004C0001F5F1038D1F70F5F083081F780E00E947E
:1004D0001B0280E00E9428021F910F9108950E9444
:1004E000730588B18D7E88B90E94F7010E94F701DB
:1004F0000E94730598B1926198B908951F93803452
:1005000018F488B18E7E02C088B18E7D88B91AE257
:10051000812F8A95F1F7409A812F8A95F1F74098BB
:10052000812F8A95F1F7409A812F8A95F1F70E94E1
:1005300073054098912F9A95F1F798B1916398B906
:100540001A95F1F71F910895FF920F931F93F82EBC
:10055000162F042F0E942802812F86958695869556
:100560000E941B028F2D0E947E02282F17700023ED
:1005700051F481E090E002C0880F991F1A95E2F7CC
:10058000122F182B0AC081E090E002C0880F991F3B
:100590001A95E2F7182F109512238F2D0E9428022A
:1005A000812F0E9437021F910F91FF900895EF92C3
:1005B000FF920F931F93CF93DF93062FF42EE52E18
:1005C000882311F41FE306C0803411F41FE702C032
:1005D000182F1150812F0E942802103470F488B116
:1005E0008E7E88B9202F30E08FE390E0811B910947
:1005F000821793073CF400E005C017FD28C088B1BE
:100600008E7D88B90E94F701409A85E38A95F1F7BB
:1006100040988AE18A95F1F78F2D9E2D9C01E90182
:1006200010E095E3E92E8AE1F82E0CC0409A8E2D59
:100630008A95F1F70E947305899340988F2D8A95CA
:10064000F1F71F5F101790F388B18E6C88B9DF91B6
:10065000CF911F910F91FF90EF900895982F809167
:100660000201882339F497FD05C0603418F4892FFE
:100670000E94A40208952F923F924F925F926F9230
:100680007F928F929F92AF92BF92CF92DF92EF9222
:10069000FF920F931F93DF93CF9300D00F92CDB7AC
:1006A000DEB7982E862E242E3324C101880F991F81
:1006B00021E030E0281B390B3B832A834424552456
:1006C000662477245201AA0CBB1C322D390D3983C4
:1006D000E42CE80C832F6E2D40E00E942E03C42CE6
:1006E000C90CD22CD80C8C2D6D2D40E00E942E030D
:1006F000F92CF2188F2D6E2D40E00E942E03E92C6C
:10070000E4188E2D6D2D40E00E942E03D82CD418B5
:100710008F2D6D2D40E00E942E03182D12198E2D65
:10072000612F40E00E942E0389816D2D40E00E94E0
:100730002E038C2D612F40E00E942E030894411C53
:10074000511C6A0C7B1CC301880F991FEA81FB8135
:100750008E0F9F1F1816190644F4089421083108BB
:100760006E0E7F1E3296FB83EA83241435040CF050
:10077000A9CF0F900F900F90CF91DF911F910F9104
:10078000FF90EF90DF90CF90BF90AF909F908F90B1
:100790007F906F905F904F903F902F9008952F9291
:1007A0003F924F925F926F927F928F929F92AF9201
:1007B000BF92CF92DF92EF92FF920F931F93DF933E
:1007C000CF93CDB7DEB728970FB6F894DEBF0FBE34
:1007D000CDBF482E562E481734F1841751F52617F1
:1007E0001CF4822F262F582EC42CDD24C7FCD09455
:1007F000AA24BB24E52CFF24E7FCF094022F112748
:1008000007FD109509C0652D6A0D8C2D40E00E94F2
:100810002E030894A11CB11CC5018E0D9F1D081745
:1008200019078CF7F9C0842F442D482E822F262FCC
:10083000582E652C772467FC70945216D9F4CC247A
:10084000DD24E42CFF24E7FCF094042F112707FD9E
:10085000109509C0842D8C0D662D40E00E942E035A
:100860000894C11CD11CC6018E0D9F1D08171907C5
:100870008CF7D2C0822F992787FD90959A83898320
:1008800063018619970998878F83242E332427FCC8
:100890003094E42CFF24E7FCF09481010E191F0929
:1008A0004C01880C991C5801AA0CBB1C97FD57C021
:1008B000F401EA19FB09FE83ED83081719072CF1EF
:1008C00081E30E9428015401A01AB10A00E010E05F
:1008D00015C0842D800F6C2D40E00E942E031A1449
:1008E0001B041CF0A80CB91C07C00894C11CD11C27
:1008F0002D813E81A20EB31E0F5F1F4FC8018E0DCA
:100900009F1D281639062CF787C082E30E94280114
:1009100045018F819885881A990A00E010E06301EB
:1009200015C0652D600F8E2D40E00E942E03181417
:1009300019041CF08A0C9B1C07C00894E11CF11CD4
:10094000ED81FE818E1A9F0A0F5F1F4FC8018C0D2B
:100950009D1D29813A81281739071CF75DC0C50103
:10096000880D991D9C838B838F81988590958195A7
:100970009F4F0817190744F183E30E942801AA2416
:10098000BB24A818B908A01AB10A00E010E015C0ED
:10099000842D800F6C2D40E00E942E031A141B043E
:1009A0001CF0A818B90807C00894C108D108EB8149
:1009B000FC81AE1ABF0A0F5F1F4FC8018E0D9F1D2D
:1009C000281639062CF728C084E30E9428018F805E
:1009D00098848A0C9B1C00E010E0630115C0652D13
:1009E000601B8E2D40E00E942E03181419041CF089
:1009F0008A0C9B1C07C00894E11CF11C2B813C81D4
:100A0000820E931E0F5F1F4FC601801B910BE98161
:100A1000FA818E179F071CF728960FB6F894DEBF51
:100A20000FBECDBFCF91DF911F910F91FF90EF903F
:100A3000DF90CF90BF90AF909F908F907F906F90FE
:100A40005F904F903F902F900895EF92FF920F93F9
:100A50001F93182FE62EF42E022F412F0E94CF0352
:100A6000812F6E2D4F2D2E2D0E94CF038F2D602FA5
:100A7000412F202F0E94CF038F2D602F4F2D2E2D21
:100A80000E94CF031F910F91FF90EF9008950E9455
:100A9000530208950E94E0010E940F020E94530237
:100AA00008958FE084B98CEF8AB92A988FE387B9CB
:100AB00088B908952B9A2B98089594B1936094B9AE
:100AC0009AB19C6F9AB995B19C7F95B99BB193707F
:100AD0009BB925B1982F9370922B95B99BB18C7FC0
:100AE000982B9BB9089584B18C7F84B98AB18370A7
:100AF0008AB993B189B18C7F9370892B0895991B22
:100B000079E004C0991F961708F0961B881F7A9504
:0A0B1000C9F780950895F894FFCF0F
:020B1A00640075
:00000001FF
