:100000000C942C010C9449010C9449010C94490165
:100010000C9449010C9449010C9449010C94490138
:100020000C9449010C9449010C9449010C94490128
:100030000C9449010C9449010C9449010C94490118
:100040000C9449010C9449010C94B5020C9449019B
:100050000C9449010C9449010C9449010C944901F8
:100060000C9449010C94490180C0400C3EFEF2E022
:10007000F0E0FF7F3F1F1F1F1F0F0703000000005E
:1000800000006F6F00000007000700147F147F144A
:1000900000266B2A104333086463324D4936500002
:1000A00000070000001C2241000041221C00110A30
:1000B0001F0A1110107C10100000A060001010101A
:1000C0001010000060600040300806013E514945B4
:1000D0003E00427F40004261514946224149493633
:1000E000080C0A7F0827454545393C4A49493001F3
:1000F000611907013649494936064949291E000058
:100100006C6C000000AC6C00081422410014141444
:100110001414004122140802015109063E415D5D9C
:10012000467C1211127C7F494949363E41414122A9
:100130007F4141413E7F494949417F090909013ECB
:10014000414151727F0808087F41417F414121416F
:100150003F01017F081422417F404040407F02045C
:10016000027F7F0608307F3E4141413E7F090909F9
:10017000063E4141617E7F09192946264949493297
:1001800001017F01013F4040403F1F2040201F3FB1
:100190004030403F63140814630304780403615142
:1001A00049454300007F41000000000000010608AF
:1001B000304004020102048080808080010204003B
:1001C0000020545454787F484444383844444428E8
:1001D000384444487F3854545418087E09010218A2
:1001E000A4A4A4787F0808087000487A40004080E2
:1001F00080887A7F1010284400417F40007C0438BA
:1002000004787C040404783844444438FC242424CE
:1002100018182424FC807C080404084854545420F2
:1002200000083C48203C4040407C0C3040300C1CD6
:100230006018601C44281028441CA0A0A07C4464C2
:10024000544C4400083641412040FF402041413693
:10025000080010081810080011241FBECFEFD4E0CA
:10026000DEBFCDBF11E0A0E0B1E0E8E7F0E102C001
:1002700005900D92A031B107D9F712E0A0E1B1E0ED
:1002800001C01D92AA3BB107E1F70E945F010C94E7
:100290003A080C94000082E38093800089E1809307
:1002A000810084E690E090938700809386000E940E
:1002B000DF0790E090938B0080938A0008950E945E
:1002C000CF060E94C8060E944B0180E190E00E9488
:1002D000F60178940E945D0680E197E220E931E022
:1002E000F9013197F1F70197D9F7809111019091B8
:1002F0001201892B31F50E94E4078333A1F0843386
:1003000028F4813351F08233F9F40AC0853389F03F
:10031000853360F08633C1F40FC080EA91E00EC0EF
:100320008FEC90E00BC087E690E008C083E390E09C
:1003300005C082E290E002C080E190E00E94F601F8
:1003400003C086E30E94F9070E94A80280E091E0C2
:100350000E946A020EC00E948502982F803218F413
:100360000E94FD0606C080528F3518F4892F0E9426
:1003700088068091110190911201892BD1F3EBCF66
:1003800025B1982F9C7F922B95B99BB18370982BA8
:100390009BB988B118B8419A88B118B8429A0895A3
:1003A00088B118B8409A88B118B883B189B1429A17
:1003B000089525B1982F9C7F922B95B99BB183709E
:1003C000982B9BB988B118B888B18A6088B988B170
:1003D00018B8429A089588B118B888B1896088B968
:1003E00088B118B883B189B1429A08959093C50035
:1003F0008093C40082E08093C00088E98093C100AC
:1004000086E08093C2000895982F8091C00085FFF8
:10041000FCCF9093C6000895982F9F7082958F709F
:100420008A3018F4282F205D02C0282F295C809183
:10043000C00085FFFCCF2093C6009A3010F4905D79
:1004400001C0995C8091C00085FFFCCF9093C600ED
:100450000895282F6AE00E941808392F291B8091DF
:10046000C00085FFFCCF822F64E60E941808805DE3
:100470008093C6008091C00085FFFCCF822F64E688
:100480000E941808892F6AE00E941808805D8093F6
:10049000C6008091C00085FFFCCF305D3093C60060
:1004A0000895282F90E040E331E320FF07C08091BA
:1004B000C00085FFFCCF3093C60006C08091C0000D
:1004C00085FFFCCF4093C6009F5F983011F02695C2
:1004D000ECCF0895FC0107C08091C00085FFFCCFE0
:1004E00031969093C60090819923B1F78091C00016
:1004F00085FFFCCF8AE08093C6008091C00085FF15
:10050000FCCF8DE08093C6000895809111019091F9
:1005100012010197909312018093110180911501AE
:1005200090911601FC01E65EFE4FE08101969093EA
:100530001601809315018091150190911601805A42
:10054000914021F410921601109215018E2F0895FA
:1005500010921201109211011092160110921501C1
:10056000109214011092130108951F920F920FB66A
:100570000F9211242F938F939F93EF93FF9380916A
:10058000130190911401805A914021F410921401AA
:100590001092130180911101909112010196909394
:1005A0001201809311018091130190911401209107
:1005B000C600FC01E65EFE4F208301969093140175
:1005C00080931301FF91EF919F918F912F910F9045
:1005D0000FBE0F901F901895439884EF91E020E98B
:1005E00031E0F9013197F1F70197D9F7439A84EF98
:1005F00091E020E931E0F9013197F1F70197D9F75E
:100600000895089508958AE1982F9A95F1F7409AF0
:10061000982F9A95F1F740988A95F1F7089588B147
:10062000897C88B980EC0E94DB060E94030388B1B4
:10063000866388B9089588B1897F88B98FE30E945D
:10064000DB060E94030388B1866088B9089598B1DB
:10065000997F98B98770886B0E94DB060E9403031C
:1006600088B1866088B9089598B1997F98B98093C8
:1006700017018F7380640E94DB060E94030388B118
:10068000866088B908950E94DB0680911701803446
:1006900010F0459801C0449842980E94030388B125
:1006A000856388B9809117018F5F8093170187FF59
:1006B00005C01092170180E00E94340308950F9343
:1006C0001F9300E0802F0E94270380E00E943403E4
:1006D00010E080E00E9443031F5F1038D1F70F5FE6
:1006E000083081F780E00E94270380E00E943403F5
:1006F0001F910F9108950F931F93162F042F0E949F
:100700003403812F0E942703802F0E9443031F91EF
:100710000F9108950E94F10688B18D7E88B90E94DC
:1007200003030E9403030E94F10698B1926198B9F5
:1007300008951F93803418F488B18E7E02C088B16A
:100740008E7D88B91AE2812F8A95F1F7409A812F20
:100750008A95F1F74098812F8A95F1F7409A812F79
:100760008A95F1F70E94F1064098912F9A95F1F73A
:1007700098B1916398B91A95F1F71F910895FF9276
:100780000F931F93F82E162F042F0E943403812FEE
:100790008695869586950E9427038F2D0E94990342
:1007A000282F1770002351F481E090E002C0880FD9
:1007B000991F1A95E2F7122F182B0AC081E090E0DA
:1007C00002C0880F991F1A95E2F7182F109512236F
:1007D0008F2D0E943403812F0E9443031F910F919C
:1007E000FF900895EF92FF920F931F93CF93DF93A3
:1007F000062FF42EE52E882311F41FE306C0803463
:1008000011F41FE702C0182F1150812F0E943403EA
:10081000103470F488B18E7E88B9202F30E08FE3D9
:1008200090E0811B9109821793073CF400E005C01A
:1008300017FD28C088B18E7D88B90E940303409AB5
:1008400085E38A95F1F740988AE18A95F1F78F2D33
:100850009E2D9C01E90110E095E3E92E8AE1F82E36
:100860000CC0409A8E2D8A95F1F70E94F10689936B
:1008700040988F2D8A95F1F71F5F101790F388B17C
:100880008E6C88B9DF91CF911F910F91FF90EF90FF
:100890000895982F80911001882339F497FD05C0A1
:1008A000603418F4892F0E94BF0308952F923F925D
:1008B0004F925F926F927F928F929F92AF92BF9270
:1008C000CF92DF92EF92FF920F931F93DF93CF931C
:1008D00000D00F92CDB7DEB7982E862E242E33246B
:1008E000C101880F991F21E030E0281B390B3B83A1
:1008F0002A8344245524662477245201AA0CBB1C65
:10090000322D390D3983E42CE80C832F6E2D40E015
:100910000E944904C42CC90CD22CD80C8C2D6D2DEE
:1009200040E00E944904F92CF2188F2D6E2D40E012
:100930000E944904E92CE4188E2D6D2D40E00E94A0
:100940004904D82CD4188F2D6D2D40E00E94490405
:10095000182D12198E2D612F40E00E9449048981C3
:100960006D2D40E00E9449048C2D612F40E00E94D3
:1009700049040894411C511C6A0C7B1CC301880F5C
:10098000991FEA81FB818E0F9F1F1816190644F4E8
:100990000894210831086E0E7F1E3296FB83EA838D
:1009A000241435040CF0A9CF0F900F900F90CF9125
:1009B000DF911F910F91FF90EF90DF90CF90BF904C
:1009C000AF909F908F907F906F905F904F903F90EF
:1009D0002F9008952F923F924F925F926F927F9245
:1009E0008F929F92AF92BF92CF92DF92EF92FF923F
:1009F0000F931F93DF93CF9300D000D000D0CDB7DB
:100A0000DEB7482E562E481734F1841751F52617B5
:100A10001CF4822F262F582EC42CDD24C7FCD09422
:100A2000AA24BB24E52CFF24E7FCF094022F112715
:100A300007FD109509C0652D6A0D8C2D40E00E94C0
:100A400049040894A11CB11CC5018E0D9F1D0817F7
:100A500019078CF7E8C0842F442D482E822F262FAB
:100A6000582E652C772467FC70945216D9F4CC2448
:100A7000DD24E42CFF24E7FCF094042F112707FD6C
:100A8000109509C0842D8C0D662D40E00E9449040C
:100A90000894C11CD11CC6018E0D9F1D0817190793
:100AA0008CF7C1C0822F992787FD90959A838983FF
:100AB00063019C0126193709242E332427FC309426
:100AC000E42CFF24E7FCF094A1014E195F094901D1
:100AD000880C991C5A01AA0CBB1C37FD4FC0F401AD
:100AE000EA19FB09FE83ED834217530714F1540101
:100AF000A41AB50A00E010E015C0842D800F6C2DFB
:100B000040E00E9449041A141B041CF0A80CB91CF4
:100B100007C00894C11CD11C2D813E81A20EB31EBA
:100B20000F5F1F4FC8018E0D9F1D281639062CF729
:100B30007AC04501821A930A00E010E0630115C0F3
:100B4000652D600F8E2D40E00E9449041814190491
:100B50001CF08A0C9B1C07C00894E11CF11C8D81C1
:100B60009E81881A990A0F5F1F4FC8018C0D9D1D29
:100B7000E981FA81E817F9071CF755C0C501880D0E
:100B8000991D9C838B8388279927821B930B481779
:100B900059072CF1AA24BB24A818B908A41AB50A2D
:100BA00000E010E015C0842D800F6C2D40E00E9405
:100BB00049041A141B041CF0A818B90807C00894AB
:100BC000C108D108EB81FC81AE1ABF0A0F5F1F4F2D
:100BD000C8018E0D9F1D281639062CF724C045012B
:100BE000820E931E00E010E0630115C0652D601BAE
:100BF0008E2D40E00E944904181419041CF08A0C40
:100C00009B1C07C00894E11CF11C2B813C81820EC7
:100C1000931E0F5F1F4FC601801B910BE981FA8164
:100C20008E179F071CF726960FB6F894DEBF0FBEEF
:100C3000CDBFCF91DF911F910F91FF90EF90DF908B
:100C4000CF90BF90AF909F908F907F906F905F906C
:100C50004F903F902F900895CF92DF92EF92FF92A6
:100C60000F931F93182FC62EE42EF22E412F0E94B1
:100C7000EA04812F6C2D4E2D2C2D0E94EA048E2D1E
:100C80006F2D412F2F2D0E94EA048E2D6F2D4E2D9A
:100C90002C2D0E94EA041F910F91FF90EF90DF909E
:100CA000CF900895982F80911001882329F497FD03
:100CB00003C0892F0E947B030895CF93DF93809117
:100CC0001001882311F5C0E0D0E0FE01E859FF4F84
:100CD000E4919E012A5C822F63E04E2F0E9452060F
:100CE0002196CA30D10589F7C0E0D0E0FE01EE5868
:100CF000FF4FE4919E012A5C822F64E04E2F0E94F8
:100D000052062196CA30D10589F7DF91CF91089517
:100D10000F931F93CF93DF93982F80528F3580F5D9
:100D2000892F90E08097EC01CC0FDD1FCC0FDD1FE9
:100D3000C80FD91FC458DF4F10E006E0FE014491F0
:100D400080911801809FC0011124810F60911901C9
:100D50000E9452061F5F2196153081F7809118017D
:100D60008F5F80931801863158F01092180180919E
:100D700019018F5F80931901883010F010921901CA
:100D8000DF91CF911F910F9108950E945F03089505
:100D90000E94EC020E941B030E945F0308958FE0F3
:100DA00084B98CEF8AB92A988FE387B988B90895F6
:100DB0002B9A2B98089594B1936094B99AB19C6F33
:100DC0009AB995B19C7F95B99BB193709BB925B1A8
:100DD000982F9370922B95B99BB18C7F982B9BB9D0
:100DE000089584B18C7F84B98AB183708AB993B134
:100DF00089B18C7F9370892B0895EF92FF920F93A6
:100E0000DF93CF9300D000D00F92CDB7DEB78730FD
:100E100071F1883040F4823099F0833009F48EC04B
:100E2000882359F0C1C08F3009F4A3C0803109F480
:100E30004FC08C3009F0B8C065C00E94C506B4C070
:100E40008091110190911201892BD1F30E948502AA
:100E50008983853610F084E689838981282F30E0E4
:100E600030938B0020938A000E94F3079DC08091ED
:100E7000110190911201892BD1F30E948502082F54
:100E80000E94F9070333C1F0043330F4013361F0F9
:100E9000023309F089C00BC00533A1F0053378F0A7
:100EA000063309F081C011C080EA91E002C08FECE6
:100EB00090E00E94F60178C087E690E0FACF83E3E5
:100EC00090E0F7CF82E290E0F4CF80E190E0F1CFC4
:100ED00000E07E010894E11CF11C809111019091C9
:100EE0001201892B39F00E948502F701E00FF11DF4
:100EF00080830F5F033088F389816A8140E00E941C
:100F0000490452C000E07E010894E11CF11C80916C
:100F1000110190911201892B39F00E948502F7018D
:100F2000E00FF11D80830F5F053088F389816A81AE
:100F30004B812C8100E00E94EA0436C000E07E0173
:100F40000894E11CF11C8091110190911201892BF0
:100F500039F00E948502F701E00FF11D80830F5FD9
:100F6000043088F389816A814B8120E00E94560415
:100F70001BC000E07E010894E11CF11C809111016E
:100F800090911201892B39F00E948502F701E00F40
:100F9000F11D80830F5F053088F389816A814B8161
:100FA0002C8100E00E942C060F900F900F900F9064
:100FB0000F90CF91DF910F91FF90EF90089583E014
:100FC00090E00E942408089582E090E00E942408A6
:100FD000089581E090E00E942408089580E090E068
:100FE0000E9424080895682F83E090E00E942C0856
:100FF0000895682F8153863020F482E090E00E94AB
:101000002C08089581E090E00E94240861E06827A0
:1010100081E090E00E942C08089580E090E00E941A
:10102000240861E0682780E090E00E942C08089581
:10103000991B79E004C0991F961708F0961B881F2A
:101040007A95C9F780950895F999FECF92BD81BD33
:10105000F89A992780B50895262FF999FECF1FBADF
:1010600092BD81BD20BD0FB6F894FA9AF99A0FBED1
:0810700001960895F894FFCFEA
:10107800526561647920746F20736572766521000A
:00000001FF
