:100000000C9434000C9451000C9451000C94510049
:100010000C9451000C9451000C9451000C9451001C
:100020000C9451000C9451000C9451000C9451000C
:100030000C9451000C9451000C9451000C945100FC
:100040000C9451000C9451000C9436010C94510006
:100050000C9451000C9451000C9451000C945100DC
:100060000C9451000C94510011241FBECFEFD4E02A
:10007000DEBFCDBF11E0A0E0B1E0E8EEF4E002C0E9
:1000800005900D92A230B107D9F712E0A2E0B1E0DD
:1000900001C01D92AA3AB107E1F70E9472000C94C8
:1000A00072020C9400008FE084B98CEF8AB92A9810
:1000B0008FE387B988B9089582E38093800089E14E
:1000C0008093810084E690E090938700809386007F
:1000D00089E190E090938B0080938A0008952B9A99
:1000E0002B9808951F9380E190E00E9403010E94E5
:1000F000530082E38093800089E18093810084E64D
:1001000090E0909387008093860089E190E090933F
:100110008B0080938A0081E20E9411018AE00E9494
:10012000110178940E946D010E949D010E94E401DA
:1001300010E0812F612F40E00E941E021F5F1E31E0
:10014000C1F724C08091030190910401019790931D
:100150000401809303018091070190910801805A66
:10016000914021F41092080110920701209107019B
:1001700030910801F901E65FFE4F80812F5F3F4F0C
:1001800030930801209307010E941101809103011F
:1001900090910401892BD1F3D5CF25B1982F9C7F65
:1001A000922B95B99BB18370982B9BB988B118B8E5
:1001B000419A88B118B8429A089588B118B8409AFF
:1001C00088B118B883B189B1429A089525B1982FA2
:1001D0009C7F922B95B99BB18370982B9BB988B16A
:1001E00018B888B18A6088B988B118B8429A089559
:1001F00088B118B888B1896088B988B118B883B156
:1002000089B1429A08959093C5008093C40082E01A
:100210008093C00088E98093C10086E08093C2008B
:100220000895982F8091C00085FFFCCF9093C60061
:100230000895982F9F7082958F708A3018F4282F18
:10024000205D02C0282F295C8091C00085FFFCCF73
:100250002093C6009A3010F4905D01C0995C8091A3
:10026000C00085FFFCCF9093C60008951F920F92A7
:100270000FB60F9211242F938F939F93EF93FF93B9
:100280008091050190910601805A914021F41092CD
:1002900006011092050180910301909104010196DD
:1002A00090930401809303018091050190910601D0
:1002B0002091C600FC01E65FFE4F208301969093DB
:1002C000060180930501FF91EF919F918F912F91EE
:1002D0000F900FBE0F901F901895439884EF91E0F8
:1002E00020E931E0F9013197F1F70197D9F7439A05
:1002F00084EF91E020E931E0F9013197F1F70197BE
:10030000D9F70895089508958AE1982F9A95F1F7FD
:10031000409A982F9A95F1F740988A95F1F70895A9
:1003200088B1897C88B980EC90E00E9450020E94DC
:10033000840188B1866388B9089588B1897F88B9B6
:100340008FE390E00E9450020E94840188B1866091
:1003500088B9089598B1997F98B98770886B90E0B3
:100360000E9450020E94840188B1866088B9089575
:1003700098B1997F98B98F73806490E00E94500281
:100380000E94840188B1866088B9089590E00E9437
:100390005002809109018F5F809309018150803460
:1003A00010F0459801C0449842980E94840188B199
:1003B000846388B98091090187FF05C01092090103
:1003C00080E00E94B80108950F931F9300E0802FF2
:1003D0000E94AA0180E00E94B80110E080E00E9423
:1003E000C6011F5F1038D1F70F5F083081F780E03A
:1003F0000E94AA0180E00E94B8011F910F91089508
:100400000E94660288B18D7E88B90E9484010E9494
:1004100084010E94660298B1926198B908950E9481
:10042000660244988AE1982F9A95F1F7409A8A9546
:10043000F1F70E9466024098449A0895FF920F9344
:100440001F93F82E162F042F0E94B801812F869536
:10045000869586950E94AA010E940F02282F177088
:10046000002351F481E090E002C0880F991F1A9593
:10047000E2F7122F182B0AC081E090E002C0880F2B
:10048000991F1A95E2F7182F109512238F2D0E94AD
:10049000B801812F0E94C6011F910F91FF9008950E
:1004A00094B1936094B99AB19C6F9AB995B19C7FBD
:1004B00095B99BB193709BB925B1982F9370922BEE
:1004C00095B99BB18C7F982B9BB9089584B18C7F93
:1004D00084B98AB183708AB993B189B18C7F9370E2
:0804E000892B0895F894FFCF69
:0204E8006400AE
:00000001FF
